:100000001BC035C034C033C032C031C030C02FC077
:100010002EC02DC02CC0AECB2AC029C07BC427C0A7
:1000200026C025C024C0BFC9DFC9EEC913CA47CA4C
:1000300061CA82CAC7CA1ACB11241FBECFE5D4E059
:10004000DEBFCDBF10E0A0E6B0E0EEE8F8E102C010
:1000500005900D92AC36B107D9F723E0ACE6B0E0DD
:1000600001C01D92AF39B207E1F775D00ECCC8CFF1
:1000700070E08D3011F128F48B3041F08C3091F02C
:1000800008958031F9F0813179F1089580917600F9
:10009000909177008827680F791F7093770060939D
:1000A00076000895762F662780917600680F711D7F
:1000B0007093770060937600089570937500609355
:1000C0007400089580917000909171008827680FE6
:1000D000791F70937100609370006F5F7F4F709312
:1000E0006F0060936E000895762F662780917000F0
:1000F000680F711D70937100609370006F5F7F4F88
:1001000070936F0060936E0008958D3091F028F425
:100110008B3049F08C3051F01BC08F3081F060F093
:10012000803181F015C08091BB0008958091BC00A2
:1001300008958091B90008958091BD00089580913F
:10014000BE000895809170009091710099270895E4
:1001500080E090E00895CF93DF93CDB7DEB7E997C5
:100160000FB6F894DEBF0FBECDBF11BC8A9A929A2B
:1001700068D600D795D38091DE0090E0F0D77894D0
:1001800080E48BAB1CAA1DAA1EAA1FAA88EE93E0CE
:100190002DD300E010E0612CF12C19AED12CE12C14
:1001A00018AE0F2EF6E0CF2EF02D6894332433F8DE
:1001B0000F2EF8EE4F2EF3E05F2EF02D0F2EF4E60B
:1001C0002F2EF02D0115110549F4929825E630E007
:1001D000422F61E0CE01C3966FD705C0083B3BE0DC
:1001E000130709F4929A0F5F1F4FF1102CC0609112
:1001F000C9007091CA0080916E0090916F006817DD
:10020000790799F080E134DF6091CA0081E130DF45
:100210008091700090917100E9D28091700090916E
:10022000710090936F0080936E0060D580916C0098
:1002300090916D00009749F0019790936D00809325
:100240006C00FC2C03C0FA9401C0FC2C57DA20E0AF
:1002500043E060E0CE010196A2D6082E000C990B77
:10026000181619060CF092C229812F3F09F05DC1C2
:100270002B81263071F4DA808091DA00289EC0014B
:10028000112490936D0080936C00E12C41E048AF05
:1002900077C2233009F084C05C0154E0A51AB1088C
:1002A00020E041E063E0CE01029679D684E08B83C2
:1002B000A114B10429F1912C6B8181E0860F8B830D
:1002C00020E041E0CE0101966AD68A818B3060F44D
:1002D000F89469818A8191E0980F9A8390E043D5E0
:1002E00078949924939407C0823128F4698191E02D
:1002F000980F9A83BDDE91E0A91AB108E9F601C012
:10030000912C80917600909177002091720030912D
:10031000730082179307C9F0909373008093720063
:10032000609174007091750020E030E044E650E088
:1003300069D250926F0040926E00509271004092CC
:1003400070005092CA004092C90080917000909154
:10035000710020916E0030916F0082179307A9F011
:1003600045D2809170009091710090936F008093BE
:100370006E009093CA008093C9001092730010928F
:1003800072001092770010927600992009F4F8C15B
:10039000F89457D578948091DE0090E0E0D6F0C1D3
:1003A000233809F089C020E042E063E0CE010196E5
:1003B000F6D521E04A816C2DCE010396F0D58A81D5
:1003C000882351F1FE0133964F01A12CB12C712CE1
:1003D00089818B3068F4F894F4016081898191E01F
:1003E000980F998390E0BFD478947724739408C0D1
:1003F000823130F4F401608191E0980F998338DE06
:10040000FFEFAF1ABF0A2FEF821A920A8A8190E09B
:10041000A816B906E8F201C0712C8091760090917F
:100420007700209172003091730082179307C9F012
:1004300090937300809372006091740070917500C6
:1004400020E030E044E650E0DDD150926F00409271
:100450006E0050927100409270005092CA0040921B
:10046000C900809170009091710020916E003091D0
:100470006F0082179307A9F0B9D180917000909115
:10048000710090936F0080936E009093CA008093E8
:10049000C9001092730010927200109277001092AF
:1004A0007600772009F46CC1F894CBD478948091CD
:1004B000DE0090E054D664C1273029F538AD3230E3
:1004C00009F05EC1DA80E1100DC08091BB0090910F
:1004D000BC0099838A834D2D62E0CE010196ECD554
:1004E00019AE4EC18091DE0090E0880F991F689E82
:1004F0009001699E300D112430936D0020936C00A3
:1005000041E049AF3DC1293041F4F894FCD47894DE
:100510008091DE0090E023D633C1DA8039824D2D00
:1005200061E0CE010196C8D52BC13091DA002313CA
:1005300007C1DA802B81233009F097C05C0154E0B9
:10054000A51AB10820E041E063E0CE01029627D56C
:100550008A81F501E80FF11D73973CF039824D2D2A
:1005600061E0CE010196A8D50BC1F4E0FB83A11494
:10057000B10429F1912C6B8181E0860F8B8320E0FF
:1005800041E0CE0101960BD58A818B3060F4F8945E
:1005900069818A8191E0980F9A8390E0E4D37894FE
:1005A0009924939407C0823128F4698191E0980FCF
:1005B0009A835EDD21E0A21AB108E9F601C0912C10
:1005C00080917600909177002091720030917300B5
:1005D00082179307C9F09093730080937200609123
:1005E00074007091750020E030E044E650E00AD1DC
:1005F00050926F0040926E005092710040927000D5
:100600005092CA004092C900809170009091710090
:1006100020916E0030916F0082179307A9F0E6D009
:10062000809170009091710090936F0080936E00A4
:100630009093CA008093C9001092730010927200C8
:100640001092770010927600992039F0F894F9D33F
:1006500078948091DE0090E082D534E039834D2D8E
:1006600061E0CE01019628D58BC0223009F046C04A
:1006700020E042E063E0CE01039691D48C8190E0CB
:100680002B81AC01420F511D4331510534F4181632
:10069000190654F0A12CB12C2BC039824D2D61E0EC
:1006A000CE01019609D56CC0CE0105964C01A12C56
:1006B000B12C8B818B3058F4F8948B81F501E80FC5
:1006C000F11DCF01BCD3F4018083789406C0823140
:1006D00020F48A0D1ADDF4018083FFEFAF1ABF0A00
:1006E0002FEF821A920A8C8190E0A816B9060CF3BB
:1006F0004D2D6A2DCE010596DFD442C0213041F444
:1007000081E089834D2D61E0CE010196D5D438C0BA
:10071000293079F4F894F7D378948091DE0090E052
:100720001ED581E089834D2D61E0CE010196C4D4B0
:1007300027C039824D2D61E0CE010196BDD420C085
:10074000BA80BE1014C038AD3230B9F449AD413072
:10075000B1F48091BB009091BC0099838A834D2DA8
:1007600062E0CE010196A8D4EB2C19AE09C058ADB9
:10077000513031F46394EB2C03C0EB2C01C0EB2C13
:1007800021E040E060E080E090E009D488AD813075
:1007900089F480916C0090916D00892B09F012CD45
:1007A00081E089834D2D61E0CE01019685D492E0F0
:1007B00098AF08CDE8ADE23009F004CDF9ADF130E5
:1007C00009F000CD80916C0090916D00892B09F0AB
:1007D000F9CC8091BB009091BC0099838A834D2D08
:1007E00062E0CE01019668D419AEECCC813D27E0E1
:1007F000920730F490938E0080938D0081E00895ED
:1008000080E00895E091D600F0E08E179F0774F124
:10081000A091DF00EFEFF3E0EA1BF109E817F90719
:100820003CF16B30710530F54536510528F5F9017D
:100830007496B99718F590939400809393007093F1
:100840009200609391003093900020938F0050931A
:1008500096004093950081E08093970081ED97E0AA
:1008600090938E0080938D0081E0089580E008953C
:1008700080E0089580E0089580E0089580E0089584
:1008800017B8369A82E08093B700109260000895FE
:1008900082E087B9369A8093B8001092600008957C
:1008A00087B3866087BB84B3817084BB84B3847054
:1008B00084BB86B1876086B93E9A339A379A34985A
:1008C00080E008952091C20021110DC0E8E9F0E018
:1008D00024EB30E081939193E217F307D9F781E09D
:1008E0008093C20008958091B600E82FF0E0EE0FEB
:1008F000FF1FE856FF4F2091BB003091BC003183B1
:1009000020838F5F8F3019F08093B6000895109286
:10091000B60008951F920F920FB60F9211248F9375
:1009200081E080937800349A8F910F900FBE0F90E2
:100930001F901895CF93DF9380918D0090918E003A
:10094000813D27E0920708F488C12091BB003091D7
:10095000BC004091DF008FEF93E0841B9109821768
:1009600093070CF453C18091D60090E02817390703
:100970000CF44FC1409191005091920080919300EE
:1009800090919400B901640F751F681779070CF0F6
:1009900066C060919700613009F0CFC080917F0000
:1009A0009091800090937E0080937D002091B9000B
:1009B0003091BA00421B530B5093800040937F004C
:1009C00050938C0040938B002091D90030E06091CF
:1009D000890070918A00269FF001279FF00D369FB5
:1009E000F00D1124E131A7E2FA071CF018161906E0
:1009F0005CF0E03FF84D14F4992334F0680F791F50
:100A000070938A0060938900FA01E81BF90BF09358
:100A10008800E09387008091D700849FE001859F44
:100A2000D00D11244091890050918A00249FC0016B
:100A3000259F900D349F900D11246AE070E0F1D64F
:100A4000CE01860F971F4091D8004E9F90014F9F77
:100A5000300D1124820F931F88519C4FDCC0B901C7
:100A6000641B750B861797070CF067C060919700A1
:100A7000613009F062C080917F0090918000909376
:100A80007E0080937D002091B9003091BA00421B16
:100A9000530B5093800040937F0050938C00409301
:100AA0008B002091D90030E06091890070918A001C
:100AB000269FF001279FF00D369FF00D1124E131A4
:100AC000A7E2FA071CF0181619065CF0E03FF84D93
:100AD00014F4992334F0680F791F70938A0060939F
:100AE0008900FA01E81BF90BF0938800E093870076
:100AF0008091D700849FE001859FD00D1124409103
:100B0000890050918A00249FC001259F900D349F39
:100B1000900D11246AE070E084D66C0F7D1F209147
:100B2000D8002E9FC0012F9F900D1124680F791FB0
:100B300088EE93E0861B970B6EC010928000109297
:100B40007F0010928A001092890060917B00709162
:100B50007C0070937A0060937900AC01421B530BC8
:100B60009A0150937C0040937B0050938600409301
:100B700085004091DD0050E08091830090918400D9
:100B8000489FF001499FF00D589FF00D1124E1316D
:100B9000A7E2FA071CF0161617065CF0E03FF84DC6
:100BA00014F4772334F0860F971F9093840080937A
:100BB0008300F901E61BF70BF0938200E0938100BC
:100BC000109297008091DC00829FE001839FD00DFE
:100BD00011242091830030918400429FC001439FE3
:100BE000900D529F900D112464E670E01AD6CE014C
:100BF000860F971F4091DB004E9F90014F9F300D55
:100C00001124820F931F88519C4F05C08CE291E004
:100C100002C084EA96E04091950050919600BA0196
:100C2000660F771F9A01220F331F220F331F220FE7
:100C3000331F260F371F28513C4F281739070CF454
:100C4000C90166EF64039001659F300D112428519E
:100C50003C4F821793070CF4C9015BD1DF91CF9110
:100C600008958091B800823071F424B185B190E08C
:100C7000982F8827820F911D9093BE008093BD000E
:100C80001092B8002FC08091B700823059F524B17E
:100C900085B190E0982F8827820F911D9093BC001A
:100CA0008093BB000FDEE091B600F0E0EE0FFF1F77
:100CB000E856FF4F8091BB009091BC0020813181AC
:100CC000821B930B2AF09093BA008093B90007C05F
:100CD0009195819591099093BA008093B9002ADE8D
:100CE0001092B70081E080936000089580917800B1
:100CF000813019F4B6DF109278008091C1008A30FB
:100D0000F9F41092C10081E08093B7008091BF0098
:100D10009091C000883E23E0920761F41092C000D9
:100D20001092BF0081E08093B80080916000813014
:100D3000C9F411C001969093C0008093BF0003C016
:100D40008F5F8093C10080916000813059F4809161
:100D5000B800813011F49CDD08958091B700813096
:100D600009F48EDD08958A3A9105C1F0813091052C
:100D700029F42FEF260F2E3F70F012C08A30910514
:100D800051F46F3C41F0623231F0603121F0633058
:100D900011F0623038F46CD581E0089580E0089558
:100DA00080E0089580E00895EF92FF920F931F93E3
:100DB000CF93DF934423B9F07B018B014150242F63
:100DC00030E02F5F3F4FE20EF31EC82FD92FF801FE
:100DD00061918F01CE01C7DF813039F421960E1564
:100DE0001F05A9F703C081E001C080E0DF91CF912A
:100DF0001F910F91FF90EF900895EF92FF920F9344
:100E00001F93CF93DF93442399F04150042F10E0B8
:100E10000F5F1F4F060F171FEB017C01E61AF70A41
:100E2000C7018C0F9D1F1CD58993C017D107C1F72F
:100E3000DF91CF911F910F91FF90EF90089510D502
:100E4000089580E090E00CD58A3A61F161E081E09C
:100E500090E089DF62E082E090E085DF62E083E09D
:100E600090E081DF68E284E090E07DDF61E085E092
:100E700090E079DF6AE086E090E075DF68E287E085
:100E800090E071DF6AE088E090E06DDF60E089E08B
:100E900090E069DF61E08AE090E065DF6AEA80E087
:100EA00090E0E6D481E090E0DBD48093DA0082E049
:100EB00090E0D6D48093DF0083E090E0D1D480939B
:100EC000D60084E090E0CCD48093DC0085E090E014
:100ED000C7D48093DD0086E090E0C2D48093DB002D
:100EE00087E090E0BDD48093D70088E090E0B8D44C
:100EF0008093D90089E090E0B3D48093D80081E05A
:100F00008093DE00089560E080E090E0B1D499DF46
:100F1000089520916100309162008217930741F19A
:100F200028B3297F28BB2FB7F8941FBC893E33E034
:100F3000930750F0AC01485E53405BBD4ABD3FB5DE
:100F400030683FBDC19A0EC0883E33E0930750F42D
:100F500048EE53E0481B590B59BD48BD3FB53062C0
:100F60003FBDC29A78942FBF909362008093610036
:100F700081E0089588B3897F88BB1DBC1CBC1FBC61
:100F80001EBC88EE93E097BD86BD82E18EBD1BBC82
:100F90001ABC19BC18BC88EE93E0BBDF0895CF9350
:100FA000DF93FC01C22F9091D500911135C0F894C8
:100FB0008091C30021E0281B2093D40030E0D901A8
:100FC000AC53BF4F9C91992329F1442319F1A42FCD
:100FD000B0E0A60FB11DC92FD0E0CA17DB07D4F0CF
:100FE00081E08093D5009093D300D901AC53BF4FDB
:100FF0008FEF8C93789450E08091D4002BEF829FF8
:10100000C001112480529F4F9C01260F311DB90150
:10101000CF01E5D3789427C04423C9F0242F30E0D2
:10102000260F311D8091D30090E0821793078CF03A
:1010300050E08091D4003BEF839FC0011124805287
:101040009F4F9C01260F311DB901CF01C8D3C1307C
:1010500051F4E091D400F0E0EC53FF4F1082109275
:10106000D3001092D5008091D300DF91CF910895E5
:101070006623E1F0A82FB92F20E0E091C80091E0AD
:101080009E0F9093C8003D91F0E0EA52FD4F3083EF
:10109000983C11F41092C8009091C600983C48F416
:1010A0009F5F9093C6002F5F2613E7CF862F90E0B7
:1010B000089561E0620FFACFEF92FF920F931F93B2
:1010C000CF93DF9300D0CDB7DEB77C01162F042F6E
:1010D0008AEA89831A8261E0CE010196C9DF82E043
:1010E000810F898340E061E0CE01019666D38A8357
:1010F00061E0CE010196BCDF098340E061E0CE01F2
:1011000001965BD39A81890F8A8361E0CE010196B3
:10111000AFDF8091DA00898340E061E0CE01019683
:101120004CD39A81890F8A8361E0CE010196A0DFBA
:10113000612FC7019DDF40E0612FC7013ED39A8137
:10114000890F8A8361E0CE01029692DF0F900F90A3
:10115000DF91CF911F910F91FF90EF90089521B3F0
:10116000206C21BB22E02BB928E92AB92AB1287FBB
:101170002AB926E820BD20B5276020BD90BD89B9D9
:101180005E9A0895EF92FF920F931F93CF93DF9390
:10119000CDB7DEB72A970FB6F894DEBF0FBECDBF2E
:1011A0008C0185E090E09A8389831C821B821E82D9
:1011B0001D8218861F8280E197E29A878987101620
:1011C00011060CF04FC089819A819C012150310990
:1011D0003A832983892B09F4A4C0EE24E394F12CEB
:1011E00069857A85C80109D37E836D838D819E814F
:1011F000892B21F48B819C81019781F4FC82EB8205
:101200008D819E81C0969E838D8361E0CE0105967F
:101210002FDF8D819E81C0979E838D832D813E819E
:1012200049855A85429FC001439F900D529F900D62
:101230001124081B190B29853A85ADECBCEC04D3AD
:101240009695879596958795969587959A87898798
:1012500029813A81C90101979A838983232B09F057
:10126000BFCF5FC011230CF054C00E5F1F4F188713
:101270000F8389819A819C01215031093A83298306
:10128000892B09F44EC08F81988569857A85B5D2FE
:101290007E836D838D819E81892B21F48B819C813E
:1012A000892BD9F08B819C8101969C838B838D81C6
:1012B0009E81C0969E838D838B819C81019721F4B2
:1012C00061E08AE690E0D4DE61E0CE010596D0DEF2
:1012D0008D819E81C0979E838D838D819E8189851E
:1012E0009A8529853A85ADECBCECAED2969587956A
:1012F00096958795969587959A87898789819A810A
:101300009C01215031093A832983892B09F0BBCFF5
:1013100008C080E390E09E838D8361E0CE01059656
:10132000A7DE2A960FB6F894DEBF0FBECDBFDF91C1
:10133000CF911F910F91FF90EF9008955F9BD4C1C3
:1013400080916300909164000097D9F41092D200CC
:101350001092D1001092D0001092CF001092CE00C7
:101360001092CD001092CC00E4ECF0E010821182DB
:101370001092C30088EC90E0909364008093630027
:1013800005C0019790936400809363009CB18091A5
:10139000D200482F50E04930510508F0A7C1FA01AA
:1013A000ED5EFF4F09949A3A09F0A2C18091C30003
:1013B000E82FF0E0EC53FF4F90819F3F21F491E044
:1013C000981B9093C300E091C300F0E0EC53FF4FF3
:1013D000108281E08093D20088EC90E090936400CA
:1013E0008093630081E008951092CF00993C18F03B
:1013F0001092D20008959093D00090959093D100D0
:1014000092E09093D2000895E091C3008091CF00C4
:1014100021E0280F2093CF003BEFE39FF001112440
:10142000E80FF11DE052FF4F90838091D100815071
:10143000891B8093D100233009F05CC1933829F4D3
:1014400084E08093D20081E0089583E08093D2000D
:1014500081E008952091C3008091CF00422F50E099
:101460003BEF239FF0011124E80FF11DE052FF4FE5
:10147000908331E0380F3093CF003091D000831348
:1014800016C03091D100391308C0FA01EC53FF4F58
:10149000808381E0821B8093C3001092D20010925F
:1014A000D1001092D0001092CF0081E00895809179
:1014B000D1008150891B8093D10081E00895209153
:1014C000CF00E091C3004BEFE49FF0011124E20F45
:1014D000F11DE052FF4F90838091D1008150891B14
:1014E0008093D1002F5F2093CF0085E08093D200BE
:1014F00081E008958091CF00E091C3002BEFE29F3F
:10150000F0011124E80FF11DE052FF4F90839093FA
:10151000CD008F5F8093CF002091D1002150291BF7
:101520002093D1009F5F9093CC0096E09093D200DF
:101530008093CE0081E008954091CC0050E020914E
:10154000CD0030E02F5F3F4F4217530749F510920F
:10155000CC002091CF008091D000281309C01092B8
:10156000D2001092D1001092D0001092CF0018C07B
:101570008091DA00981314C0E091C3008091CE00EE
:1015800021E0280F2093CE003BEFE39FF0011124D0
:10159000E80FF11DE052FF4F908387E08093D20067
:1015A0008091CC008F5F8093CC008091D1008150DE
:1015B000891B8093D1008091CF008F5F8093CF00F3
:1015C00081E00895E091C3008091CE0021E0280FD2
:1015D0002093CE004E2F50E03BEFE39FF00111240B
:1015E000E80FF11DE052FF4F90838091D1008150B0
:1015F000891B8093D1008091CF008F5F8093CF00B3
:101600008091CC0091E0980F9093CC009091CD0008
:10161000891372C0822F90E02BEF249FF001259F49
:10162000F00D1124E80FF91FE552FF4F2081203102
:10163000C1F46BEF649F9001659F300D112420521F
:101640003F4F820F931FFC0132972081319680819A
:1016500090E0982F8827820F911D9093CA00809365
:10166000C90088E08093D20081E008952091CF00E6
:101670008091D00028132DC08091D10089131DC006
:101680009091C3008091CE00292F30E04BEF949FC2
:10169000F0011124E052FF4FE80FF11D35978081D2
:1016A000803159F0F901EC53FF4F8091CD008A5FF2
:1016B000808381E0891B8093C3001092D200109236
:1016C000D1001092D0001092CF001092CE0081E095
:1016D00008958091D1008150891B8093D1002F5FA4
:1016E0002093CF0081E0089580E0089581E008957F
:1016F00081E0089581E0089581E008955D9B24C014
:101700008091C600882321F18091CB00811105C012
:1017100081E08093CB00979A9698E091C700F0E023
:10172000EA52FD4F80818CB98091C7008F5F809312
:10173000C7009091C60091509093C600883CA1F4D8
:101740001092C70081E008958091C60081110EC0FB
:101750005E9B0EC085E400008150E8F71092CB003C
:101760009798969A5E9A089581E008958FEF08956C
:1017700080E008951F920F920FB60F9211242F93BD
:101780003F934F935F936F937F938F939F93AF9309
:10179000BF93EF93FF93D2DDFF91EF91BF91AF9194
:1017A0009F918F917F916F915F914F913F912F9179
:1017B0000F900FBE0F901F901895662371F0FC01DB
:1017C0006150262F30E02F5F3F4F280F391F919136
:1017D0009095490FE217F307D1F7842F089541152B
:1017E000510551F0A62FB72FFC01480F591F9D91AD
:1017F0009193E417F507D9F70895AA1BBB1B51E194
:1018000007C0AA1FBB1FA617B70710F0A61BB70B70
:10181000881F991F5A95A9F780959095BC01CD0115
:10182000089597FB072E16F4009406D077FD08D094
:10183000E4DF07FC05D03EF4909581959F4F089515
:10184000709561957F4F0895A29FB001B39FC0012D
:10185000A39F01D0B29F700D811D1124911D089589
:10186000E199FECF9FBB8EBBE09A99278DB3089577
:10187000262FE199FECF9FBB8EBB2DBB0FB6F894F0
:0E188000E29AE19A0FBE01960895F894FFCF08
:0C188E0001E803C80030784645002D003A
:00000001FF
