:100000001BC035C034C033C032C031C030C02FC077
:100010002EC02DC02CC04AC82AC029C022C127C06A
:1000200026C025C024C08FC47FC55EC53EC522C57D
:10003000FFC4E0C49EC47FC511241FBECFE5D4E039
:10004000DEBFCDBF10E0A0E6B0E0E4E0F8E102C022
:1000500005900D92A237B107D9F723E0A2E7B0E0EF
:1000600001C01D92A53AB207E1F765D8C9CBC8CF48
:1000700070E08D3009F445C078F48B30B1F18C30EC
:1000800009F5762F662780917C00680F711D7093AB
:100090007D0060937C0008958031A9F0813189F45E
:1000A000762F662780917600680F711D7093770018
:1000B000609376006F5F7F4F70937500609374005C
:1000C000089508950895809176009091770088278B
:1000D000680F791F70937700609376006F5F7F4F92
:1000E0007093750060937400089580917C009091E6
:1000F0007D008827680F791F70937D0060937C00D6
:10010000089570937B0060937A0008958D30D9F044
:1001100040F08F3069F0A0F0803169F48091760072
:1001200008958B3051F08C3031F48091C2000895E5
:100130008091C400089580E008958091C1000895E1
:100140008091C30008958091BF000895813D27E00C
:10015000920730F4909394008093930081E0089587
:1001600080E00895E091DC00F0E08E179F0774F1C5
:10017000A091E500EFEFF3E0EA1BF109E817F907BA
:100180002CF16B30710510F545365105F8F4F90185
:100190007496B997D8F490939A00809399007093CD
:1001A00098006093970030939600209395005093A9
:1001B0009C0040939B0081E080939D0081ED97E03F
:1001C000909394008093930081E0089580E00895D7
:1001D00017B8369A82E08093BD0010926A000895A5
:1001E00082E087B9369A8093BE0010926A00089523
:1001F00087B3866087BB84B3817084BB84B384700B
:1002000084BB86B1876086B93E9A339A379A349810
:1002100080E008952091C80021110CC0EEE9F0E0C3
:100220008193919320E0EA3BF207D1F781E080933C
:10023000C80008958091BC00E82FF0E0EE0FFF1F8A
:10024000E256FF4F2091C1003091C20031832083DC
:100250008F5F8F3019F08093BC0008951092BC001E
:1002600008951F920F920FB60F9211248F9381E081
:1002700080937E00349A8F910F900FBE0F901F9045
:100280001895CF93DF938091930090919400813DD6
:1002900027E09207A0F12091C1003091C200409167
:1002A000E5008FEF93E0841B91098217930754F5C3
:1002B0008CE291E040919B0050919C00BA01660F46
:1002C000771F9A01220F331F220F331F220F331F74
:1002D000260F371F28513C4F281739070CF4C90146
:1002E00066EF64039001659F300D1124A901495107
:1002F0005C4F481759071CF0C90188519C4FDF918A
:10030000CF91BBC28091DC0090E0281739070CF434
:1003100067C040919700509198008091990090910A
:100320009A00B901640F751F681779070CF06FC048
:1003300060919D00613009F4C4C010928600109253
:1003400085001092900010928F0060918100709152
:1003500082007093800060937F00AC01421B530BBE
:100360009A01509382004093810050938C004093F7
:100370008B004091E30050E0E0918900F0918A0009
:100380004E9FC0014F9F900D5E9F900D11248131B3
:10039000A7E29A0744F1161617065CF5F901E61B69
:1003A000F70BF0938800E093870010929D00409136
:1003B000E200429FE001439FD00D112464E670E00B
:1003C000EBD9CE01860F971F4091E1004E9F90011F
:1003D0004F9F300D1124820F931F88519C4F6ACF7D
:1003E00084EA96E067CF803FA8ED9A0714F477FD82
:1003F000D5CFE60FF71FF0938A00E09389004E9F58
:10040000C0014F9F900D5E9F900D1124C7CFB90181
:10041000641B750B861797070CF08FCF60919D00BA
:10042000613009F08ACF60918500709186007093E9
:100430008400609383008091BF009091C000481BAE
:10044000590B50938600409385005093920040933F
:1004500091002091DF0030E0E0918F00F09190005A
:100460002E9FC0012F9F900D3E9F900D1124813132
:10047000A7E29A070CF485C0161617060CF087C081
:100480009A01261B370B30938E0020938D006091CC
:10049000DD00649FF001659FF00D11246AE070E0BB
:1004A0007BD96E0F7F1F4091DE00429FC001439FAA
:1004B000900D1124680F791F88EE93E0861B970B2F
:1004C000F9CE6091850070918600709384006093EE
:1004D00083008091BF009091C000481B590B50933E
:1004E00086004093850050939200409391002091A4
:1004F000DF0030E0E0918F00F09190002E9FD0015E
:100500002F9FB00D3E9FB00D1124A13187E2B80797
:1005100024F1161617063CF5FA01E61BF70BF093CB
:100520008E00E0938D008091DD00849F9001859F77
:10053000300D1124CD016AE070E02ED9C901860F7B
:10054000971F4091DE004E9F90014F9F300D112468
:10055000820F931F88519C4FADCEA03F88EDB80706
:1005600014F477FDD9CFE60FF71FF0939000E093D6
:100570008F002E9FD0012F9FB00D3E9FB00D1124F4
:10058000CBCF803FA8ED9A0714F477FD79CFE60F23
:10059000F71FF0939000E0938F002E9FC0012F9FD4
:1005A000900D3E9F900D11246BCF8091BE00823044
:1005B00041F08091BD008230A9F081E080936A0013
:1005C000089524B185B190E0982F8827820F911D5E
:1005D0009093C4008093C3001092BE0081E080938A
:1005E0006A00089524B185B190E0982F8827820F82
:1005F000911D9093C2008093C1000CDEE091BC007D
:10060000F0E0EE0FFF1FE256FF4F8091C100909186
:10061000C20020813181821B930B97FD0BC0909308
:10062000C0008093BF002DDE1092BD0081E080935A
:100630006A000895919581959109F1CF80917E008E
:10064000813079F18091C7008A30C1F08F5F80934B
:10065000C70080916A00813009F008958091BE0042
:10066000813069F18091BD008130B9F717B8369AB1
:1006700082E08093BD0010926A0008951092C70036
:1006800021E02093BD008091C5009091C600883E76
:1006900033E0930751F001969093C6008093C50014
:1006A000D8CF83DF10927E00CDCF1092C60010927B
:1006B000C5002093BE0080916A00813071F682E00F
:1006C00087B9369A8093BE0010926A0008958A3ADC
:1006D000910599F08130910591F08A30910519F0DA
:1006E00082D881E008956F3CD9F36232C9F360315A
:1006F000B9F36330A9F3623098F380E008952FEFE7
:10070000260F2E3FD0F76FD881E00895EF92FF9229
:100710000F931F93CF93DF934423E9F0EB014150F4
:10072000E42EF12C2FEFE21AF20AE60EF71E8C01EE
:1007300005C00F5F1F4FCE15DF0569F06991C80135
:10074000C6DF8130B1F380E0DF91CF911F910F912F
:10075000FF90EF90089581E0DF91CF911F910F916D
:10076000FF90EF900895EF92FF920F931F93CF9316
:10077000DF93442399F0EB014150042F10E00F5F09
:100780001F4F060F171F7C01E61AF70AC7018C0FCF
:100790009D1F21D88993C017D107C1F7DF91CF9151
:1007A0001F910F91FF90EF90089515C880E090E0A1
:1007B00012D88A3A61F161E081E090E014D862E0F9
:1007C00082E090E010D862E083E090E00CD868E22C
:1007D00084E090E008D861E085E090E004D86AE029
:1007E00086E090E000D868E287E090E0FCD76AE01D
:1007F00088E090E0F8D760E089E090E0F4D761E02D
:100800008AE090E0F0D76AEA80E090E0ECD781E0FF
:1008100090E0E1D78093E00082E090E0DCD7809325
:10082000E50083E090E0D7D78093DC0084E090E09F
:10083000D2D78093E20085E090E0CDD78093E300AB
:1008400086E090E0C8D78093E10087E090E0C3D7CE
:100850008093DD0088E090E0BED78093DF0089E0E0
:1008600090E0B9D78093DE0081E08093E4000895A2
:1008700060E080E090E0B7D799CF20916B00309195
:100880006C0082179307F1F028B3297F28BB2FB79C
:10089000F8941FBC893E33E09307B0F4883E33E000
:1008A000930751F048EE53E0481B590B59BD48BD22
:1008B0003FB530623FBDC29A78942FBF90936C00D1
:1008C00080936B0081E00895AC01485E53405BBDAE
:1008D0004ABD3FB530683FBDC19AEECF88B3897F2E
:1008E00088BB1DBC1CBC1FBC1EBC88EE93E097BD22
:1008F00086BD82E18EBD1BBC1ABC19BC18BC88EE3B
:1009000093E0BBCF80916D0090916E00009701F550
:100910001092D8001092D7001092D6001092D500F5
:100920001092D4001092D3001092D2001092CA00FC
:100930001092CB001092C90088EC90E090936E006A
:1009400080936D008CB18A3A09F40FC181E008955B
:10095000019790936E0080936D008CB1E091D80068
:100960004E2F50E04930510588F7FA01ED5EFF4FF8
:1009700009942091C9009091D40041E0490F40931F
:10098000D4005BEF259F90011124F901E90FF11DBF
:10099000EA51FF4F80839091D7009150981B90931C
:1009A000D7008091D5008F5F8093D5008091D200D1
:1009B00091E0980F9093D2009091D3008913C6CF05
:1009C0002A513F4F240F311DF90135978081803125
:1009D00069F4339640813196808190E0982F882782
:1009E000840F911D9093D0008093CF0088E0809376
:1009F000D800ACCF9091D200492F50E02091D30085
:100A000030E02F5F3F4F4217530709F4DEC021E06B
:100A1000290F3091D5003F5F9091D70091502093DE
:100A2000D200981B9093D7003093D50081E00895B1
:100A30009091D500E091C9005BEFE59FF001112492
:100A4000E90FF11DEA51FF4F80838093D3009F5F30
:100A50009093D5002091D7002150281B2093D700D8
:100A60008F5F8093D20086E08093D8009093D4006B
:100A700081E008952091D500E091C9004BEFE49FFB
:100A8000F0011124E20FF11DEA51FF4F8083909194
:100A9000D7009150981B9093D7002F5F2093D500DB
:100AA00085E08093D80081E008952091C90090915D
:100AB000D500422F50E03BEF239FF0011124E90FB6
:100AC000F11DEA51FF4F808331E0390F3093D5009B
:100AD0003091D600931709F463C09091D7009150DC
:100AE000981B9093D70032CFE091C9009091D50028
:100AF00021E0290F2093D5003BEFE39FF001112463
:100B0000E90FF11DEA51FF4F80839091D70091507A
:100B1000981B9093D700233009F018CF833809F43D
:100B20008FC02093D80012CF1092D500893CA0F03E
:100B30001092D8000BCF2091D5009091D6002917A4
:100B400009F467C09091D7009150981B9093D700FB
:100B50002F5F2093D500FACE8093D60080958093A6
:100B6000D70082E08093D800F1CE8091C900E82FB1
:100B7000F0E0E653FF4F90819F3F39F4E1E0E81B3E
:100B8000E093C900F0E0E653FF4F108281E08093CC
:100B9000D80088EC90E090936E0080936D00D6CEE4
:100BA0003091D700831308C0FA01E653FF4F9083BA
:100BB00081E0821B8093C9001092D8001092D70068
:100BC0001092D6001092D500C1CE3091D5009091F0
:100BD000D600391769F19091E000891314C0E091B3
:100BE000C9009091D40021E0290F2093D4002BEF6D
:100BF000E29FF0011124E90FF11DEA51FF4F8083BC
:100C000097E09093D8003F5F9091D700915021E0FA
:100C100006CF9091D7008917B9F01092D8001092A2
:100C2000D7001092D6001092D5001092D4008ECE2C
:100C30001092D8001092D6009FEF31E021E0EFCE65
:100C400084E08093D80082CE8091C9009091D40036
:100C5000282F30E04BEF849FF0011124EA51FF4F21
:100C6000E90FF11D359790819031B9F2F901E65302
:100C7000FF4F9091D3009A5F908391E0981B9093DF
:100C8000C900CBCF0F931F93CF93DF931F92CDB7A4
:100C9000DEB73091DB00311134C0F89431E020919F
:100CA000C900E32FE21BE093DA00F0E0E653FF4FC8
:100CB00020812223E9F04423D9F070E050E08B0139
:100CC000040F151FA22FB0E0A017B1078CF03093CE
:100CD000DB002093D9002FEF208378942091DA0055
:100CE0003BEF239F600D711D11246A517F4F16D277
:100CF00078948091D9000F90DF91CF911F910F913F
:100D0000089541110AC0213099F08091D9000F90C7
:100D1000DF91CF911F910F91089570E050E0DB01BA
:100D2000A40FB51FE091D900F0E0EA17FB078CF49F
:100D3000E091DA00F0E0E653FF4F10821092D90004
:100D40001092DB0080E00F90DF91CF911F910F9107
:100D500008953091DA00EBEF3E9F600D711D112474
:100D60006A517F4F2983DAD12981CDCF662301F1E2
:100D70002091CC00DC0180E0E091CE0091E09E0F5C
:100D80009093CE003D91F0E0E452FD4F3083983CCB
:100D900061F0283C38F42F5F2093CC008F5F8613DE
:100DA000EBCF01C08F5F90E008951092CE00F1CF9D
:100DB00080E090E00895EF92FF920F931F93CF93FE
:100DC000DF9300D0CDB7DEB77C01162F042F8AEA5F
:100DD0008A83198261E0CE010296C8DF82E0810F2A
:100DE0008A8340E061E0CE01029686D1898361E08A
:100DF000CE010296BBDF0A8340E061E0CE0102969D
:100E00007BD19981890F898361E0CE010296AEDFA3
:100E10008091E0008A8340E061E0CE0102966CD1CF
:100E20009981890F898361E0CE0102969FDF612F4E
:100E3000C7019CDF40E0612FC7015ED19981890F16
:100E4000898361E0CE01019691DF0F900F90DF91D1
:100E5000CF911F910F91FF90EF90089521B3206CD7
:100E600021BB22E02BB928E92AB92AB1287F2AB967
:100E700026E820BD20B5276020BD90BD89B95E9AC7
:100E80000895EF92FF920F931F93CF93DF93CDB707
:100E9000DEB72A970FB6F894DEBF0FBECDBF8C0128
:100EA00085E090E09A87898718861F821E821D82BE
:100EB0001C821B8280E197E29A83898310161106B7
:100EC0000CF050C089859A859C01215031093A87E0
:100ED0002987892B09F451C0EE24E394F12C27C013
:100EE0008F819885019769F12D813E8149815A81D1
:100EF000429FC001439F900D529F900D1124081BEB
:100F0000190B29813A81ADECBCEC59D496958795A3
:100F100096958795969587959A83898389859A85ED
:100F20009C01215031093A872987892B31F1698148
:100F30007A81C8011DD47E836D838D819E81892B2A
:100F400079F2F886EF828D819E81C0969E838D8393
:100F500061E0CE0105960ADF8D819E81C0979E8358
:100F60008D83C2CF01151105A9F480E390E09E8323
:100F70008D8361E0CE010596F9DE2A960FB6F894CE
:100F8000DEBF0FBECDBFDF91CF911F910F91FF90BC
:100F9000EF9008950E5F1F4F1C830B831AC061E012
:100FA000CE010596E3DE8D819E81C0979E838D8361
:100FB0008D819E8189819A8129813A81ADECBCEC39
:100FC000FED39695879596958795969587959A835E
:100FD000898389859A859C01215031093A8729871F
:100FE000892B59F28B819C8169817A81C1D37E835F
:100FF0006D838D819E81892B21F48F819885892B2A
:10100000B9F28F819885019698878F838D819E8113
:10101000C0969E838D838F819885019709F0BFCFFD
:1010200061E08FE690E0A2DEBACF5F9902C080E077
:10103000089568CC5D9B10C08091CC00811112C0D6
:101040005E9B32C086E400008150E9F71092D10027
:101050009798969A5E9A08958091CC00882381F3A0
:101060008FEF08958091D100811105C081E08093B8
:10107000D100979A9698E091CD00F0E0E452FD4FB0
:1010800080818CB98091CD008F5F8093CD0090914D
:10109000CC0091509093CC00883C11F081E00895F1
:1010A0001092CD0081E0089580E008951F920F9284
:1010B0000FB60F9211242F933F934F935F936F932B
:1010C0007F938F939F93AF93BF93EF93FF935F991A
:1010D00011C0FF91EF91BF91AF919F918F917F913F
:1010E0006F915F914F913F912F910F900FBE0F9095
:1010F0001F90189507DCEDCF662371F0FC0161505D
:10110000262F30E02F5F3F4F280F391F9191909588
:10111000490FE217F307D1F7842F089541155105C0
:1011200049F0DB01FC01480F591F8D918193E417B1
:10113000F507D9F70895CF93DF93CDB7DEB7E397DF
:101140000FB6F894DEBF0FBECDBF11BC8A9A929A3B
:101150002DDBC4DB4DD88091E40090E07FDE7894F5
:1011600088EE93E0F3D7E12CF12C412CD12C512CBB
:10117000B12CA12CC12C58E0352E64E0262E78EE3F
:10118000872E73E0972EE114F10409F47CC028EB5C
:10119000E2162BE0F20609F4E9C23FEFE31AF30A84
:1011A000D11078C06091CF007091D0008091740010
:1011B000909175006817790799F080E159D760918F
:1011C000D00081E155D78091760090917700BED70D
:1011D00080917600909177009093750080937400D1
:1011E0002DDA8091720090917300009709F464C029
:1011F0000197909373008093720046E0D42E1ADF1B
:1012000020E043E060E0CE0101963CDD082F880F2E
:10121000110B10161106BCF489818F3F09F44FC0E1
:101220009091E000891709F462C08A818A1509F457
:1012300074C041E0C41609F483C021E040E060E0DE
:1012400080E090E01FDD51E0C51631F182E0C81268
:101250009ACF91E0591297CF8091720090917300CC
:10126000892B09F090CF8091C1009091C2009983A1
:101270008A834B2D62E0CE0101969DDD512CE11455
:10128000F10409F084CF92983FEFE31AF30ADD20CE
:1012900009F488CFDA94B3CF8091720090917300F3
:1012A000892B09F070CFC9824B2D61E0CE010196E8
:1012B00082DD82E0C82E67CF36E0D32EA0CF8B81AF
:1012C000863009F440C0833009F46BC0833809F4D8
:1012D00040C1873009F446C0893009F45AC0BA8049
:1012E00039824B2D61E0CE01019665DDA6CFBA8033
:1012F0008B81833009F4BDC0823009F499C18130FB
:1013000051F0893069F7F894B3DA78948091E40069
:1013100090E0A4DD81E08983E4CF22E0C2128DCF8A
:1013200031E053128ACF8091C1009091C20099831D
:101330008A834B2D62E0CE0101963DDD512C7DCF9D
:101340004394A82E7ACFBA808091E00044E6849F2F
:10135000C00111249093730080937200A12CCC24BF
:10136000C3946BCF32E0C31268CFBA80AA20D9F2FF
:101370008091E40090E0880F991F489E9001499E5B
:10138000300D112430937300209372005524539430
:1013900054CFF8946DDA78948091E40090E05EDDAB
:1013A0004CCF20E041E063E0CE0102966BDC2B8263
:1013B0000430110509F4D4C164E0712C09C08231F4
:1013C00008F451C005301105E1F06B81015011099D
:1013D00081E0860F8B8320E041E0CE01019652DC54
:1013E0008A818B3060F7F89469818A8191E0980F47
:1013F0009A8390E06CD97894772473940530110522
:1014000021F780917C0090917D00209178003091AF
:1014100079008217930709F055C180917600909169
:101420007700209174003091750082179307A9F01E
:101430008DD680917600909177009093750080937F
:1014400074009093D0008093CF0010927900109296
:10145000780010927D0010927C00772009F4EDCE88
:10146000F894A4D998CF698191E0980F9A8300D617
:10147000A9CF380144E0641A710820E041E063E03C
:10148000CE010296FFDB8A81F301E80FF11D73970D
:101490000CF026CF2B82672809F464C164E0712C1C
:1014A00009C0823108F44FC005301105E1F06B81AD
:1014B0000150110981E0860F8B8320E041E0CE01CD
:1014C0000196E0DB8A818B3060F7F89469818A812C
:1014D00091E0980F9A8390E0FAD8789477247394E7
:1014E0000530110521F780917C0090917D002091BD
:1014F0007800309179008217930709F017C1809125
:101500007600909177002091740030917500281733
:101510003907A9F01BD680917600909177009093BF
:101520007500809374009093D0008093CF00109248
:1015300079001092780010927D0010927C0071105A
:10154000B2C02982CECE698191E0980F9A8390D55E
:10155000ABCF20E042E063E0CE01019693DB21E0D7
:101560004A8166E0CE0103968DDB4A81442361F116
:10157000CE0103963C0100E010E01BAA0CC08231B2
:10158000D8F00F5F1F4FFFEF6F1A7F0A842F90E094
:1015900008171907D0F489818B3088F7F894F30184
:1015A0006081898191E0980F998390E090D8789438
:1015B000F1E0FBAB4A81E5CFF301608191E0980F48
:1015C000998356D54A81DDCF1BAA80917C009091EA
:1015D0007D0020917800309179008217930709F0FF
:1015E0008BC08091760090917700209174003091AB
:1015F000750082179307A9F0A9D580917600909184
:10160000770090937500809374009093D00080933E
:10161000CF00109279001092780010927D00109205
:101620007C002BA9222309F408CEF894BFD8B3CEAE
:1016300020E042E063E0CE01039624DB8B812C8125
:10164000422F50E0BA01680F711D633171050CF033
:1016500047CE452B09F488C0AE014B5F5F4F3A017E
:1016600000E010E012C0823128F4800F4FD5F30162
:1016700080832C810F5F1F4FFFEF6F1A7F0A822F2D
:1016800090E008171907C4F48B818B3060F7F89449
:101690008B81F801E80FF11DCF0187D8F30180831A
:1016A00078942C81E7CFF89481D878948091E400E5
:1016B00090E0D4DB298215CE602F4B2DCE0105960C
:1016C0007ADBBBCD909379008093780060917A00AB
:1016D00070917B0020E030E044E650E043D59092EA
:1016E00075008092740090927700809276009092BC
:1016F000D0008092CF00B1CE909379008093780093
:1017000060917A0070917B0020E030E044E650E088
:1017100029D5909275008092740090927700809203
:1017200076009092D0008092CF007BCF909379008A
:101730008093780060917A0070917B0020E030E027
:1017400044E650E00FD5909275008092740090921C
:101750007700809276009092D0008092CF00EFCEFA
:10176000712C4FCE712CBFCE60E0A7CF929A15CDD1
:10177000AA1BBB1B51E107C0AA1FBB1FA617B707B7
:1017800010F0A61BB70B881F991F5A95A9F78095D3
:101790009095BC01CD01089597FB072E16F4009497
:1017A00006D077FD08D0E4DF07FC05D03EF4909525
:1017B00081959F4F0895709561957F4F0895A29FE1
:1017C000B001B39FC001A39F01D0B29F700D811DD6
:1017D0001124911D0895E199FECF9FBB8EBBE09A25
:1017E00099278DB30895262FE199FECF9FBB8EBB1D
:1017F0002DBB0FB6F894E29AE19A0FBE01960895B8
:04180000F894FFCF8A
:101804000208424303796F6C6F7301E803C8002D2B
:021814000000D2
:00000001FF
