:100000001BC035C034C033C032C031C030C02FC077
:100010002EC02DC02CC04AC82AC029C022C127C06A
:1000200026C025C024C08FC47FC55EC53EC522C57D
:10003000FFC4E0C49EC47FC511241FBECFE5D4E039
:10004000DEBFCDBF10E0A0E6B0E0E0E2F8E102C024
:1000500005900D92A037B107D9F723E0A0E7B0E0F3
:1000600001C01D92A33AB207E1F765D8D7CBC8CF3C
:1000700070E08D3009F445C078F48B30B1F18C30EC
:1000800009F5762F662780917A00680F711D7093AD
:100090007B0060937A0008958031A9F0813189F462
:1000A000762F662780917400680F711D709375001C
:1000B000609374006F5F7F4F709373006093720062
:1000C000089508950895809174009091750088278F
:1000D000680F791F70937500609374006F5F7F4F96
:1000E0007093730060937200089580917A009091EC
:1000F0007B008827680F791F70937B0060937A00DC
:100100000895709379006093780008958D30D9F048
:1001100040F08F3069F0A0F0803169F48091740074
:1001200008958B3051F08C3031F48091C0000895E7
:100130008091C200089580E008958091BF000895E5
:100140008091C10008958091BD000895813D27E010
:10015000920730F4909392008093910081E008958B
:1001600080E00895E091DA00F0E08E179F0774F1C7
:10017000A091E300EFEFF3E0EA1BF109E817F907BC
:100180002CF16B30710510F545365105F8F4F90185
:100190007496B997D8F490939800809397007093D1
:1001A00096006093950030939400209393005093B1
:1001B0009A004093990081E080939B0081ED97E045
:1001C000909392008093910081E0089580E00895DB
:1001D00017B8369A82E08093BB00109260000895B1
:1001E00082E087B9369A8093BC001092600008952F
:1001F00087B3866087BB84B3817084BB84B384700B
:1002000084BB86B1876086B93E9A339A379A349810
:1002100080E008952091C60021110CC0ECE9F0E0C7
:100220008193919320E0E83BF207D1F781E080933E
:10023000C60008958091BA00E82FF0E0EE0FFF1F8E
:10024000E456FF4F2091BF003091C00031832083DE
:100250008F5F8F3019F08093BA0008951092BA0022
:1002600008951F920F920FB60F9211248F9381E081
:1002700080937C00349A8F910F900FBE0F901F9047
:100280001895CF93DF938091910090919200813DDA
:1002900027E09207A0F12091BF003091C00040916B
:1002A000E3008FEF93E0841B91098217930754F5C5
:1002B0008CE291E04091990050919A00BA01660F4A
:1002C000771F9A01220F331F220F331F220F331F74
:1002D000260F371F28513C4F281739070CF4C90146
:1002E00066EF64039001659F300D1124A901495107
:1002F0005C4F481759071CF0C90188519C4FDF918A
:10030000CF91BBC28091DA0090E0281739070CF436
:1003100067C0409195005091960080919700909110
:100320009800B901640F751F681779070CF06FC04A
:1003300060919B00613009F4C4C010928400109257
:10034000830010928E0010928D0060917F0070915A
:10035000800070937E0060937D00AC01421B530BC4
:100360009A015093800040937F0050938A004093FD
:1003700089004091E10050E0E0918700F091880011
:100380004E9FC0014F9F900D5E9F900D11248131B3
:10039000A7E29A0744F1161617065CF5F901E61B69
:1003A000F70BF0938600E093850010929B0040913C
:1003B000E000429FE001439FD00D112464E670E00D
:1003C000F9D9CE01860F971F4091DF004E9F900113
:1003D0004F9F300D1124820F931F88519C4F6ACF7D
:1003E00084EA96E067CF803FA8ED9A0714F477FD82
:1003F000D5CFE60FF71FF0938800E09387004E9F5C
:10040000C0014F9F900D5E9F900D1124C7CFB90181
:10041000641B750B861797070CF08FCF60919B00BC
:10042000613009F08ACF60918300709184007093ED
:100430008200609381008091BD009091BE00481BB6
:10044000590B509384004093830050939000409345
:100450008F002091DD0030E0E0918D00F0918E0062
:100460002E9FC0012F9F900D3E9F900D1124813132
:10047000A7E29A070CF485C0161617060CF087C081
:100480009A01261B370B30938C0020938B006091D0
:10049000DB00649FF001659FF00D11246AE070E0BD
:1004A00089D96E0F7F1F4091DC00429FC001439F9E
:1004B000900D1124680F791F88EE93E0861B970B2F
:1004C000F9CE6091830070918400709382006093F4
:1004D00081008091BD009091BE00481B590B509344
:1004E0008400409383005093900040938F002091AC
:1004F000DD0030E0E0918D00F0918E002E9FD00164
:100500002F9FB00D3E9FB00D1124A13187E2B80797
:1005100024F1161617063CF5FA01E61BF70BF093CB
:100520008C00E0938B008091DB00849F9001859F7D
:10053000300D1124CD016AE070E03CD9C901860F6D
:10054000971F4091DC004E9F90014F9F300D11246A
:10055000820F931F88519C4FADCEA03F88EDB80706
:1005600014F477FDD9CFE60FF71FF0938E00E093D8
:100570008D002E9FD0012F9FB00D3E9FB00D1124F6
:10058000CBCF803FA8ED9A0714F477FD79CFE60F23
:10059000F71FF0938E00E0938D002E9FC0012F9FD8
:1005A000900D3E9F900D11246BCF8091BC00823046
:1005B00041F08091BB008230A9F081E0809360001F
:1005C000089524B185B190E0982F8827820F911D5E
:1005D0009093C2008093C1001092BC0081E0809390
:1005E0006000089524B185B190E0982F8827820F8C
:1005F000911D9093C0008093BF000CDEE091BA0083
:10060000F0E0EE0FFF1FE456FF4F8091BF00909186
:10061000C00020813181821B930B97FD0BC090930A
:10062000BE008093BD002DDE1092BB0081E0809360
:1006300060000895919581959109F1CF80917C009A
:10064000813079F18091C5008A30C1F08F5F80934D
:10065000C50080916000813009F008958091BC0050
:10066000813069F18091BB008130B9F717B8369AB3
:1006700082E08093BB001092600008951092C50044
:1006800021E02093BB008091C3009091C400883E7C
:1006900033E0930751F001969093C4008093C30018
:1006A000D8CF83DF10927C00CDCF1092C40010927F
:1006B000C3002093BC0080916000813071F682E01D
:1006C00087B9369A8093BC001092600008958A3AE8
:1006D000910599F08130910591F08A30910519F0DA
:1006E00090D881E008956F3CD9F36232C9F360314C
:1006F000B9F36330A9F3623098F380E008952FEFE7
:10070000260F2E3FD0F77DD881E00895EF92FF921B
:100710000F931F93CF93DF934423E9F0EB014150F4
:10072000E42EF12C2FEFE21AF20AE60EF71E8C01EE
:1007300005C00F5F1F4FCE15DF0569F06991C80135
:10074000C6DF8130B1F380E0DF91CF911F910F912F
:10075000FF90EF90089581E0DF91CF911F910F916D
:10076000FF90EF900895EF92FF920F931F93CF9316
:10077000DF93442399F0EB014150042F10E00F5F09
:100780001F4F060F171F7C01E61AF70AC7018C0FCF
:100790009D1F2FD88993C017D107C1F7DF91CF9143
:1007A0001F910F91FF90EF90089523C880E090E093
:1007B00020D88A3A61F161E081E090E022D862E0DD
:1007C00082E090E01ED862E083E090E01AD868E210
:1007D00084E090E016D861E085E090E012D86AE00D
:1007E00086E090E00ED868E287E090E00AD86AE000
:1007F00088E090E006D860E089E090E002D861E00F
:100800008AE090E0FED76AEA80E090E0FAD781E0E3
:1008100090E0EFD78093DE0082E090E0EAD780930B
:10082000E30083E090E0E5D78093DA0084E090E095
:10083000E0D78093E00085E090E0DBD78093E10093
:1008400086E090E0D6D78093DF0087E090E0D1D7B4
:100850008093DB0088E090E0CCD78093DD0089E0D6
:1008600090E0C7D78093DC0081E08093E200089598
:1008700060E080E090E0C5D799CF20916100309191
:10088000620082179307F1F028B3297F28BB2FB7A6
:10089000F8941FBC893E33E09307B0F4883E33E000
:1008A000930751F048EE53E0481B590B59BD48BD22
:1008B0003FB530623FBDC29A78942FBF90936200DB
:1008C0008093610081E00895AC01485E53405BBDB8
:1008D0004ABD3FB530683FBDC19AEECF88B3897F2E
:1008E00088BB1DBC1CBC1FBC1EBC88EE93E097BD22
:1008F00086BD82E18EBD1BBC1ABC19BC18BC88EE3B
:1009000093E0BBCF8091630090916400009701F564
:100910001092D6001092D5001092D4001092D300FD
:100920001092D2001092D1001092D0001092C80004
:100930001092C9001092C70088EC90E09093640078
:10094000809363008CB18A3A09F40FC181E0089565
:10095000019790936400809363008CB1E091D6007E
:100960004E2F50E04930510588F7FA01ED5EFF4FF8
:1009700009942091C7009091D20041E0490F409323
:10098000D2005BEF259F90011124F901E90FF11DC1
:10099000EC51FF4F80839091D5009150981B90931C
:1009A000D5008091D3008F5F8093D3008091D000D9
:1009B00091E0980F9093D0009091D1008913C6CF09
:1009C0002C513F4F240F311DF90135978081803123
:1009D00069F4339640813196808190E0982F882782
:1009E000840F911D9093CE008093CD0088E080937A
:1009F000D600ACCF9091D000492F50E02091D1008B
:100A000030E02F5F3F4F4217530709F4DEC021E06B
:100A1000290F3091D3003F5F9091D50091502093E2
:100A2000D000981B9093D5003093D30081E00895B7
:100A30009091D300E091C7005BEFE59FF001112496
:100A4000E90FF11DEC51FF4F80838093D1009F5F30
:100A50009093D3002091D5002150281B2093D500DE
:100A60008F5F8093D00086E08093D6009093D20071
:100A700081E008952091D300E091C7004BEFE49FFF
:100A8000F0011124E20FF11DEC51FF4F8083909192
:100A9000D5009150981B9093D5002F5F2093D300E1
:100AA00085E08093D60081E008952091C700909161
:100AB000D300422F50E03BEF239FF0011124E90FB8
:100AC000F11DEC51FF4F808331E0390F3093D3009B
:100AD0003091D400931709F463C09091D5009150E0
:100AE000981B9093D50032CFE091C7009091D3002E
:100AF00021E0290F2093D3003BEFE39FF001112465
:100B0000E90FF11DEC51FF4F80839091D50091507A
:100B1000981B9093D500233009F018CF833809F43F
:100B20008FC02093D60012CF1092D300893CA0F042
:100B30001092D6000BCF2091D3009091D4002917AA
:100B400009F467C09091D5009150981B9093D500FF
:100B50002F5F2093D300FACE8093D40080958093AA
:100B6000D50082E08093D600F1CE8091C700E82FB7
:100B7000F0E0E853FF4F90819F3F39F4E1E0E81B3C
:100B8000E093C700F0E0E853FF4F108281E08093CC
:100B9000D60088EC90E09093640080936300D6CEFA
:100BA0003091D500831308C0FA01E853FF4F9083BA
:100BB00081E0821B8093C7001092D6001092D5006E
:100BC0001092D4001092D300C1CE3091D3009091F6
:100BD000D400391769F19091DE00891314C0E091B7
:100BE000C7009091D20021E0290F2093D2002BEF73
:100BF000E29FF0011124E90FF11DEC51FF4F8083BA
:100C000097E09093D6003F5F9091D500915021E0FE
:100C100006CF9091D5008917B9F01092D6001092A6
:100C2000D5001092D4001092D3001092D2008ECE34
:100C30001092D6001092D4009FEF31E021E0EFCE69
:100C400084E08093D60082CE8091C7009091D2003C
:100C5000282F30E04BEF849FF0011124EC51FF4F1F
:100C6000E90FF11D359790819031B9F2F901E85300
:100C7000FF4F9091D1009A5F908391E0981B9093E1
:100C8000C700CBCF0F931F93CF93DF931F92CDB7A6
:100C9000DEB73091D900311134C0F89431E02091A1
:100CA000C700E32FE21BE093D800F0E0E853FF4FCA
:100CB00020812223E9F04423D9F070E050E08B0139
:100CC000040F151FA22FB0E0A017B1078CF03093CE
:100CD000D9002093D7002FEF208378942091D8005B
:100CE0003BEF239F600D711D11246C517F4F16D275
:100CF00078948091D7000F90DF91CF911F910F9141
:100D0000089541110AC0213099F08091D7000F90C9
:100D1000DF91CF911F910F91089570E050E0DB01BA
:100D2000A40FB51FE091D700F0E0EA17FB078CF4A1
:100D3000E091D800F0E0E853FF4F10821092D70006
:100D40001092D90080E00F90DF91CF911F910F9109
:100D500008953091D800EBEF3E9F600D711D112476
:100D60006C517F4F2983DAD12981CDCF662301F1E0
:100D70002091CA00DC0180E0E091CC0091E09E0F60
:100D80009093CC003D91F0E0E652FD4F3083983CCB
:100D900061F0283C38F42F5F2093CA008F5F8613E0
:100DA000EBCF01C08F5F90E008951092CC00F1CF9F
:100DB00080E090E00895EF92FF920F931F93CF93FE
:100DC000DF9300D0CDB7DEB77C01162F042F8AEA5F
:100DD0008A83198261E0CE010296C8DF82E0810F2A
:100DE0008A8340E061E0CE01029686D1898361E08A
:100DF000CE010296BBDF0A8340E061E0CE0102969D
:100E00007BD19981890F898361E0CE010296AEDFA3
:100E10008091DE008A8340E061E0CE0102966CD1D1
:100E20009981890F898361E0CE0102969FDF612F4E
:100E3000C7019CDF40E0612FC7015ED19981890F16
:100E4000898361E0CE01019691DF0F900F90DF91D1
:100E5000CF911F910F91FF90EF90089521B3206CD7
:100E600021BB22E02BB928E92AB92AB1287F2AB967
:100E700026E820BD20B5276020BD90BD89B95E9AC7
:100E80000895EF92FF920F931F93CF93DF93CDB707
:100E9000DEB72A970FB6F894DEBF0FBECDBF8C0128
:100EA00085E090E09A87898718861F821E821D82BE
:100EB0001C821B8280E197E29A83898310161106B7
:100EC0000CF050C089859A859C01215031093A87E0
:100ED0002987892B09F451C0EE24E394F12C27C013
:100EE0008F819885019769F12D813E8149815A81D1
:100EF000429FC001439F900D529F900D1124081BEB
:100F0000190B29813A81ADECBCEC67D49695879595
:100F100096958795969587959A83898389859A85ED
:100F20009C01215031093A872987892B31F1698148
:100F30007A81C8012BD47E836D838D819E81892B1C
:100F400079F2F886EF828D819E81C0969E838D8393
:100F500061E0CE0105960ADF8D819E81C0979E8358
:100F60008D83C2CF01151105A9F480E390E09E8323
:100F70008D8361E0CE010596F9DE2A960FB6F894CE
:100F8000DEBF0FBECDBFDF91CF911F910F91FF90BC
:100F9000EF9008950E5F1F4F1C830B831AC061E012
:100FA000CE010596E3DE8D819E81C0979E838D8361
:100FB0008D819E8189819A8129813A81ADECBCEC39
:100FC0000CD49695879596958795969587959A834F
:100FD000898389859A859C01215031093A8729871F
:100FE000892B59F28B819C8169817A81CFD37E8351
:100FF0006D838D819E81892B21F48F819885892B2A
:10100000B9F28F819885019698878F838D819E8113
:10101000C0969E838D838F819885019709F0BFCFFD
:1010200061E08DE690E0A2DEBACF5F9902C080E079
:10103000089568CC5D9B10C08091CA00811112C0D8
:101040005E9B32C086E400008150E9F71092CF0029
:101050009798969A5E9A08958091CA00882381F3A2
:101060008FEF08958091CF00811105C081E08093BA
:10107000CF00979A9698E091CB00F0E0E652FD4FB2
:1010800080818CB98091CB008F5F8093CB00909151
:10109000CA0091509093CA00883C11F081E00895F5
:1010A0001092CB0081E0089580E008951F920F9286
:1010B0000FB60F9211242F933F934F935F936F932B
:1010C0007F938F939F93AF93BF93EF93FF935F991A
:1010D00011C0FF91EF91BF91AF919F918F917F913F
:1010E0006F915F914F913F912F910F900FBE0F9095
:1010F0001F90189507DCEDCF662371F0FC0161505D
:10110000262F30E02F5F3F4F280F391F9191909588
:10111000490FE217F307D1F7842F089541155105C0
:1011200049F0DB01FC01480F591F8D918193E417B1
:10113000F507D9F70895CF93DF93CDB7DEB7EB97D7
:101140000FB6F894DEBF0FBECDBF11BC8A9A929A3B
:101150002DDBC4DB4DD88091E20090E07FDE7894F7
:1011600088E0E5E6F0E0DE01D39601900D928A95E5
:10117000E1F788EE93E0EAD7E12CF12C412CD12C59
:10118000512CB12CA12CC12C58E0352E64E0262E18
:1011900078EE872E73E0972EE114F10409F47CC0F9
:1011A00028EBE2162BE0F20609F4EEC23FEFE31A59
:1011B000F30AD1107DC06091CD007091CE00809176
:1011C0007200909173006817790799F080E150D709
:1011D0006091CE0081E14CD78091740090917500B0
:1011E000B5D78091740090917500909373008093AF
:1011F000720024DA8091700090917100009709F4D8
:1012000069C00197909371008093700046E0D42EDE
:1012100011DF20E043E060E0CE01019633DD082FCE
:10122000880F110B10161106BCF489818F3F09F449
:1012300054C09091DE00891709F467C08A818A152D
:1012400009F479C041E0C41609F488C021E040E007
:1012500060E080E090E016DD51E0C51659F182E0D3
:10126000C8129ACF91E0591297CF80917000909157
:101270007100892B09F090CF8091BF009091C00040
:1012800099838A834B2D62E0CE01019694DD512C27
:10129000E114F10409F084CF92984EEF61E0CE01A1
:1012A000C39689DD3FEFE31AF30ADD2009F483CF0B
:1012B000DA94AECF8091700090917100892B09F083
:1012C0006BCFC9824B2D61E0CE01019674DD82E0C7
:1012D000C82E62CF36E0D32E9BCF8B81863009F4A7
:1012E00040C0833009F46BC0833809F440C18730B3
:1012F00009F446C0893009F45AC0BA8039824B2DAE
:1013000061E0CE01019657DDA1CFBA808B81833099
:1013100009F4BDC0823009F499C1813051F089309F
:1013200069F7F894A5DA78948091E20090E096DD70
:1013300081E08983E4CF22E0C21288CF31E05312EA
:1013400085CF8091BF009091C00099838A834B2DF7
:1013500062E0CE0101962FDD512C78CF4394A82E68
:1013600075CFBA808091DE0044E6849FC0011124CD
:101370009093710080937000A12CCC24C39466CF0D
:1013800032E0C31263CFBA80AA20D9F28091E20082
:1013900090E0880F991F489E9001499E300D1124BE
:1013A0003093710020937000552453944FCFF894DC
:1013B0005FDA78948091E20090E050DD47CF20E042
:1013C00041E063E0CE0102965DDC2B820430110522
:1013D00009F4D4C164E0712C09C0823108F451C011
:1013E00005301105E1F06B810150110981E0860F94
:1013F0008B8320E041E0CE01019644DC8A818B3072
:1014000060F7F89469818A8191E0980F9A8390E05F
:101410005ED97894772473940530110521F7809173
:101420007A0090917B0020917600309177008217AE
:10143000930709F055C18091740090917500209137
:1014400072003091730082179307A9F07FD68091C4
:101450007400909175009093730080937200909344
:10146000CE008093CD0010927700109276001092FB
:101470007B0010927A00772009F4E8CEF89496D990
:1014800098CF698191E0980F9A83F2D5A9CF38015E
:1014900044E0641A710820E041E063E0CE01029666
:1014A000F1DB8A81F301E80FF11D73970CF026CF71
:1014B0002B82672809F464C164E0712C09C0823171
:1014C00008F44FC005301105E1F06B81015011099E
:1014D00081E0860F8B8320E041E0CE010196D2DBD4
:1014E0008A818B3060F7F89469818A8191E0980F46
:1014F0009A8390E0ECD878947724739405301105A2
:1015000021F780917A0090917B00209176003091B4
:1015100077008217930709F017C1809174009091AA
:101520007500209172003091730028173907A9F0D7
:101530000DD6809174009091750090937300809304
:1015400072009093CE008093CD001092770010929D
:10155000760010927B0010927A007110B2C029823E
:10156000CECE698191E0980F9A8382D5ABCF20E0EF
:1015700042E063E0CE01019685DB21E04A8166E02E
:10158000CE0103967FDB4A81442361F1CE010396AD
:101590003C0100E010E01BAE0CC08231D8F00F5FC0
:1015A0001F4FFFEF6F1A7F0A842F90E0081719076B
:1015B000D0F489818B3088F7F894F30160818981B8
:1015C00091E0980F998390E082D87894F1E0FBAF96
:1015D0004A81E5CFF301608191E0980F998348D566
:1015E0004A81DDCF1BAE80917A0090917B002091E3
:1015F0007600309177008217930709F08BC08091B5
:1016000074009091750020917200309173008217E0
:101610009307A9F09BD580917400909175009093E9
:101620007300809372009093CE008093CD0010924F
:1016300077001092760010927B0010927A002BAD0A
:10164000222309F403CEF894B1D8B3CE20E042E0CF
:1016500063E0CE01039616DB8B812C81422F50E094
:10166000BA01680F711D633171050CF047CE452B2F
:1016700009F488C0AE014B5F5F4F3A0100E010E013
:1016800012C0823128F4800F41D5F30180832C8170
:101690000F5F1F4FFFEF6F1A7F0A822F90E008172E
:1016A0001907C4F48B818B3060F7F8948B81F801B3
:1016B000E80FF11DCF0179D8F301808378942C8154
:1016C000E7CFF89473D878948091E20090E0C6DB7D
:1016D000298215CE602F4B2DCE0105966CDBB6CD41
:1016E00090937700809376006091780070917900F4
:1016F00020E030E044E650E035D5909273008092CF
:10170000720090927500809274009092CE00809248
:10171000CD00B1CE909377008093760060917800F1
:101720007091790020E030E044E650E01BD59092C3
:101730007300809272009092750080927400909273
:10174000CE008092CD007BCF90937700809376007F
:10175000609178007091790020E030E044E650E03C
:1017600001D59092730080927200909275008092E1
:1017700074009092CE008092CD00EFCE712C4FCEAF
:10178000712CBFCE60E0A7CF929A10CDAA1BBB1BD5
:1017900051E107C0AA1FBB1FA617B70710F0A61B71
:1017A000B70B881F991F5A95A9F780959095BC0192
:1017B000CD01089597FB072E16F4009406D077FD0F
:1017C00008D0E4DF07FC05D03EF4909581959F4F4B
:1017D0000895709561957F4F0895A29FB001B39FC2
:1017E000C001A39F01D0B29F700D811D1124911DD6
:1017F0000895E199FECF9FBB8EBBE09A99278DB3E8
:101800000895262FE199FECF9FBB8EBB2DBB0FB64F
:10181000F894E29AE19A0FBE01960895F894FFCFEA
:1018200001E803C800BB53616C757400002D000013
:00000001FF
