:100000001BC035C034C033C032C031C030C02FC077
:100010002EC02DC02CC04AC82AC029C022C127C06A
:1000200026C025C024C08FC47FC55EC53EC522C57D
:10003000FFC4E0C49EC47FC511241FBECFE5D4E039
:10004000DEBFCDBF10E0A0E6B0E0E0E3F8E102C023
:1000500005900D92AC37B107D9F723E0ACE7B0E0DB
:1000600001C01D92AF3AB207E1F765D8DFCBC8CF28
:1000700070E08D3009F445C078F48B30B1F18C30EC
:1000800009F5762F662780918600680F711D7093A1
:1000900087006093860008958031A9F0813189F44A
:1000A000762F662780918000680F711D7093810004
:1000B000609380006F5F7F4F70937F0060937E003E
:1000C0000895089508958091800090918100882777
:1000D000680F791F70938100609380006F5F7F4F7E
:1000E00070937F0060937E000895809186009091C8
:1000F00087008827680F791F7093870060938600B8
:100100000895709385006093840008958D30D9F030
:1001100040F08F3069F0A0F0803169F48091800068
:1001200008958B3051F08C3031F48091CC000895DB
:100130008091CE00089580E008958091CB000895CD
:100140008091CD0008958091C9000895813D27E0F8
:10015000920730F490939E0080939D0081E0089573
:1001600080E00895E091E600F0E08E179F0774F1BB
:10017000A091EF00EFEFF3E0EA1BF109E817F907B0
:100180002CF16B30710510F545365105F8F4F90185
:100190007496B997D8F49093A4008093A3007093B9
:1001A000A2006093A1003093A00020939F00509381
:1001B000A6004093A50081E08093A70081ED97E021
:1001C00090939E0080939D0081E0089580E00895C3
:1001D00017B8369A82E08093C70010926A0008959B
:1001E00082E087B9369A8093C80010926A00089519
:1001F00087B3866087BB84B3817084BB84B384700B
:1002000084BB86B1876086B93E9A339A379A349810
:1002100080E008952091D20021110CC0E8EAF0E0BE
:100220008193919320E0E43CF207D1F781E0809341
:10023000D20008958091C600E82FF0E0EE0FFF1F76
:10024000E855FF4F2091CB003091CC0031832083C3
:100250008F5F8F3019F08093C60008951092C6000A
:1002600008951F920F920FB60F9211248F9381E081
:1002700080938800349A8F910F900FBE0F901F903B
:100280001895CF93DF9380919D0090919E00813DC2
:1002900027E09207A0F12091CB003091CC00409153
:1002A000EF008FEF93E0841B91098217930754F5B9
:1002B0008CE291E04091A5005091A600BA01660F32
:1002C000771F9A01220F331F220F331F220F331F74
:1002D000260F371F28513C4F281739070CF4C90146
:1002E00066EF64039001659F300D1124A901495107
:1002F0005C4F481759071CF0C90188519C4FDF918A
:10030000CF91BBC28091E60090E0281739070CF42A
:1003100067C04091A1005091A2008091A3009091EC
:10032000A400B901640F751F681779070CF06FC03E
:100330006091A700613009F4C4C01092900010923F
:100340008F0010929A001092990060918B0070912A
:100350008C0070938A0060938900AC01421B530BA0
:100360009A0150938C0040938B00509396004093D9
:1003700095004091ED0050E0E0919300F0919400E1
:100380004E9FC0014F9F900D5E9F900D11248131B3
:10039000A7E29A0744F1161617065CF5F901E61B69
:1003A000F70BF0939200E09391001092A700409118
:1003B000EC00429FE001439FD00D112464E670E001
:1003C00001DACE01860F971F4091EB004E9F9001FE
:1003D0004F9F300D1124820F931F88519C4F6ACF7D
:1003E00084EA96E067CF803FA8ED9A0714F477FD82
:1003F000D5CFE60FF71FF0939400E09393004E9F44
:10040000C0014F9F900D5E9F900D1124C7CFB90181
:10041000641B750B861797070CF08FCF6091A700B0
:10042000613009F08ACF60918F00709190007093D5
:100430008E0060938D008091C9009091CA00481B86
:10044000590B5093900040938F0050939C00409321
:100450009B002091E90030E0E0919900F0919A0032
:100460002E9FC0012F9F900D3E9F900D1124813132
:10047000A7E29A070CF485C0161617060CF087C081
:100480009A01261B370B30939800209397006091B8
:10049000E700649FF001659FF00D11246AE070E0B1
:1004A00091D96E0F7F1F4091E800429FC001439F8A
:1004B000900D1124680F791F88EE93E0861B970B2F
:1004C000F9CE60918F007091900070938E006093D0
:1004D0008D008091C9009091CA00481B590B509320
:1004E000900040938F0050939C0040939B0020917C
:1004F000E90030E0E0919900F0919A002E9FD00140
:100500002F9FB00D3E9FB00D1124A13187E2B80797
:1005100024F1161617063CF5FA01E61BF70BF093CB
:100520009800E09397008091E700849F9001859F59
:10053000300D1124CD016AE070E044D9C901860F65
:10054000971F4091E8004E9F90014F9F300D11245E
:10055000820F931F88519C4FADCEA03F88EDB80706
:1005600014F477FDD9CFE60FF71FF0939A00E093CC
:1005700099002E9FD0012F9FB00D3E9FB00D1124EA
:10058000CBCF803FA8ED9A0714F477FD79CFE60F23
:10059000F71FF0939A00E09399002E9FC0012F9FC0
:1005A000900D3E9F900D11246BCF8091C80082303A
:1005B00041F08091C7008230A9F081E080936A0009
:1005C000089524B185B190E0982F8827820F911D5E
:1005D0009093CE008093CD001092C80081E080936C
:1005E0006A00089524B185B190E0982F8827820F82
:1005F000911D9093CC008093CB000CDEE091C6005F
:10060000F0E0EE0FFF1FE855FF4F8091CB00909177
:10061000CC0020813181821B930B97FD0BC09093FE
:10062000CA008093C9002DDE1092C70081E080933C
:100630006A000895919581959109F1CF8091880084
:10064000813079F18091D1008A30C1F08F5F809341
:10065000D10080916A00813009F008958091C8002E
:10066000813069F18091C7008130B9F717B8369AA7
:1006700082E08093C70010926A0008951092D10022
:1006800021E02093C7008091CF009091D000883E58
:1006900033E0930751F001969093D0008093CF0000
:1006A000D8CF83DF10928800CDCF1092D000109267
:1006B000CF002093C80080916A00813071F682E0FB
:1006C00087B9369A8093C80010926A0008958A3AD2
:1006D000910599F08130910591F08A30910519F0DA
:1006E00098D881E008956F3CD9F36232C9F3603144
:1006F000B9F36330A9F3623098F380E008952FEFE7
:10070000260F2E3FD0F785D881E00895EF92FF9213
:100710000F931F93CF93DF934423E9F0EB014150F4
:10072000E42EF12C2FEFE21AF20AE60EF71E8C01EE
:1007300005C00F5F1F4FCE15DF0569F06991C80135
:10074000C6DF8130B1F380E0DF91CF911F910F912F
:10075000FF90EF90089581E0DF91CF911F910F916D
:10076000FF90EF900895EF92FF920F931F93CF9316
:10077000DF93442399F0EB014150042F10E00F5F09
:100780001F4F060F171F7C01E61AF70AC7018C0FCF
:100790009D1F37D88993C017D107C1F7DF91CF913B
:1007A0001F910F91FF90EF9008952BC880E090E08B
:1007B00028D88A3A61F161E081E090E02AD862E0CD
:1007C00082E090E026D862E083E090E022D868E200
:1007D00084E090E01ED861E085E090E01AD86AE0FD
:1007E00086E090E016D868E287E090E012D86AE0F0
:1007F00088E090E00ED860E089E090E00AD861E0FF
:100800008AE090E006D86AEA80E090E002D881E0D1
:1008100090E0F7D78093EA0082E090E0F2D78093EF
:10082000EF0083E090E0EDD78093E60084E090E075
:10083000E8D78093EC0085E090E0E3D78093ED006B
:1008400086E090E0DED78093EB0087E090E0D9D798
:100850008093E70088E090E0D4D78093E90089E0B6
:1008600090E0CFD78093E80081E08093EE00089578
:1008700060E080E090E0CDD799CF20916B0030917F
:100880006C0082179307F1F028B3297F28BB2FB79C
:10089000F8941FBC893E33E09307B0F4883E33E000
:1008A000930751F048EE53E0481B590B59BD48BD22
:1008B0003FB530623FBDC29A78942FBF90936C00D1
:1008C00080936B0081E00895AC01485E53405BBDAE
:1008D0004ABD3FB530683FBDC19AEECF88B3897F2E
:1008E00088BB1DBC1CBC1FBC1EBC88EE93E097BD22
:1008F00086BD82E18EBD1BBC1ABC19BC18BC88EE3B
:1009000093E0BBCF80916D0090916E00009701F550
:100910001092E2001092E1001092E0001092DF00CD
:100920001092DE001092DD001092DC001092D400D4
:100930001092D5001092D30088EC90E090936E0056
:1009400080936D008CB18A3A09F40FC181E008955B
:10095000019790936E0080936D008CB1E091E2005E
:100960004E2F50E04930510588F7FA01ED5EFF4FF8
:1009700009942091D3009091DE0041E0490F40930B
:10098000DE005BEF259F90011124F901E90FF11DB5
:10099000E051FF4F80839091E1009150981B90931C
:1009A000E1008091DF008F5F8093DF008091DC00A9
:1009B00091E0980F9093DC009091DD008913C6CFF1
:1009C00020513F4F240F311DF9013597808180312F
:1009D00069F4339640813196808190E0982F882782
:1009E000840F911D9093DA008093D90088E0809362
:1009F000E200ACCF9091DC00492F50E02091DD0067
:100A000030E02F5F3F4F4217530709F4DEC021E06B
:100A1000290F3091DF003F5F9091E10091502093CA
:100A2000DC00981B9093E1003093DF0081E0089593
:100A30009091DF00E091D3005BEFE59FF00111247E
:100A4000E90FF11DE051FF4F80838093DD009F5F30
:100A50009093DF002091E1002150281B2093E100BA
:100A60008F5F8093DC0086E08093E2009093DE004D
:100A700081E008952091DF00E091D3004BEFE49FE7
:100A8000F0011124E20FF11DE051FF4F808390919E
:100A9000E1009150981B9093E1002F5F2093DF00BD
:100AA00085E08093E20081E008952091D300909149
:100AB000DF00422F50E03BEF239FF0011124E90FAC
:100AC000F11DE051FF4F808331E0390F3093DF009B
:100AD0003091E000931709F463C09091E1009150C8
:100AE000981B9093E10032CFE091D3009091DF000A
:100AF00021E0290F2093DF003BEFE39FF001112459
:100B0000E90FF11DE051FF4F80839091E10091507A
:100B1000981B9093E100233009F018CF833809F433
:100B20008FC02093E20012CF1092DF00893CA0F02A
:100B30001092E2000BCF2091DF009091E000291786
:100B400009F467C09091E1009150981B9093E100E7
:100B50002F5F2093DF00FACE8093E0008095809392
:100B6000E10082E08093E200F1CE8091D300E82F93
:100B7000F0E0EC52FF4F90819F3F39F4E1E0E81B39
:100B8000E093D300F0E0EC52FF4F108281E08093BD
:100B9000E20088EC90E090936E0080936D00D6CEDA
:100BA0003091E100831308C0FA01EC52FF4F9083AB
:100BB00081E0821B8093D3001092E2001092E1004A
:100BC0001092E0001092DF00C1CE3091DF009091D2
:100BD000E000391769F19091EA00891314C0E0919F
:100BE000D3009091DE0021E0290F2093DE002BEF4F
:100BF000E29FF0011124E90FF11DE051FF4F8083C6
:100C000097E09093E2003F5F9091E100915021E0E6
:100C100006CF9091E1008917B9F01092E20010928E
:100C2000E1001092E0001092DF001092DE008ECE04
:100C30001092E2001092E0009FEF31E021E0EFCE51
:100C400084E08093E20082CE8091D3009091DE0018
:100C5000282F30E04BEF849FF0011124E051FF4F2B
:100C6000E90FF11D359790819031B9F2F901EC52FD
:100C7000FF4F9091DD009A5F908391E0981B9093D5
:100C8000D300CBCF0F931F93CF93DF931F92CDB79A
:100C9000DEB73091E500311134C0F89431E0209195
:100CA000D300E32FE21BE093E400F0E0EC52FF4FAF
:100CB00020812223E9F04423D9F070E050E08B0139
:100CC000040F151FA22FB0E0A017B1078CF03093CE
:100CD000E5002093E3002FEF208378942091E40037
:100CE0003BEF239F600D711D112460517F4F16D281
:100CF00078948091E3000F90DF91CF911F910F9135
:100D0000089541110AC0213099F08091E3000F90BD
:100D1000DF91CF911F910F91089570E050E0DB01BA
:100D2000A40FB51FE091E300F0E0EA17FB078CF495
:100D3000E091E400F0E0EC52FF4F10821092E300EB
:100D40001092E50080E00F90DF91CF911F910F91FD
:100D500008953091E400EBEF3E9F600D711D11246A
:100D600060517F4F2983DAD12981CDCF662301F1EC
:100D70002091D600DC0180E0E091D80091E09E0F48
:100D80009093D8003D91F0E0EA51FD4F3083983CBC
:100D900061F0283C38F42F5F2093D6008F5F8613D4
:100DA000EBCF01C08F5F90E008951092D800F1CF93
:100DB00080E090E00895EF92FF920F931F93CF93FE
:100DC000DF9300D0CDB7DEB77C01162F042F8AEA5F
:100DD0008A83198261E0CE010296C8DF82E0810F2A
:100DE0008A8340E061E0CE01029686D1898361E08A
:100DF000CE010296BBDF0A8340E061E0CE0102969D
:100E00007BD19981890F898361E0CE010296AEDFA3
:100E10008091EA008A8340E061E0CE0102966CD1C5
:100E20009981890F898361E0CE0102969FDF612F4E
:100E3000C7019CDF40E0612FC7015ED19981890F16
:100E4000898361E0CE01019691DF0F900F90DF91D1
:100E5000CF911F910F91FF90EF90089521B3206CD7
:100E600021BB22E02BB928E92AB92AB1287F2AB967
:100E700026E820BD20B5276020BD90BD89B95E9AC7
:100E80000895EF92FF920F931F93CF93DF93CDB707
:100E9000DEB72A970FB6F894DEBF0FBECDBF8C0128
:100EA00085E090E09A87898718861F821E821D82BE
:100EB0001C821B8280E197E29A83898310161106B7
:100EC0000CF050C089859A859C01215031093A87E0
:100ED0002987892B09F451C0EE24E394F12C27C013
:100EE0008F819885019769F12D813E8149815A81D1
:100EF000429FC001439F900D529F900D1124081BEB
:100F0000190B29813A81ADECBCEC6FD4969587958D
:100F100096958795969587959A83898389859A85ED
:100F20009C01215031093A872987892B31F1698148
:100F30007A81C80133D47E836D838D819E81892B14
:100F400079F2F886EF828D819E81C0969E838D8393
:100F500061E0CE0105960ADF8D819E81C0979E8358
:100F60008D83C2CF01151105A9F480E390E09E8323
:100F70008D8361E0CE010596F9DE2A960FB6F894CE
:100F8000DEBF0FBECDBFDF91CF911F910F91FF90BC
:100F9000EF9008950E5F1F4F1C830B831AC061E012
:100FA000CE010596E3DE8D819E81C0979E838D8361
:100FB0008D819E8189819A8129813A81ADECBCEC39
:100FC00014D49695879596958795969587959A8347
:100FD000898389859A859C01215031093A8729871F
:100FE000892B59F28B819C8169817A81D7D37E8349
:100FF0006D838D819E81892B21F48F819885892B2A
:10100000B9F28F819885019698878F838D819E8113
:10101000C0969E838D838F819885019709F0BFCFFD
:1010200061E08AE790E0A2DEBACF5F9902C080E07B
:10103000089568CC5D9B10C08091D600811112C0CC
:101040005E9B32C086E400008150E9F71092DB001D
:101050009798969A5E9A08958091D600882381F396
:101060008FEF08958091DB00811105C081E08093AE
:10107000DB00979A9698E091D700F0E0EA51FD4F97
:1010800080818CB98091D7008F5F8093D700909139
:10109000D60091509093D600883C11F081E00895DD
:1010A0001092D70081E0089580E008951F920F927A
:1010B0000FB60F9211242F933F934F935F936F932B
:1010C0007F938F939F93AF93BF93EF93FF935F991A
:1010D00011C0FF91EF91BF91AF919F918F917F913F
:1010E0006F915F914F913F912F910F900FBE0F9095
:1010F0001F90189507DCEDCF662371F0FC0161505D
:10110000262F30E02F5F3F4F280F391F9191909588
:10111000490FE217F307D1F7842F089541155105C0
:1011200049F0DB01FC01480F591F8D918193E417B1
:10113000F507D9F70895CF93DF93CDB7DEB7E897DA
:101140000FB6F894DEBF0FBECDBF11BC8A9A929A3B
:101150002DDBC4DB4DD88091EE0090E07FDE7894EB
:1011600085E0EFE6F0E0DE01D39601900D928A95DE
:10117000E1F788EE93E0EAD7E12CF12C412CD12C59
:10118000512CB12CA12CC12C58E0352E64E0262E18
:1011900078EE872E73E0972EE114F10409F47CC0F9
:1011A00038EBE3163BE0F30609F4F6C24FEFE41A1E
:1011B000F40AD1107FC06091D9007091DA0080915B
:1011C0007E0090917F006817790799F080E150D7F1
:1011D0006091DA0081E14CD780918000909181008C
:1011E000B5D7809180009091810090937F0080938B
:1011F0007E0024DA80917C0090917D00009709F4B4
:101200006BC0019790937D0080937C0046E0D42EC4
:1012100011DF20E043E060E0CE01019633DD082FCE
:10122000880F110B10161106BCF489818F3F09F449
:1012300056C09091EA00891709F469C08A818A151D
:1012400009F47BC041E0C41609F48AC021E040E003
:1012500060E080E090E016DD51E0C51669F182E0C3
:10126000C8129ACF91E0591297CF80917C0090914B
:101270007D00892B09F090CF8091CB009091CC001C
:1012800099838A834B2D62E0CE01019694DD512C27
:10129000E114F10409F084CF929825E730E0422F61
:1012A00061E0CE01C39687DD4FEFE41AF40ADD203A
:1012B00009F481CFDA94ACCF80917C0090917D00CD
:1012C000892B09F069CFC9824B2D61E0CE010196CF
:1012D00072DD82E0C82E60CF36E0D32E99CF8B81AD
:1012E000863009F440C0833009F46BC0833809F4B8
:1012F00046C1873009F446C0893009F45AC0BA8023
:1013000039824B2D61E0CE01019655DD9FCFBA8029
:101310008B81833009F4C0C0823009F49FC18130D1
:1013200051F0893069F7F894A3DA78948091EE004F
:1013300090E094DD81E08983E4CF22E0C21286CF81
:1013400031E0531283CF8091CB009091CC009983F0
:101350008A834B2D62E0CE0101962DDD512C76CF94
:101360004394A82E73CFBA808091EA0054E6859FFB
:10137000C001112490937D0080937C00A12CCC248B
:10138000C39464CF32E0C31261CFBA80AA20D9F2ED
:101390008091EE0090E0880F991F489E9001499E31
:1013A000300D112430937D0020937C0055245394FC
:1013B0004DCFF8945DDA78948091EE0090E04EDDA8
:1013C00045CF20E041E063E0CE0102965BDC2B825A
:1013D0000430110509F4DAC1380164E010E00BC0F3
:1013E000823108F453C085E068167104E9F06B811E
:1013F00091E0691A710881E0860F8B8320E041E05B
:10140000CE0101963FDC8A818B3050F7F8946981D8
:101410008A8191E0980F9A8390E059D9789411E0ED
:1014200085E06816710419F7809186009091870015
:1014300020918200309183008217930709F058C1F0
:10144000809180009091810020917E0030917F00FA
:1014500082179307A9F07AD680918000909181003D
:1014600090937F0080937E009093DA008093D90060
:1014700010928300109282001092870010928600D2
:10148000112309F4E3CEF89491D995CF698191E0C5
:10149000980F9A83EDD5A7CF380144E0641A7108FC
:1014A00020E041E063E0CE010296ECDB8A81F301AB
:1014B000E80FF11D73970CF023CF2B82672809F4F6
:1014C00067C1380164E010E00BC0823108F451C0FC
:1014D000F5E06F167104E9F06B8121E0621A710882
:1014E00081E0860F8B8320E041E0CE010196CADBCC
:1014F0008A818B3050F7F89469818A8191E0980F46
:101500009A8390E0E4D8789411E0F5E06F167104C6
:1015100019F7809186009091870020918200309188
:1015200083008217930709F017C180918000909182
:10153000810020917E0030917F0028173907A9F0A3
:1015400005D6809180009091810090937F008093D8
:101550007E009093DA008093D9001092830010925D
:10156000820010928700109286001111B2C0298269
:10157000C8CE698191E0980F9A837AD5A9CF20E0EF
:1015800042E063E0CE0101967DDB21E04A8166E026
:10159000CE01039677DB4A81442361F18E010D5F12
:1015A0001F4F612C712C18AE0CC08231D8F0FFEFA8
:1015B0006F1A7F0A0F5F1F4F842F90E0681679061D
:1015C000D0F489818B3088F7F894F80160818981A3
:1015D00091E0980F998390E07AD87894F1E0F8AF91
:1015E0004A81E5CFF801608191E0980F998340D559
:1015F0004A81DDCF18AE80918600909187002091BE
:101600008200309183008217930709F08BC080918C
:1016100080009091810020917E0030917F008217A0
:101620009307A9F093D580918000909181009093C9
:101630007F0080937E009093DA008093D90010920F
:10164000830010928200109287001092860028ADCD
:10165000222309F4FBCDF894A9D8ADCE20E042E0D6
:1016600063E0CE0103960EDB8B812C81422F50E08C
:10167000BA01680F711D633171050CF041CE452B25
:1016800009F488C0AE014B5F5F4F3A0100E010E003
:1016900012C0823128F4800F39D5F30180832C8168
:1016A0000F5F1F4FFFEF6F1A7F0A822F90E008171E
:1016B0001907C4F48B818B3060F7F8948B81F801A3
:1016C000E80FF11DCF0171D8F301808378942C814C
:1016D000E7CFF8946BD878948091EE0090E0BEDB71
:1016E00029820FCE602F4B2DCE01059664DBAECD47
:1016F00090938300809382006091840070918500B4
:1017000020E030E044E650E02DD590927F008092BA
:101710007E0090928100809280009092DA00809208
:10172000D900AECE909383008093820060918400B4
:101730007091850020E030E044E650E013D59092AF
:101740007F0080927E009092810080928000909233
:10175000DA008092D9007BCF90938300809382003F
:10176000609184007091850020E030E044E650E014
:10177000F9D490927F0080927E00909281008092B6
:1017800080009092DA008092D900EFCE10E04CCE2B
:1017900010E0BFCE60E0A7CF929A08CDAA1BBB1B7A
:1017A00051E107C0AA1FBB1FA617B70710F0A61B61
:1017B000B70B881F991F5A95A9F780959095BC0182
:1017C000CD01089597FB072E16F4009406D077FDFF
:1017D00008D0E4DF07FC05D03EF4909581959F4F3B
:1017E0000895709561957F4F0895A29FB001B39FB2
:1017F000C001A39F01D0B29F700D811D1124911DC6
:101800000895E199FECF9FBB8EBBE09A99278DB3D7
:101810000895262FE199FECF9FBB8EBB2DBB0FB63F
:10182000F894E29AE19A0FBE01960895F894FFCFDA
:101830000208424303796F6C6F7301E803C80041EB
:0C184000626364650030784645002D00AE
:00000001FF
