:100000001BC035C034C033C032C031C030C02FC077
:100010002EC02DC02CC04AC82AC029C022C127C06A
:1000200026C025C024C08FC47FC55EC53EC522C57D
:10003000FFC4E0C49EC47FC511241FBECFE5D4E039
:10004000DEBFCDBF10E0A0E6B0E0E8E5F8E102C019
:1000500005900D92AC36B107D9F723E0ACE6B0E0DD
:1000600001C01D92AF39B207E1F765D8F3CBC8CF15
:1000700070E08D3009F445C078F48B30B1F18C30EC
:1000800009F5762F662780917600680F711D7093B1
:1000900077006093760008958031A9F0813189F46A
:1000A000762F662780917000680F711D7093710024
:1000B000609370006F5F7F4F70936F0060936E006E
:1000C0000895089508958091700090917100882797
:1000D000680F791F70937100609370006F5F7F4F9E
:1000E00070936F0060936E000895809176009091F8
:1000F00077008827680F791F7093770060937600E8
:100100000895709375006093740008958D30D9F050
:1001100040F08F3069F0A0F0803169F48091700078
:1001200008958B3051F08C3031F48091BC000895EB
:100130008091BE00089580E008958091BB000895ED
:100140008091BD0008958091B9000895813D27E018
:10015000920730F490938E0080938D0081E0089593
:1001600080E00895E091D600F0E08E179F0774F1CB
:10017000A091DF00EFEFF3E0EA1BF109E817F907C0
:100180002CF16B30710510F545365105F8F4F90185
:100190007496B997D8F490939400809393007093D9
:1001A0009200609391003093900020938F005093C1
:1001B00096004093950081E08093970081ED97E051
:1001C00090938E0080938D0081E0089580E00895E3
:1001D00017B8369A82E08093B700109260000895B5
:1001E00082E087B9369A8093B80010926000089533
:1001F00087B3866087BB84B3817084BB84B384700B
:1002000084BB86B1876086B93E9A339A379A349810
:1002100080E008952091C20021110CC0E8E9F0E0CF
:100220008193919320E0E43BF207D1F781E0809342
:10023000C20008958091B600E82FF0E0EE0FFF1F96
:10024000E856FF4F2091BB003091BC0031832083E2
:100250008F5F8F3019F08093B60008951092B6002A
:1002600008951F920F920FB60F9211248F9381E081
:1002700080937800349A8F910F900FBE0F901F904B
:100280001895CF93DF9380918D0090918E00813DE2
:1002900027E09207A0F12091BB003091BC00409173
:1002A000DF008FEF93E0841B91098217930754F5C9
:1002B0008CE291E04091950050919600BA01660F52
:1002C000771F9A01220F331F220F331F220F331F74
:1002D000260F371F28513C4F281739070CF4C90146
:1002E00066EF64039001659F300D1124A901495107
:1002F0005C4F481759071CF0C90188519C4FDF918A
:10030000CF91BBC28091D60090E0281739070CF43A
:1003100067C040919100509192008091930090911C
:100320009400B901640F751F681779070CF06FC04E
:1003300060919700613009F4C4C01092800010925F
:100340007F0010928A001092890060917B0070916A
:100350007C0070937A0060937900AC01421B530BD0
:100360009A0150937C0040937B0050938600409309
:1003700085004091DD0050E0E0918300F091840021
:100380004E9FC0014F9F900D5E9F900D11248131B3
:10039000A7E29A0744F1161617065CF5F901E61B69
:1003A000F70BF0938200E093810010929700409148
:1003B000DC00429FE001439FD00D112464E670E011
:1003C00015DACE01860F971F4091DB004E9F9001FA
:1003D0004F9F300D1124820F931F88519C4F6ACF7D
:1003E00084EA96E067CF803FA8ED9A0714F477FD82
:1003F000D5CFE60FF71FF0938400E09383004E9F64
:10040000C0014F9F900D5E9F900D1124C7CFB90181
:10041000641B750B861797070CF08FCF60919700C0
:10042000613009F08ACF60917F00709180007093F5
:100430007E0060937D008091B9009091BA00481BC6
:10044000590B5093800040937F0050938C00409351
:100450008B002091D90030E0E0918900F0918A0072
:100460002E9FC0012F9F900D3E9F900D1124813132
:10047000A7E29A070CF485C0161617060CF087C081
:100480009A01261B370B30938800209387006091D8
:10049000D700649FF001659FF00D11246AE070E0C1
:1004A000A5D96E0F7F1F4091D800429FC001439F86
:1004B000900D1124680F791F88EE93E0861B970B2F
:1004C000F9CE60917F007091800070937E00609300
:1004D0007D008091B9009091BA00481B590B509350
:1004E000800040937F0050938C0040938B002091BC
:1004F000D90030E0E0918900F0918A002E9FD00170
:100500002F9FB00D3E9FB00D1124A13187E2B80797
:1005100024F1161617063CF5FA01E61BF70BF093CB
:100520008800E09387008091D700849F9001859F89
:10053000300D1124CD016AE070E058D9C901860F51
:10054000971F4091D8004E9F90014F9F300D11246E
:10055000820F931F88519C4FADCEA03F88EDB80706
:1005600014F477FDD9CFE60FF71FF0938A00E093DC
:1005700089002E9FD0012F9FB00D3E9FB00D1124FA
:10058000CBCF803FA8ED9A0714F477FD79CFE60F23
:10059000F71FF0938A00E09389002E9FC0012F9FE0
:1005A000900D3E9F900D11246BCF8091B80082304A
:1005B00041F08091B7008230A9F081E08093600023
:1005C000089524B185B190E0982F8827820F911D5E
:1005D0009093BE008093BD001092B80081E080939C
:1005E0006000089524B185B190E0982F8827820F8C
:1005F000911D9093BC008093BB000CDEE091B6008F
:10060000F0E0EE0FFF1FE856FF4F8091BB00909186
:10061000BC0020813181821B930B97FD0BC090930E
:10062000BA008093B9002DDE1092B70081E080936C
:1006300060000895919581959109F1CF809178009E
:10064000813079F18091C1008A30C1F08F5F809351
:10065000C10080916000813009F008958091B80058
:10066000813069F18091B7008130B9F717B8369AB7
:1006700082E08093B7001092600008951092C1004C
:1006800021E02093B7008091BF009091C000883E88
:1006900033E0930751F001969093C0008093BF0020
:1006A000D8CF83DF10927800CDCF1092C000109287
:1006B000BF002093B80080916000813071F682E025
:1006C00087B9369A8093B8001092600008958A3AEC
:1006D000910599F08130910591F08A30910519F0DA
:1006E000ACD881E008956F3CD9F36232C9F3603130
:1006F000B9F36330A9F3623098F380E008952FEFE7
:10070000260F2E3FD0F799D881E00895EF92FF92FF
:100710000F931F93CF93DF934423E9F0EB014150F4
:10072000E42EF12C2FEFE21AF20AE60EF71E8C01EE
:1007300005C00F5F1F4FCE15DF0569F06991C80135
:10074000C6DF8130B1F380E0DF91CF911F910F912F
:10075000FF90EF90089581E0DF91CF911F910F916D
:10076000FF90EF900895EF92FF920F931F93CF9316
:10077000DF93442399F0EB014150042F10E00F5F09
:100780001F4F060F171F7C01E61AF70AC7018C0FCF
:100790009D1F4BD88993C017D107C1F7DF91CF9127
:1007A0001F910F91FF90EF9008953FC880E090E077
:1007B0003CD88A3A61F161E081E090E03ED862E0A5
:1007C00082E090E03AD862E083E090E036D868E2D8
:1007D00084E090E032D861E085E090E02ED86AE0D5
:1007E00086E090E02AD868E287E090E026D86AE0C8
:1007F00088E090E022D860E089E090E01ED861E0D7
:100800008AE090E01AD86AEA80E090E016D881E0A9
:1008100090E00BD88093DA0082E090E006D88093D5
:10082000DF0083E090E001D88093D60084E090E080
:10083000FCD78093DC0085E090E0F7D78093DD0063
:1008400086E090E0F2D78093DB0087E090E0EDD780
:100850008093D70088E090E0E8D78093D90089E0C2
:1008600090E0E3D78093D80081E08093DE00089584
:1008700060E080E090E0E1D799CF20916100309175
:10088000620082179307F1F028B3297F28BB2FB7A6
:10089000F8941FBC893E33E09307B0F4883E33E000
:1008A000930751F048EE53E0481B590B59BD48BD22
:1008B0003FB530623FBDC29A78942FBF90936200DB
:1008C0008093610081E00895AC01485E53405BBDB8
:1008D0004ABD3FB530683FBDC19AEECF88B3897F2E
:1008E00088BB1DBC1CBC1FBC1EBC88EE93E097BD22
:1008F00086BD82E18EBD1BBC1ABC19BC18BC88EE3B
:1009000093E0BBCF8091630090916400009701F564
:100910001092D2001092D1001092D0001092CF000D
:100920001092CE001092CD001092CC001092C40014
:100930001092C5001092C30088EC90E09093640080
:10094000809363008CB18A3A09F40FC181E0089565
:10095000019790936400809363008CB1E091D20082
:100960004E2F50E04930510588F7FA01ED5EFF4FF8
:1009700009942091C3009091CE0041E0490F40932B
:10098000CE005BEF259F90011124F901E90FF11DC5
:10099000E052FF4F80839091D1009150981B90932B
:1009A000D1008091CF008F5F8093CF008091CC00E9
:1009B00091E0980F9093CC009091CD008913C6CF11
:1009C00020523F4F240F311DF9013597808180312E
:1009D00069F4339640813196808190E0982F882782
:1009E000840F911D9093CA008093C90088E0809382
:1009F000D200ACCF9091CC00492F50E02091CD0097
:100A000030E02F5F3F4F4217530709F4DEC021E06B
:100A1000290F3091CF003F5F9091D10091502093EA
:100A2000CC00981B9093D1003093CF0081E00895C3
:100A30009091CF00E091C3005BEFE59FF00111249E
:100A4000E90FF11DE052FF4F80838093CD009F5F3F
:100A50009093CF002091D1002150281B2093D100EA
:100A60008F5F8093CC0086E08093D2009093CE007D
:100A700081E008952091CF00E091C3004BEFE49F07
:100A8000F0011124E20FF11DE052FF4F808390919D
:100A9000D1009150981B9093D1002F5F2093CF00ED
:100AA00085E08093D20081E008952091C300909169
:100AB000CF00422F50E03BEF239FF0011124E90FBC
:100AC000F11DE052FF4F808331E0390F3093CF00AA
:100AD0003091D000931709F463C09091D1009150E8
:100AE000981B9093D10032CFE091C3009091CF003A
:100AF00021E0290F2093CF003BEFE39FF001112469
:100B0000E90FF11DE052FF4F80839091D100915089
:100B1000981B9093D100233009F018CF833809F443
:100B20008FC02093D20012CF1092CF00893CA0F04A
:100B30001092D2000BCF2091CF009091D0002917B6
:100B400009F467C09091D1009150981B9093D10007
:100B50002F5F2093CF00FACE8093D00080958093B2
:100B6000D10082E08093D200F1CE8091C300E82FC3
:100B7000F0E0EC53FF4F90819F3F39F4E1E0E81B38
:100B8000E093C300F0E0EC53FF4F108281E08093CC
:100B9000D20088EC90E09093640080936300D6CEFE
:100BA0003091D100831308C0FA01EC53FF4F9083BA
:100BB00081E0821B8093C3001092D2001092D1007A
:100BC0001092D0001092CF00C1CE3091CF00909102
:100BD000D000391769F19091DA00891314C0E091BF
:100BE000C3009091CE0021E0290F2093CE002BEF7F
:100BF000E29FF0011124E90FF11DE052FF4F8083C5
:100C000097E09093D2003F5F9091D100915021E006
:100C100006CF9091D1008917B9F01092D2001092AE
:100C2000D1001092D0001092CF001092CE008ECE44
:100C30001092D2001092D0009FEF31E021E0EFCE71
:100C400084E08093D20082CE8091C3009091CE0048
:100C5000282F30E04BEF849FF0011124E052FF4F2A
:100C6000E90FF11D359790819031B9F2F901EC53FC
:100C7000FF4F9091CD009A5F908391E0981B9093E5
:100C8000C300CBCF0F931F93CF93DF931F92CDB7AA
:100C9000DEB73091D500311134C0F89431E02091A5
:100CA000C300E32FE21BE093D400F0E0EC53FF4FCE
:100CB00020812223E9F04423D9F070E050E08B0139
:100CC000040F151FA22FB0E0A017B1078CF03093CE
:100CD000D5002093D3002FEF208378942091D40067
:100CE0003BEF239F600D711D112460527F4F16D280
:100CF00078948091D3000F90DF91CF911F910F9145
:100D0000089541110AC0213099F08091D3000F90CD
:100D1000DF91CF911F910F91089570E050E0DB01BA
:100D2000A40FB51FE091D300F0E0EA17FB078CF4A5
:100D3000E091D400F0E0EC53FF4F10821092D3000A
:100D40001092D50080E00F90DF91CF911F910F910D
:100D500008953091D400EBEF3E9F600D711D11247A
:100D600060527F4F2983DAD12981CDCF662301F1EB
:100D70002091C600DC0180E0E091C80091E09E0F68
:100D80009093C8003D91F0E0EA52FD4F3083983CCB
:100D900061F0283C38F42F5F2093C6008F5F8613E4
:100DA000EBCF01C08F5F90E008951092C800F1CFA3
:100DB00080E090E00895EF92FF920F931F93CF93FE
:100DC000DF9300D0CDB7DEB77C01162F042F8AEA5F
:100DD0008A83198261E0CE010296C8DF82E0810F2A
:100DE0008A8340E061E0CE01029686D1898361E08A
:100DF000CE010296BBDF0A8340E061E0CE0102969D
:100E00007BD19981890F898361E0CE010296AEDFA3
:100E10008091DA008A8340E061E0CE0102966CD1D5
:100E20009981890F898361E0CE0102969FDF612F4E
:100E3000C7019CDF40E0612FC7015ED19981890F16
:100E4000898361E0CE01019691DF0F900F90DF91D1
:100E5000CF911F910F91FF90EF90089521B3206CD7
:100E600021BB22E02BB928E92AB92AB1287F2AB967
:100E700026E820BD20B5276020BD90BD89B95E9AC7
:100E80000895EF92FF920F931F93CF93DF93CDB707
:100E9000DEB72A970FB6F894DEBF0FBECDBF8C0128
:100EA00085E090E09A87898718861F821E821D82BE
:100EB0001C821B8280E197E29A83898310161106B7
:100EC0000CF050C089859A859C01215031093A87E0
:100ED0002987892B09F451C0EE24E394F12C27C013
:100EE0008F819885019769F12D813E8149815A81D1
:100EF000429FC001439F900D529F900D1124081BEB
:100F0000190B29813A81ADECBCEC83D49695879579
:100F100096958795969587959A83898389859A85ED
:100F20009C01215031093A872987892B31F1698148
:100F30007A81C80147D47E836D838D819E81892B00
:100F400079F2F886EF828D819E81C0969E838D8393
:100F500061E0CE0105960ADF8D819E81C0979E8358
:100F60008D83C2CF01151105A9F480E390E09E8323
:100F70008D8361E0CE010596F9DE2A960FB6F894CE
:100F8000DEBF0FBECDBFDF91CF911F910F91FF90BC
:100F9000EF9008950E5F1F4F1C830B831AC061E012
:100FA000CE010596E3DE8D819E81C0979E838D8361
:100FB0008D819E8189819A8129813A81ADECBCEC39
:100FC00028D49695879596958795969587959A8333
:100FD000898389859A859C01215031093A8729871F
:100FE000892B59F28B819C8169817A81EBD37E8335
:100FF0006D838D819E81892B21F48F819885892B2A
:10100000B9F28F819885019698878F838D819E8113
:10101000C0969E838D838F819885019709F0BFCFFD
:1010200061E08AE690E0A2DEBACF5F9902C080E07C
:10103000089568CC5D9B10C08091C600811112C0DC
:101040005E9B32C086E400008150E9F71092CB002D
:101050009798969A5E9A08958091C600882381F3A6
:101060008FEF08958091CB00811105C081E08093BE
:10107000CB00979A9698E091C700F0E0EA52FD4FB6
:1010800080818CB98091C7008F5F8093C700909159
:10109000C60091509093C600883C11F081E00895FD
:1010A0001092C70081E0089580E008951F920F928A
:1010B0000FB60F9211242F933F934F935F936F932B
:1010C0007F938F939F93AF93BF93EF93FF935F991A
:1010D00011C0FF91EF91BF91AF919F918F917F913F
:1010E0006F915F914F913F912F910F900FBE0F9095
:1010F0001F90189507DCEDCF662371F0FC0161505D
:10110000262F30E02F5F3F4F280F391F9191909588
:10111000490FE217F307D1F7842F089541155105C0
:1011200049F0DB01FC01480F591F8D918193E417B1
:10113000F507D9F70895CF93DF93CDB7DEB7EB97D7
:101140000FB6F894DEBF0FBECDBF11BC8A9A929A3B
:101150002DDBC4DB4DD88091DE0090E07FDE7894FB
:1011600085E0E5E6F0E0DE01D39601900D928A95E8
:10117000E1F788EE93E0EAD71BAE1AAEE12CF12C32
:10118000412CD12C18AEB12CA12CC12C5524539438
:1011900058E0352E64E0262E78EE872E73E0972EE9
:1011A000E114F10409F47DC098EBE9169BE0F9061F
:1011B00009F406C3EFEFEE1AFE0AD1108CC060915D
:1011C000C9007091CA0080916E0090916F006817FD
:1011D000790799F080E14CD76091CA0081E148D746
:1011E0008091700090917100B1D7809170009091C2
:1011F000710090936F0080936E0020DA80916C00F4
:1012000090916D00009709F478C0019790936D005C
:1012100080936C0046E0D42E0DDF20E043E060E0D8
:10122000CE0101962FDD082F880F110B1016110625
:10123000BCF489818F3F09F463C09091DA0089176B
:1012400009F476C08A818A1509F488C041E0C41681
:1012500009F498C021E040E060E080E090E012DD19
:1012600051E0C516D1F182E0C8129ACF98AD913005
:1012700009F096CF80916C0090916D00892B09F058
:101280008FCF8091BB009091BC0099838A834B2DB6
:1012900062E0CE0101968FDD18AEE114F10409F091
:1012A00083CF92982AAD2F5F2AAF4EEF62E0CE0136
:1012B000C39681DD3AAD323008F47CCF4BAD41119D
:1012C00079CF50E55CAB81E08BAFEFEFEE1AFE0A11
:1012D000DD2009F474CFDA949FCF80916C00909157
:1012E0006D00892B09F05CCFC9824B2D61E0CE01E6
:1012F000019661DD82E0C82E53CF36E0D32E8CCF2D
:101300008B81863009F441C0833009F4DFC0833813
:1013100009F447C1873009F447C0893009F45BC03C
:10132000BA8039824B2D61E0CE01019644DD92CF27
:10133000BA808B81833009F456C0823009F4A0C191
:10134000813009F4D8C1893061F7F89491DA789442
:101350008091DE0090E082DD5982E4CF22E0C2126B
:1013600079CF38AD313009F075CF8091BB009091C5
:10137000BC0099838A834B2D62E0CE0101961BDD70
:1013800018AE68CF4394A82E65CFBA808091DA005A
:10139000F4E68F9FC001112490936D0080936C0040
:1013A000A12CCC24C39456CF32E0C31253CFBA80C1
:1013B000AA20D9F28091DE0090E0880F991F489E04
:1013C0009001499E300D112430936D0020936C00E4
:1013D00041E048AF3FCFF8944BDA78948091DE003B
:1013E00090E03CDD37CF380154E0651A710820E009
:1013F00041E063E0CE01029645DC8A81F301E80F0B
:10140000F11D73970CF08DCF2B82672809F4D4C19E
:10141000380164E010E00BC0823108F451C0F5E0FF
:101420006F167104E9F06B8121E0621A710881E0A6
:10143000860F8B8320E041E0CE01019623DC8A8178
:101440008B3050F7F89469818A8191E0980F9A83E4
:1014500090E03DD9789411E0F5E06F16710419F72A
:101460008091760090917700209172003091730006
:101470008217930709F084C18091700090917100E8
:1014800020916E0030916F0082179307A9F05ED60D
:10149000809170009091710090936F0080936E0026
:1014A0009093CA008093C90010927300109272004A
:1014B000109277001092760011111FC1298232CF4D
:1014C000698191E0980F9A83D3D5A9CF20E041E0BC
:1014D00063E0CE010296D6DB2B820430110509F4BD
:1014E00069C1380164E010E00BC0823108F453C0D8
:1014F00025E062167104E9F06B8131E0631A71082E
:1015000081E0860F8B8320E041E0CE010196BADBBB
:101510008A818B3050F7F89469818A8191E0980F25
:101520009A8390E0D4D8789411E025E06216710493
:1015300019F7809176009091770020917200309198
:1015400073008217930709F0E7C0809170009091B3
:10155000710020916E0030916F0028173907A9F0B3
:10156000F5D5809170009091710090936F008093F9
:101570006E009093CA008093C9001092730010927D
:1015800072001092770010927600112309F462CE57
:10159000F8940CD922CF698191E0980F9A8368D58D
:1015A000A7CF20E042E063E0CE0101966BDB21E0B3
:1015B0004A8166E0CE01039665DB4A81442361F1EE
:1015C0008E010D5F1F4F612C712C19AE0CC0823142
:1015D000D8F0FFEF6F1A7F0A0F5F1F4F842F90E044
:1015E00068167906D0F489818B3088F7F894F80171
:1015F0006081898191E0980F998390E068D8789410
:10160000F1E0F9AF4A81E5CFF801608191E0980FF0
:1016100099832ED54A81DDCF19AE809176009091C5
:10162000770020917200309173008217930709F0C0
:101630008DC0809170009091710020916E0030916A
:101640006F0028173907A9F081D58091700090911B
:10165000710090936F0080936E009093CA00809306
:10166000C9001092730010927200109277001092CD
:10167000760029AD222309F4EDCDF89497D8ADCEAC
:1016800020E042E063E0CE010396FCDA8B812C81FE
:10169000422F50E0BA01680F711D633171050CF0E3
:1016A00040CE452B09F48AC0AE014B5F5F4F3A0133
:1016B00000E010E012C0823128F4800F27D5F3013A
:1016C00080832C810F5F1F4FFFEF6F1A7F0A822FDD
:1016D00090E008171907D4F48B818B3060F7F894E9
:1016E0008B81F801E80FF11DCF015FD8F3018083F2
:1016F00078942C81E7CF898315CEF89457D87894C5
:101700008091DE0090E0AADB29820CCE602F4B2D69
:10171000CE01059650DB9ECD9093730080937200AE
:10172000609174007091750020E030E044E650E074
:1017300019D590926F0080926E0090927100809205
:1017400070009092CA008092C9001FCF90937300DE
:1017500080937200609174007091750020E030E019
:1017600044E650E0FFD490926F0080926E00909219
:101770007100809270009092CA008092C90079CF67
:101780009093730080937200609174007091750063
:1017900020E030E044E650E0E5D490926F00809283
:1017A0006E0090927100809270009092CA008092B8
:1017B000C90082CE10E0BDCE10E052CE60E0A7CFCF
:1017C000929AF8CCAA1BBB1B51E107C0AA1FBB1FF2
:1017D000A617B70710F0A61BB70B881F991F5A95BD
:1017E000A9F780959095BC01CD01089597FB072E30
:1017F00016F4009406D077FD08D0E4DF07FC05D08E
:101800003EF4909581959F4F0895709561957F4F17
:101810000895A29FB001B39FC001A39F01D0B29FC2
:10182000700D811D1124911D0895E199FECF9FBB7C
:101830008EBBE09A99278DB30895262FE199FECFAC
:101840009FBB8EBB2DBB0FB6F894E29AE19A0FBEF8
:0818500001960895F894FFCF02
:0C18580001E803C80001020304052D0094
:00000001FF
