:100000001BC035C034C033C032C031C030C02FC077
:100010002EC02DC02CC04AC82AC029C022C127C06A
:1000200026C025C024C08FC47FC55EC53EC522C57D
:10003000FFC4E0C49EC47FC511241FBECFE5D4E039
:10004000DEBFCDBF10E0A0E6B0E0E0E2F8E102C024
:1000500005900D92AE36B107D9F723E0AEE6B0E0D9
:1000600001C01D92A13AB207E1F765D8D7CBC8CF3E
:1000700070E08D3009F445C078F48B30B1F18C30EC
:1000800009F5762F662780917800680F711D7093AF
:1000900079006093780008958031A9F0813189F466
:1000A000762F662780917200680F711D7093730020
:1000B000609372006F5F7F4F709371006093700068
:1000C0000895089508958091720090917300882793
:1000D000680F791F70937300609372006F5F7F4F9A
:1000E00070937100609370000895809178009091F2
:1000F00079008827680F791F7093790060937800E2
:100100000895709377006093760008958D30D9F04C
:1001100040F08F3069F0A0F0803169F48091720076
:1001200008958B3051F08C3031F48091BE000895E9
:100130008091C000089580E008958091BD000895E9
:100140008091BF0008958091BB000895813D27E014
:10015000920730F49093900080938F0081E008958F
:1001600080E00895E091D800F0E08E179F0774F1C9
:10017000A091E100EFEFF3E0EA1BF109E817F907BE
:100180002CF16B30710510F545365105F8F4F90185
:100190007496B997D8F490939600809395007093D5
:1001A00094006093930030939200209391005093B9
:1001B00098004093970081E08093990081ED97E04B
:1001C0009093900080938F0081E0089580E00895DF
:1001D00017B8369A82E08093B900109260000895B3
:1001E00082E087B9369A8093BA0010926000089531
:1001F00087B3866087BB84B3817084BB84B384700B
:1002000084BB86B1876086B93E9A339A379A349810
:1002100080E008952091C40021110CC0EAE9F0E0CB
:100220008193919320E0E63BF207D1F781E0809340
:10023000C40008958091B800E82FF0E0EE0FFF1F92
:10024000E656FF4F2091BD003091BE0031832083E0
:100250008F5F8F3019F08093B80008951092B80026
:1002600008951F920F920FB60F9211248F9381E081
:1002700080937A00349A8F910F900FBE0F901F9049
:100280001895CF93DF9380918F0090919000813DDE
:1002900027E09207A0F12091BD003091BE0040916F
:1002A000E1008FEF93E0841B91098217930754F5C7
:1002B0008CE291E04091970050919800BA01660F4E
:1002C000771F9A01220F331F220F331F220F331F74
:1002D000260F371F28513C4F281739070CF4C90146
:1002E00066EF64039001659F300D1124A901495107
:1002F0005C4F481759071CF0C90188519C4FDF918A
:10030000CF91BBC28091D80090E0281739070CF438
:1003100067C0409193005091940080919500909116
:100320009600B901640F751F681779070CF06FC04C
:1003300060919900613009F4C4C01092820010925B
:10034000810010928C0010928B0060917D00709162
:100350007E0070937C0060937B00AC01421B530BCA
:100360009A0150937E0040937D0050938800409303
:1003700087004091DF0050E0E0918500F091860019
:100380004E9FC0014F9F900D5E9F900D11248131B3
:10039000A7E29A0744F1161617065CF5F901E61B69
:1003A000F70BF0938400E093830010929900409142
:1003B000DE00429FE001439FD00D112464E670E00F
:1003C000F9D9CE01860F971F4091DD004E9F900115
:1003D0004F9F300D1124820F931F88519C4F6ACF7D
:1003E00084EA96E067CF803FA8ED9A0714F477FD82
:1003F000D5CFE60FF71FF0938600E09385004E9F60
:10040000C0014F9F900D5E9F900D1124C7CFB90181
:10041000641B750B861797070CF08FCF60919900BE
:10042000613009F08ACF60918100709182007093F1
:10043000800060937F008091BB009091BC00481BBE
:10044000590B509382004093810050938E0040934B
:100450008D002091DB0030E0E0918B00F0918C006A
:100460002E9FC0012F9F900D3E9F900D1124813132
:10047000A7E29A070CF485C0161617060CF087C081
:100480009A01261B370B30938A00209389006091D4
:10049000D900649FF001659FF00D11246AE070E0BF
:1004A00089D96E0F7F1F4091DA00429FC001439FA0
:1004B000900D1124680F791F88EE93E0861B970B2F
:1004C000F9CE6091810070918200709380006093FA
:1004D0007F008091BB009091BC00481B590B50934A
:1004E00082004093810050938E0040938D002091B4
:1004F000DB0030E0E0918B00F0918C002E9FD0016A
:100500002F9FB00D3E9FB00D1124A13187E2B80797
:1005100024F1161617063CF5FA01E61BF70BF093CB
:100520008A00E09389008091D900849F9001859F83
:10053000300D1124CD016AE070E03CD9C901860F6D
:10054000971F4091DA004E9F90014F9F300D11246C
:10055000820F931F88519C4FADCEA03F88EDB80706
:1005600014F477FDD9CFE60FF71FF0938C00E093DA
:100570008B002E9FD0012F9FB00D3E9FB00D1124F8
:10058000CBCF803FA8ED9A0714F477FD79CFE60F23
:10059000F71FF0938C00E0938B002E9FC0012F9FDC
:1005A000900D3E9F900D11246BCF8091BA00823048
:1005B00041F08091B9008230A9F081E08093600021
:1005C000089524B185B190E0982F8827820F911D5E
:1005D0009093C0008093BF001092BA0081E0809396
:1005E0006000089524B185B190E0982F8827820F8C
:1005F000911D9093BE008093BD000CDEE091B80089
:10060000F0E0EE0FFF1FE656FF4F8091BD00909186
:10061000BE0020813181821B930B97FD0BC090930C
:10062000BC008093BB002DDE1092B90081E0809366
:1006300060000895919581959109F1CF80917A009C
:10064000813079F18091C3008A30C1F08F5F80934F
:10065000C30080916000813009F008958091BA0054
:10066000813069F18091B9008130B9F717B8369AB5
:1006700082E08093B9001092600008951092C30048
:1006800021E02093B9008091C1009091C200883E82
:1006900033E0930751F001969093C2008093C1001C
:1006A000D8CF83DF10927A00CDCF1092C200109283
:1006B000C1002093BA0080916000813071F682E021
:1006C00087B9369A8093BA001092600008958A3AEA
:1006D000910599F08130910591F08A30910519F0DA
:1006E00090D881E008956F3CD9F36232C9F360314C
:1006F000B9F36330A9F3623098F380E008952FEFE7
:10070000260F2E3FD0F77DD881E00895EF92FF921B
:100710000F931F93CF93DF934423E9F0EB014150F4
:10072000E42EF12C2FEFE21AF20AE60EF71E8C01EE
:1007300005C00F5F1F4FCE15DF0569F06991C80135
:10074000C6DF8130B1F380E0DF91CF911F910F912F
:10075000FF90EF90089581E0DF91CF911F910F916D
:10076000FF90EF900895EF92FF920F931F93CF9316
:10077000DF93442399F0EB014150042F10E00F5F09
:100780001F4F060F171F7C01E61AF70AC7018C0FCF
:100790009D1F2FD88993C017D107C1F7DF91CF9143
:1007A0001F910F91FF90EF90089523C880E090E093
:1007B00020D88A3A61F161E081E090E022D862E0DD
:1007C00082E090E01ED862E083E090E01AD868E210
:1007D00084E090E016D861E085E090E012D86AE00D
:1007E00086E090E00ED868E287E090E00AD86AE000
:1007F00088E090E006D860E089E090E002D861E00F
:100800008AE090E0FED76AEA80E090E0FAD781E0E3
:1008100090E0EFD78093DC0082E090E0EAD780930D
:10082000E10083E090E0E5D78093D80084E090E099
:10083000E0D78093DE0085E090E0DBD78093DF0097
:1008400086E090E0D6D78093DD0087E090E0D1D7B6
:100850008093D90088E090E0CCD78093DB0089E0DA
:1008600090E0C7D78093DA0081E08093E00008959C
:1008700060E080E090E0C5D799CF20916100309191
:10088000620082179307F1F028B3297F28BB2FB7A6
:10089000F8941FBC893E33E09307B0F4883E33E000
:1008A000930751F048EE53E0481B590B59BD48BD22
:1008B0003FB530623FBDC29A78942FBF90936200DB
:1008C0008093610081E00895AC01485E53405BBDB8
:1008D0004ABD3FB530683FBDC19AEECF88B3897F2E
:1008E00088BB1DBC1CBC1FBC1EBC88EE93E097BD22
:1008F00086BD82E18EBD1BBC1ABC19BC18BC88EE3B
:1009000093E0BBCF8091630090916400009701F564
:100910001092D4001092D3001092D2001092D10005
:100920001092D0001092CF001092CE001092C6000C
:100930001092C7001092C50088EC90E0909364007C
:10094000809363008CB18A3A09F40FC181E0089565
:10095000019790936400809363008CB1E091D40080
:100960004E2F50E04930510588F7FA01ED5EFF4FF8
:1009700009942091C5009091D00041E0490F409327
:10098000D0005BEF259F90011124F901E90FF11DC3
:10099000EE51FF4F80839091D3009150981B90931C
:1009A000D3008091D1008F5F8093D1008091CE00E1
:1009B00091E0980F9093CE009091CF008913C6CF0D
:1009C0002E513F4F240F311DF90135978081803121
:1009D00069F4339640813196808190E0982F882782
:1009E000840F911D9093CC008093CB0088E080937E
:1009F000D400ACCF9091CE00492F50E02091CF0091
:100A000030E02F5F3F4F4217530709F4DEC021E06B
:100A1000290F3091D1003F5F9091D30091502093E6
:100A2000CE00981B9093D3003093D10081E00895BD
:100A30009091D100E091C5005BEFE59FF00111249A
:100A4000E90FF11DEE51FF4F80838093CF009F5F30
:100A50009093D1002091D3002150281B2093D300E4
:100A60008F5F8093CE0086E08093D4009093D00077
:100A700081E008952091D100E091C5004BEFE49F03
:100A8000F0011124E20FF11DEE51FF4F8083909190
:100A9000D3009150981B9093D3002F5F2093D100E7
:100AA00085E08093D40081E008952091C500909165
:100AB000D100422F50E03BEF239FF0011124E90FBA
:100AC000F11DEE51FF4F808331E0390F3093D1009B
:100AD0003091D200931709F463C09091D3009150E4
:100AE000981B9093D30032CFE091C5009091D10034
:100AF00021E0290F2093D1003BEFE39FF001112467
:100B0000E90FF11DEE51FF4F80839091D30091507A
:100B1000981B9093D300233009F018CF833809F441
:100B20008FC02093D40012CF1092D100893CA0F046
:100B30001092D4000BCF2091D1009091D2002917B0
:100B400009F467C09091D3009150981B9093D30003
:100B50002F5F2093D100FACE8093D20080958093AE
:100B6000D30082E08093D400F1CE8091C500E82FBD
:100B7000F0E0EA53FF4F90819F3F39F4E1E0E81B3A
:100B8000E093C500F0E0EA53FF4F108281E08093CC
:100B9000D40088EC90E09093640080936300D6CEFC
:100BA0003091D300831308C0FA01EA53FF4F9083BA
:100BB00081E0821B8093C5001092D4001092D30074
:100BC0001092D2001092D100C1CE3091D1009091FC
:100BD000D200391769F19091DC00891314C0E091BB
:100BE000C5009091D00021E0290F2093D0002BEF79
:100BF000E29FF0011124E90FF11DEE51FF4F8083B8
:100C000097E09093D4003F5F9091D300915021E002
:100C100006CF9091D3008917B9F01092D4001092AA
:100C2000D3001092D2001092D1001092D0008ECE3C
:100C30001092D4001092D2009FEF31E021E0EFCE6D
:100C400084E08093D40082CE8091C5009091D00042
:100C5000282F30E04BEF849FF0011124EE51FF4F1D
:100C6000E90FF11D359790819031B9F2F901EA53FE
:100C7000FF4F9091CF009A5F908391E0981B9093E3
:100C8000C500CBCF0F931F93CF93DF931F92CDB7A8
:100C9000DEB73091D700311134C0F89431E02091A3
:100CA000C500E32FE21BE093D600F0E0EA53FF4FCC
:100CB00020812223E9F04423D9F070E050E08B0139
:100CC000040F151FA22FB0E0A017B1078CF03093CE
:100CD000D7002093D5002FEF208378942091D60061
:100CE0003BEF239F600D711D11246E517F4F16D273
:100CF00078948091D5000F90DF91CF911F910F9143
:100D0000089541110AC0213099F08091D5000F90CB
:100D1000DF91CF911F910F91089570E050E0DB01BA
:100D2000A40FB51FE091D500F0E0EA17FB078CF4A3
:100D3000E091D600F0E0EA53FF4F10821092D50008
:100D40001092D70080E00F90DF91CF911F910F910B
:100D500008953091D600EBEF3E9F600D711D112478
:100D60006E517F4F2983DAD12981CDCF662301F1DE
:100D70002091C800DC0180E0E091CA0091E09E0F64
:100D80009093CA003D91F0E0E852FD4F3083983CCB
:100D900061F0283C38F42F5F2093C8008F5F8613E2
:100DA000EBCF01C08F5F90E008951092CA00F1CFA1
:100DB00080E090E00895EF92FF920F931F93CF93FE
:100DC000DF9300D0CDB7DEB77C01162F042F8AEA5F
:100DD0008A83198261E0CE010296C8DF82E0810F2A
:100DE0008A8340E061E0CE01029686D1898361E08A
:100DF000CE010296BBDF0A8340E061E0CE0102969D
:100E00007BD19981890F898361E0CE010296AEDFA3
:100E10008091DC008A8340E061E0CE0102966CD1D3
:100E20009981890F898361E0CE0102969FDF612F4E
:100E3000C7019CDF40E0612FC7015ED19981890F16
:100E4000898361E0CE01019691DF0F900F90DF91D1
:100E5000CF911F910F91FF90EF90089521B3206CD7
:100E600021BB22E02BB928E92AB92AB1287F2AB967
:100E700026E820BD20B5276020BD90BD89B95E9AC7
:100E80000895EF92FF920F931F93CF93DF93CDB707
:100E9000DEB72A970FB6F894DEBF0FBECDBF8C0128
:100EA00085E090E09A87898718861F821E821D82BE
:100EB0001C821B8280E197E29A83898310161106B7
:100EC0000CF050C089859A859C01215031093A87E0
:100ED0002987892B09F451C0EE24E394F12C27C013
:100EE0008F819885019769F12D813E8149815A81D1
:100EF000429FC001439F900D529F900D1124081BEB
:100F0000190B29813A81ADECBCEC67D49695879595
:100F100096958795969587959A83898389859A85ED
:100F20009C01215031093A872987892B31F1698148
:100F30007A81C8012BD47E836D838D819E81892B1C
:100F400079F2F886EF828D819E81C0969E838D8393
:100F500061E0CE0105960ADF8D819E81C0979E8358
:100F60008D83C2CF01151105A9F480E390E09E8323
:100F70008D8361E0CE010596F9DE2A960FB6F894CE
:100F8000DEBF0FBECDBFDF91CF911F910F91FF90BC
:100F9000EF9008950E5F1F4F1C830B831AC061E012
:100FA000CE010596E3DE8D819E81C0979E838D8361
:100FB0008D819E8189819A8129813A81ADECBCEC39
:100FC0000CD49695879596958795969587959A834F
:100FD000898389859A859C01215031093A8729871F
:100FE000892B59F28B819C8169817A81CFD37E8351
:100FF0006D838D819E81892B21F48F819885892B2A
:10100000B9F28F819885019698878F838D819E8113
:10101000C0969E838D838F819885019709F0BFCFFD
:1010200061E08BE690E0A2DEBACF5F9902C080E07B
:10103000089568CC5D9B10C08091C800811112C0DA
:101040005E9B32C086E400008150E9F71092CD002B
:101050009798969A5E9A08958091C800882381F3A4
:101060008FEF08958091CD00811105C081E08093BC
:10107000CD00979A9698E091C900F0E0E852FD4FB4
:1010800080818CB98091C9008F5F8093C900909155
:10109000C80091509093C800883C11F081E00895F9
:1010A0001092C90081E0089580E008951F920F9288
:1010B0000FB60F9211242F933F934F935F936F932B
:1010C0007F938F939F93AF93BF93EF93FF935F991A
:1010D00011C0FF91EF91BF91AF919F918F917F913F
:1010E0006F915F914F913F912F910F900FBE0F9095
:1010F0001F90189507DCEDCF662371F0FC0161505D
:10110000262F30E02F5F3F4F280F391F9191909588
:10111000490FE217F307D1F7842F089541155105C0
:1011200049F0DB01FC01480F591F8D918193E417B1
:10113000F507D9F70895CF93DF93CDB7DEB7E997D9
:101140000FB6F894DEBF0FBECDBF11BC8A9A929A3B
:101150002DDBC4DB4DD88091E00090E07FDE7894F9
:1011600086E0E5E6F0E0DE01D39601900D928A95E7
:10117000E1F788EE93E0EAD7E12CF12C412CD12C59
:10118000512CB12CA12CC12C58E0352E64E0262E18
:1011900078EE872E73E0972EE114F10409F47CC0F9
:1011A00028EBE2162BE0F20609F4EEC23FEFE31A59
:1011B000F30AD1107DC06091CB007091CC0080917A
:1011C0007000909171006817790799F080E150D70D
:1011D0006091CC0081E14CD78091720090917300B6
:1011E000B5D78091720090917300909371008093B5
:1011F000700024DA80916E0090916F00009709F4DE
:1012000069C0019790936F0080936E0046E0D42EE2
:1012100011DF20E043E060E0CE01019633DD082FCE
:10122000880F110B10161106BCF489818F3F09F449
:1012300054C09091DC00891709F467C08A818A152F
:1012400009F479C041E0C41609F488C021E040E007
:1012500060E080E090E016DD51E0C51659F182E0D3
:10126000C8129ACF91E0591297CF80916E00909159
:101270006F00892B09F090CF8091BD009091BE0046
:1012800099838A834B2D62E0CE01019694DD512C27
:10129000E114F10409F084CF92984EEF61E0CE01A1
:1012A000C39689DD3FEFE31AF30ADD2009F483CF0B
:1012B000DA94AECF80916E0090916F00892B09F087
:1012C0006BCFC9824B2D61E0CE01019674DD82E0C7
:1012D000C82E62CF36E0D32E9BCF8B81863009F4A7
:1012E00040C0833009F46BC0833809F440C18730B3
:1012F00009F446C0893009F45AC0BA8039824B2DAE
:1013000061E0CE01019657DDA1CFBA808B81833099
:1013100009F4BDC0823009F499C1813051F089309F
:1013200069F7F894A5DA78948091E00090E096DD72
:1013300081E08983E4CF22E0C21288CF31E05312EA
:1013400085CF8091BD009091BE0099838A834B2DFB
:1013500062E0CE0101962FDD512C78CF4394A82E68
:1013600075CFBA808091DC0044E6849FC0011124CF
:1013700090936F0080936E00A12CCC24C39466CF11
:1013800032E0C31263CFBA80AA20D9F28091E00084
:1013900090E0880F991F489E9001499E300D1124BE
:1013A00030936F0020936E00552453944FCFF894E0
:1013B0005FDA78948091E00090E050DD47CF20E044
:1013C00041E063E0CE0102965DDC2B820430110522
:1013D00009F4D4C164E0712C09C0823108F451C011
:1013E00005301105E1F06B810150110981E0860F94
:1013F0008B8320E041E0CE01019644DC8A818B3072
:1014000060F7F89469818A8191E0980F9A8390E05F
:101410005ED97894772473940530110521F7809173
:1014200078009091790020917400309175008217B6
:10143000930709F055C1809172009091730020913B
:1014400070003091710082179307A9F07FD68091C8
:10145000720090917300909371008093700090934C
:10146000CC008093CB001092750010927400109203
:10147000790010927800772009F4E8CEF89496D994
:1014800098CF698191E0980F9A83F2D5A9CF38015E
:1014900044E0641A710820E041E063E0CE01029666
:1014A000F1DB8A81F301E80FF11D73970CF026CF71
:1014B0002B82672809F464C164E0712C09C0823171
:1014C00008F44FC005301105E1F06B81015011099E
:1014D00081E0860F8B8320E041E0CE010196D2DBD4
:1014E0008A818B3060F7F89469818A8191E0980F46
:1014F0009A8390E0ECD878947724739405301105A2
:1015000021F78091780090917900209174003091BA
:1015100075008217930709F017C1809172009091AE
:101520007300209170003091710028173907A9F0DD
:101530000DD680917200909173009093710080930A
:1015400070009093CC008093CB00109275001092A5
:10155000740010927900109278007110B2C0298244
:10156000CECE698191E0980F9A8382D5ABCF20E0EF
:1015700042E063E0CE01019685DB21E04A8166E02E
:10158000CE0103967FDB4A81442361F1CE010396AD
:101590003C0100E010E019AE0CC08231D8F00F5FC2
:1015A0001F4FFFEF6F1A7F0A842F90E0081719076B
:1015B000D0F489818B3088F7F894F30160818981B8
:1015C00091E0980F998390E082D87894F1E0F9AF98
:1015D0004A81E5CFF301608191E0980F998348D566
:1015E0004A81DDCF19AE80917800909179002091E9
:1015F0007400309175008217930709F08BC08091B9
:1016000072009091730020917000309171008217E8
:101610009307A9F09BD580917200909173009093ED
:101620007100809370009093CC008093CB00109257
:10163000750010927400109279001092780029AD14
:10164000222309F403CEF894B1D8B3CE20E042E0CF
:1016500063E0CE01039616DB8B812C81422F50E094
:10166000BA01680F711D633171050CF047CE452B2F
:1016700009F488C0AE014B5F5F4F3A0100E010E013
:1016800012C0823128F4800F41D5F30180832C8170
:101690000F5F1F4FFFEF6F1A7F0A822F90E008172E
:1016A0001907C4F48B818B3060F7F8948B81F801B3
:1016B000E80FF11DCF0179D8F301808378942C8154
:1016C000E7CFF89473D878948091E00090E0C6DB7F
:1016D000298215CE602F4B2DCE0105966CDBB6CD41
:1016E00090937500809374006091760070917700FC
:1016F00020E030E044E650E035D5909271008092D1
:10170000700090927300809272009092CC00809250
:10171000CB00B1CE909375008093740060917600F9
:101720007091770020E030E044E650E01BD59092C5
:10173000710080927000909273008092720090927B
:10174000CC008092CB007BCF909375008093740087
:10175000609176007091770020E030E044E650E040
:1017600001D59092710080927000909273008092E7
:1017700072009092CC008092CB00EFCE712C4FCEB5
:10178000712CBFCE60E0A7CF929A10CDAA1BBB1BD5
:1017900051E107C0AA1FBB1FA617B70710F0A61B71
:1017A000B70B881F991F5A95A9F780959095BC0192
:1017B000CD01089597FB072E16F4009406D077FD0F
:1017C00008D0E4DF07FC05D03EF4909581959F4F4B
:1017D0000895709561957F4F0895A29FB001B39FC2
:1017E000C001A39F01D0B29F700D811D1124911DD6
:1017F0000895E199FECF9FBB8EBBE09A99278DB3E8
:101800000895262FE199FECF9FBB8EBB2DBB0FB64F
:10181000F894E29AE19A0FBE01960895F894FFCFEA
:0E18200001E803C800BB53616C75742D000015
:00000001FF
