:100000001BC035C034C033C032C031C030C02FC077
:100010002EC02DC02CC04AC82AC029C022C127C06A
:1000200026C025C024C08FC47FC55EC53EC522C57D
:10003000FFC4E0C49EC47FC511241FBECFE5D4E039
:10004000DEBFCDBF10E0A0E6B0E0EAEDF7E102C010
:1000500005900D92A836B107D9F723E0A8E6B0E0E5
:1000600001C01D92AB39B207E1F765D8B4CBC8CF58
:1000700070E08D3009F445C078F48B30B1F18C30EC
:1000800009F5762F662780917200680F711D7093B5
:1000900073006093720008958031A9F0813189F472
:1000A000762F662780916C00680F711D70936D002C
:1000B00060936C006F5F7F4F70936B0060936A007A
:1000C00008950895089580916C0090916D0088279F
:1000D000680F791F70936D0060936C006F5F7F4FA6
:1000E00070936B0060936A00089580917200909104
:1000F00073008827680F791F7093730060937200F4
:100100000895709371006093700008958D30D9F058
:1001100040F08F3069F0A0F0803169F480916C007C
:1001200008958B3051F08C3031F48091B8000895EF
:100130008091BA00089580E008958091B7000895F5
:100140008091B90008958091B5000895813D27E020
:10015000920730F490938A008093890081E008959B
:1001600080E00895E091D200F0E08E179F0774F1CF
:10017000A091DB00EFEFF3E0EA1BF109E817F907C4
:100180002CF16B30710510F545365105F8F4F90185
:100190007496B997D8F49093900080938F007093E1
:1001A0008E0060938D0030938C0020938B005093D1
:1001B00092004093910081E08093930081ED97E05D
:1001C00090938A008093890081E0089580E00895EB
:1001D00017B8369A82E08093B300109260000895B9
:1001E00082E087B9369A8093B40010926000089537
:1001F00087B3866087BB84B3817084BB84B384700B
:1002000084BB86B1876086B93E9A339A379A349810
:1002100080E008952091BE0021110CC0E4E9F0E0D7
:100220008193919320E0E03BF207D1F781E0809346
:10023000BE0008958091B200E82FF0E0EE0FFF1F9E
:10024000EC56FF4F2091B7003091B80031832083E6
:100250008F5F8F3019F08093B20008951092B20032
:1002600008951F920F920FB60F9211248F9381E081
:1002700080937400349A8F910F900FBE0F901F904F
:100280001895CF93DF938091890090918A00813DEA
:1002900027E09207A0F12091B7003091B80040917B
:1002A000DB008FEF93E0841B91098217930754F5CD
:1002B0008CE291E04091910050919200BA01660F5A
:1002C000771F9A01220F331F220F331F220F331F74
:1002D000260F371F28513C4F281739070CF4C90146
:1002E00066EF64039001659F300D1124A901495107
:1002F0005C4F481759071CF0C90188519C4FDF918A
:10030000CF91BBC28091D20090E0281739070CF43E
:1003100067C040918D0050918E0080918F00909128
:100320009000B901640F751F681779070CF06FC052
:1003300060919300613009F4C4C010927C00109267
:100340007B0010928600109285006091770070917A
:1003500078007093760060937500AC01421B530BDC
:100360009A01509378004093770050938200409315
:1003700081004091D90050E0E0917F00F091800031
:100380004E9FC0014F9F900D5E9F900D11248131B3
:10039000A7E29A0744F1161617065CF5F901E61B69
:1003A000F70BF0937E00E0937D0010929300409154
:1003B000D800429FE001439FD00D112464E670E015
:1003C000D6D9CE01860F971F4091D7004E9F90013E
:1003D0004F9F300D1124820F931F88519C4F6ACF7D
:1003E00084EA96E067CF803FA8ED9A0714F477FD82
:1003F000D5CFE60FF71FF0938000E0937F004E9F6C
:10040000C0014F9F900D5E9F900D1124C7CFB90181
:10041000641B750B861797070CF08FCF60919300C4
:10042000613009F08ACF60917B0070917C007093FD
:100430007A00609379008091B5009091B600481BD6
:10044000590B50937C0040937B005093880040935D
:1004500087002091D50030E0E0918500F091860082
:100460002E9FC0012F9F900D3E9F900D1124813132
:10047000A7E29A070CF485C0161617060CF087C081
:100480009A01261B370B30938400209383006091E0
:10049000D300649FF001659FF00D11246AE070E0C5
:1004A00066D96E0F7F1F4091D400429FC001439FC9
:1004B000900D1124680F791F88EE93E0861B970B2F
:1004C000F9CE60917B0070917C0070937A0060930C
:1004D00079008091B5009091B600481B590B50935C
:1004E0007C0040937B0050938800409387002091CC
:1004F000D50030E0E0918500F09186002E9FD0017C
:100500002F9FB00D3E9FB00D1124A13187E2B80797
:1005100024F1161617063CF5FA01E61BF70BF093CB
:100520008400E09383008091D300849F9001859F95
:10053000300D1124CD016AE070E019D9C901860F90
:10054000971F4091D4004E9F90014F9F300D112472
:10055000820F931F88519C4FADCEA03F88EDB80706
:1005600014F477FDD9CFE60FF71FF0938600E093E0
:1005700085002E9FD0012F9FB00D3E9FB00D1124FE
:10058000CBCF803FA8ED9A0714F477FD79CFE60F23
:10059000F71FF0938600E09385002E9FC0012F9FE8
:1005A000900D3E9F900D11246BCF8091B40082304E
:1005B00041F08091B3008230A9F081E08093600027
:1005C000089524B185B190E0982F8827820F911D5E
:1005D0009093BA008093B9001092B40081E08093A8
:1005E0006000089524B185B190E0982F8827820F8C
:1005F000911D9093B8008093B7000CDEE091B2009B
:10060000F0E0EE0FFF1FEC56FF4F8091B700909186
:10061000B80020813181821B930B97FD0BC0909312
:10062000B6008093B5002DDE1092B30081E0809378
:1006300060000895919581959109F1CF80917400A2
:10064000813079F18091BD008A30C1F08F5F809355
:10065000BD0080916000813009F008958091B40060
:10066000813069F18091B3008130B9F717B8369ABB
:1006700082E08093B3001092600008951092BD0054
:1006800021E02093B3008091BB009091BC00883E94
:1006900033E0930751F001969093BC008093BB0028
:1006A000D8CF83DF10927400CDCF1092BC0010928F
:1006B000BB002093B40080916000813071F682E02D
:1006C00087B9369A8093B4001092600008958A3AF0
:1006D000910599F08130910591F08A30910519F0DA
:1006E0006DD881E008956F3CD9F36232C9F360316F
:1006F000B9F36330A9F3623098F380E008952FEFE7
:10070000260F2E3FD0F75AD881E00895EF92FF923E
:100710000F931F93CF93DF934423E9F0EB014150F4
:10072000E42EF12C2FEFE21AF20AE60EF71E8C01EE
:1007300005C00F5F1F4FCE15DF0569F06991C80135
:10074000C6DF8130B1F380E0DF91CF911F910F912F
:10075000FF90EF90089581E0DF91CF911F910F916D
:10076000FF90EF900895EF92FF920F931F93CF9316
:10077000DF93442399F0EB014150042F10E00F5F09
:100780001F4F060F171F7C01E61AF70AC7018C0FCF
:100790009D1F0CD88993C017D107C1F7DF91CF9166
:1007A0001F910F91FF90EF90089500C880E090E0B6
:1007B000FDD78A3A61F161E081E090E0FFD762E025
:1007C00082E090E0FBD762E083E090E0F7D768E258
:1007D00084E090E0F3D761E085E090E0EFD76AE055
:1007E00086E090E0EBD768E287E090E0E7D76AE048
:1007F00088E090E0E3D760E089E090E0DFD761E057
:100800008AE090E0DBD76AEA80E090E0D7D781E029
:1008100090E0CCD78093D60082E090E0C7D7809359
:10082000DB0083E090E0C2D78093D20084E090E0C8
:10083000BDD78093D80085E090E0B8D78093D900E9
:1008400086E090E0B3D78093D70087E090E0AED702
:100850008093D30088E090E0A9D78093D50089E009
:1008600090E0A4D78093D40081E08093DA000895CB
:1008700060E080E090E0A2D799CF209161003091B4
:10088000620082179307F1F028B3297F28BB2FB7A6
:10089000F8941FBC893E33E09307B0F4883E33E000
:1008A000930751F048EE53E0481B590B59BD48BD22
:1008B0003FB530623FBDC29A78942FBF90936200DB
:1008C0008093610081E00895AC01485E53405BBDB8
:1008D0004ABD3FB530683FBDC19AEECF88B3897F2E
:1008E00088BB1DBC1CBC1FBC1EBC88EE93E097BD22
:1008F00086BD82E18EBD1BBC1ABC19BC18BC88EE3B
:1009000093E0BBCF8091630090916400009701F564
:100910001092CE001092CD001092CC001092CB001D
:100920001092CA001092C9001092C8001092C00024
:100930001092C1001092BF0088EC90E09093640088
:10094000809363008CB18A3A09F40FC181E0089565
:10095000019790936400809363008CB1E091CE0086
:100960004E2F50E04930510588F7FA01ED5EFF4FF8
:1009700009942091BF009091CA0041E0490F409333
:10098000CA005BEF259F90011124F901E90FF11DC9
:10099000E452FF4F80839091CD009150981B90932B
:1009A000CD008091CB008F5F8093CB008091C800F9
:1009B00091E0980F9093C8009091C9008913C6CF19
:1009C00024523F4F240F311DF9013597808180312A
:1009D00069F4339640813196808190E0982F882782
:1009E000840F911D9093C6008093C50088E080938A
:1009F000CE00ACCF9091C800492F50E02091C900A3
:100A000030E02F5F3F4F4217530709F4DEC021E06B
:100A1000290F3091CB003F5F9091CD0091502093F2
:100A2000C800981B9093CD003093CB0081E00895CF
:100A30009091CB00E091BF005BEFE59FF0011124A6
:100A4000E90FF11DE452FF4F80838093C9009F5F3F
:100A50009093CB002091CD002150281B2093CD00F6
:100A60008F5F8093C80086E08093CE009093CA0089
:100A700081E008952091CB00E091BF004BEFE49F0F
:100A8000F0011124E20FF11DE452FF4F8083909199
:100A9000CD009150981B9093CD002F5F2093CB00F9
:100AA00085E08093CE0081E008952091BF00909171
:100AB000CB00422F50E03BEF239FF0011124E90FC0
:100AC000F11DE452FF4F808331E0390F3093CB00AA
:100AD0003091CC00931709F463C09091CD009150F0
:100AE000981B9093CD0032CFE091BF009091CB0046
:100AF00021E0290F2093CB003BEFE39FF00111246D
:100B0000E90FF11DE452FF4F80839091CD00915089
:100B1000981B9093CD00233009F018CF833809F447
:100B20008FC02093CE0012CF1092CB00893CA0F052
:100B30001092CE000BCF2091CB009091CC002917C2
:100B400009F467C09091CD009150981B9093CD000F
:100B50002F5F2093CB00FACE8093CC0080958093BA
:100B6000CD0082E08093CE00F1CE8091BF00E82FCF
:100B7000F0E0E054FF4F90819F3F39F4E1E0E81B43
:100B8000E093BF00F0E0E054FF4F108281E08093DB
:100B9000CE0088EC90E09093640080936300D6CE02
:100BA0003091CD00831308C0FA01E054FF4F9083C9
:100BB00081E0821B8093BF001092CE001092CD0086
:100BC0001092CC001092CB00C1CE3091CB0090910E
:100BD000CC00391769F19091D600891314C0E091C7
:100BE000BF009091CA0021E0290F2093CA002BEF8B
:100BF000E29FF0011124E90FF11DE452FF4F8083C1
:100C000097E09093CE003F5F9091CD00915021E00E
:100C100006CF9091CD008917B9F01092CE001092B6
:100C2000CD001092CC001092CB001092CA008ECE54
:100C30001092CE001092CC009FEF31E021E0EFCE79
:100C400084E08093CE0082CE8091BF009091CA0054
:100C5000282F30E04BEF849FF0011124E452FF4F26
:100C6000E90FF11D359790819031B9F2F901E05407
:100C7000FF4F9091C9009A5F908391E0981B9093E9
:100C8000BF00CBCF0F931F93CF93DF931F92CDB7AE
:100C9000DEB73091D100311134C0F89431E02091A9
:100CA000BF00E32FE21BE093D000F0E0E054FF4FE1
:100CB00020812223E9F04423D9F070E050E08B0139
:100CC000040F151FA22FB0E0A017B1078CF03093CE
:100CD000D1002093CF002FEF208378942091D00073
:100CE0003BEF239F600D711D112464527F4F16D27C
:100CF00078948091CF000F90DF91CF911F910F9149
:100D0000089541110AC0213099F08091CF000F90D1
:100D1000DF91CF911F910F91089570E050E0DB01BA
:100D2000A40FB51FE091CF00F0E0EA17FB078CF4A9
:100D3000E091D000F0E0E054FF4F10821092CF001D
:100D40001092D10080E00F90DF91CF911F910F9111
:100D500008953091D000EBEF3E9F600D711D11247E
:100D600064527F4F2983DAD12981CDCF662301F1E7
:100D70002091C200DC0180E0E091C40091E09E0F70
:100D80009093C4003D91F0E0EE52FD4F3083983CCB
:100D900061F0283C38F42F5F2093C2008F5F8613E8
:100DA000EBCF01C08F5F90E008951092C400F1CFA7
:100DB00080E090E00895EF92FF920F931F93CF93FE
:100DC000DF9300D0CDB7DEB77C01162F042F8AEA5F
:100DD0008A83198261E0CE010296C8DF82E0810F2A
:100DE0008A8340E061E0CE01029686D1898361E08A
:100DF000CE010296BBDF0A8340E061E0CE0102969D
:100E00007BD19981890F898361E0CE010296AEDFA3
:100E10008091D6008A8340E061E0CE0102966CD1D9
:100E20009981890F898361E0CE0102969FDF612F4E
:100E3000C7019CDF40E0612FC7015ED19981890F16
:100E4000898361E0CE01019691DF0F900F90DF91D1
:100E5000CF911F910F91FF90EF90089521B3206CD7
:100E600021BB22E02BB928E92AB92AB1287F2AB967
:100E700026E820BD20B5276020BD90BD89B95E9AC7
:100E80000895EF92FF920F931F93CF93DF93CDB707
:100E9000DEB72A970FB6F894DEBF0FBECDBF8C0128
:100EA00085E090E09A87898718861F821E821D82BE
:100EB0001C821B8280E197E29A83898310161106B7
:100EC0000CF050C089859A859C01215031093A87E0
:100ED0002987892B09F451C0EE24E394F12C27C013
:100EE0008F819885019769F12D813E8149815A81D1
:100EF000429FC001439F900D529F900D1124081BEB
:100F0000190B29813A81ADECBCEC44D496958795B8
:100F100096958795969587959A83898389859A85ED
:100F20009C01215031093A872987892B31F1698148
:100F30007A81C80108D47E836D838D819E81892B3F
:100F400079F2F886EF828D819E81C0969E838D8393
:100F500061E0CE0105960ADF8D819E81C0979E8358
:100F60008D83C2CF01151105A9F480E390E09E8323
:100F70008D8361E0CE010596F9DE2A960FB6F894CE
:100F8000DEBF0FBECDBFDF91CF911F910F91FF90BC
:100F9000EF9008950E5F1F4F1C830B831AC061E012
:100FA000CE010596E3DE8D819E81C0979E838D8361
:100FB0008D819E8189819A8129813A81ADECBCEC39
:100FC000E9D39695879596958795969587959A8373
:100FD000898389859A859C01215031093A8729871F
:100FE000892B59F28B819C8169817A81ACD37E8374
:100FF0006D838D819E81892B21F48F819885892B2A
:10100000B9F28F819885019698878F838D819E8113
:10101000C0969E838D838F819885019709F0BFCFFD
:1010200061E085E690E0A2DEBACF5F9902C080E081
:10103000089568CC5D9B10C08091C200811112C0E0
:101040005E9B32C086E400008150E9F71092C70031
:101050009798969A5E9A08958091C200882381F3AA
:101060008FEF08958091C700811105C081E08093C2
:10107000C700979A9698E091C300F0E0EE52FD4FBA
:1010800080818CB98091C3008F5F8093C300909161
:10109000C20091509093C200883C11F081E0089505
:1010A0001092C30081E0089580E008951F920F928E
:1010B0000FB60F9211242F933F934F935F936F932B
:1010C0007F938F939F93AF93BF93EF93FF935F991A
:1010D00011C0FF91EF91BF91AF919F918F917F913F
:1010E0006F915F914F913F912F910F900FBE0F9095
:1010F0001F90189507DCEDCF662371F0FC0161505D
:10110000262F30E02F5F3F4F280F391F9191909588
:10111000490FE217F307D1F7842F089541155105C0
:1011200049F0DB01FC01480F591F8D918193E417B1
:10113000F507D9F70895CF93DF93CDB7DEB7E297E0
:101140000FB6F894DEBF0FBECDBF11BC8A9A929A3B
:101150002DDBC4DB4DD88091DA0090E07FDE7894FF
:1011600088EE93E0F3D7812CF12C912CD12CC12C5B
:10117000E12C58E0552E64E0462E78EEA72E73E061
:10118000B72EF11070C06091C5007091C6008091BB
:101190006A0090916B006817790799F080E168D731
:1011A0006091C60081E164D780916C0090916D00E0
:1011B000CDD780916C0090916D0090936B008093DF
:1011C0006A003CDA8091680090916900009709F408
:1011D0005CC00197909369008093680046E0F42E0C
:1011E00029DF20E043E060E0CE0101964BDD082FCF
:1011F000880F110B10161106BCF489818F3F09F47A
:1012000047C09091D600891709F45AC08A818C157D
:1012100009F46DC041E0E41609F47CC021E040E02F
:1012200060E080E090E02EDD51E0E516F1F082E034
:10123000E812A7CF91E09912A4CF80916800909115
:101240006900892B09F09DCF8091B7009091B8007B
:1012500099838A834D2D62E0CE010196ACDD912CFD
:10126000FF2009F490CFFA94BBCF80916800909151
:101270006900892B09F085CFE9824D2D61E0CE010F
:10128000019699DD82E0E82E7CCF36E0F32EA8CFE0
:101290008B81863009F441C0833009F4DDC0833886
:1012A00009F442C1873009F447C0893009F45BC0B2
:1012B000DA8059824D2D61E0CE0101967CDDAECF02
:1012C000DA808B81833009F456C0823009F49BC1E7
:1012D000813009F4D2C1893061F7F894C9DA789481
:1012E0008091DA0090E0BADD81E08983E3CF22E0EB
:1012F000E21294CF31E0931291CF8091B700909198
:10130000B80099838A834D2D62E0CE01019653DDAA
:10131000912C84CF8394C82E81CFDA808091D6001F
:1013200024E6829FC0011124909369008093680095
:10133000C12CEE24E39472CF22E0E2126FCFDA8068
:10134000CC20D9F28091DA0090E0880F991F889E16
:101350009001899E300D112430936900209368001C
:10136000992493945BCFF89483DA78948091DA008F
:1013700090E074DD53CF380134E0631A710820E047
:1013800041E063E0CE0102967DDC8A81A301480F33
:10139000511D433151050CF08CCF4B82672809F465
:1013A000CEC164E0712C09C0823108F44FC0053011
:1013B0001105E1F06B810150110981E0860F8B83EB
:1013C00020E041E0CE0101965DDC8A818B3060F740
:1013D000F89469818A8191E0980F9A8390E077D997
:1013E0007894772473940530110521F78091720069
:1013F0009091730020916E0030916F0082179307D7
:1014000009F081C180916C0090916D0020916A007B
:1014100030916B0028173907A9F098D680916C009D
:1014200090916D0090936B0080936A009093C6003A
:101430008093C50010926F0010926E00109273009E
:101440001092720071101CC1498234CF698191E001
:10145000980F9A830DD6ABCF20E041E063E0CE0138
:10146000029610DC4B820430110509F466C164E079
:10147000712C09C0823108F451C005301105E1F02A
:101480006B810150110981E0860F8B8320E041E0E0
:10149000CE010196F7DB8A818B3060F7F894698181
:1014A0008A8191E0980F9A8390E011D978947724FB
:1014B00073940530110521F78091720090917300AB
:1014C00020916E0030916F008217930709F0E7C0FA
:1014D00080916C0090916D0020916A0030916B00BA
:1014E00082179307A9F032D680916C0090916D001D
:1014F00090936B0080936A009093C6008093C50020
:1015000010926F0010926E00109273001092720091
:10151000772009F483CEF89449D927CF698191E0E7
:10152000980F9A83A5D5A9CF20E042E063E0CE01D1
:101530000196A8DB21E04A8166E0CE010396A2DB9A
:101540002A81222369F1AE014D5F5F4F3A0100E02D
:1015500010E0312C0CC08231D8F00F5F1F4FFFEF2D
:101560006F1A7F0A822F90E008171907D0F489813B
:101570008B3088F7F894F3016081898191E0980FAE
:10158000998390E0A4D87894332433942A81E5CFCA
:10159000F301608191E0980F99836AD52A81DDCFAC
:1015A000312C809172009091730020916E003091E7
:1015B0006F008217930709F08CC080916C009091A6
:1015C0006D0020916A0030916B0082179307A9F09B
:1015D000BDD580916C0090916D0090936B008093CD
:1015E0006A009093C6008093C50010926F0010921D
:1015F0006E001092730010927200332009F40ECE28
:10160000F894D4D8B2CE20E042E063E0CE01039655
:1016100039DB8B812C81422F50E0BA01680F711D9C
:10162000633171050CF045CE452B09F48AC0FE01EB
:1016300035963F0100E010E012C0823128F4800F9F
:1016400065D5F30180832C810F5F1F4FFFEF6F1A69
:101650007F0A822F90E008171907DCF48B818B300A
:1016600060F7F8948B819801280F311DC9019DD82E
:10167000F301808378942C81E7CF929889831ACEE6
:10168000F89494D878948091DA0090E0E7DB49826E
:1016900011CE602F4D2DCE0105968DDBBFCD9093E1
:1016A0006F0080936E00609170007091710020E077
:1016B00030E044E650E056D5B0926B00A0926A004C
:1016C000B0926D00A0926C00B092C600A092C500CE
:1016D0001FCF90936F0080936E00609170007091A7
:1016E000710020E030E044E650E03CD5B0926B0061
:1016F000A0926A00B0926D00A0926C00B092C600F9
:10170000A092C5007ACF90936F0080936E00609195
:1017100070007091710020E030E044E650E022D586
:10172000B0926B00A0926A00B0926D00A0926C0023
:10173000B092C600A092C50085CE712CBDCE712C92
:1017400055CE60E0A7CFAA1BBB1B51E107C0AA1F63
:10175000BB1FA617B70710F0A61BB70B881F991F52
:101760005A95A9F780959095BC01CD01089597FBF6
:10177000072E16F4009406D077FD08D0E4DF07FCAE
:1017800005D03EF4909581959F4F08957095619591
:101790007F4F0895A29FB001B39FC001A39F01D0C6
:1017A000B29F700D811D1124911D0895E199FECF06
:1017B0009FBB8EBBE09A99278DB30895262FE199A0
:1017C000FECF9FBB8EBB2DBB0FB6F894E29AE19A79
:0A17D0000FBE01960895F894FFCFB4
:0817DA0001E803C8002D000026
:00000001FF
