:100000001BC035C034C033C032C031C030C02FC077
:100010002EC02DC02CC0B1CB2AC029C07EC427C0A1
:1000200026C025C024C0C2C9E2C9F1C916CA4ACA3D
:1000300064CA85CACACA1DCB11241FBECFE5D4E04D
:10004000DEBFCDBF10E0A0E6B0E0E4E9F8E102C019
:1000500005900D92A237B107D9F723E0A2E7B0E0EF
:1000600001C01D92A53AB207E1F775D011CCC8CFF7
:1000700070E08D3011F128F48B3041F08C3091F02C
:1000800008958031F9F0813179F1089580917C00F3
:1000900090917D008827680F791F70937D00609391
:1000A0007C000895762F662780917C00680F711D73
:1000B00070937D0060937C00089570937B00609343
:1000C0007A00089580917600909177008827680FD4
:1000D000791F70937700609376006F5F7F4F709306
:1000E0007500609374000895762F662780917600DE
:1000F000680F711D70937700609376006F5F7F4F7C
:10010000709375006093740008958D3091F028F419
:100110008B3049F08C3051F01BC08F3081F060F093
:10012000803181F015C08091C10008958091C20096
:1001300008958091BF0008958091C3000895809133
:10014000C4000895809176009091770099270895D2
:1001500080E090E00895CF93DF93CDB7DEB7E997C5
:100160000FB6F894DEBF0FBECDBF11BC8A9A929A2B
:100170006BD603D798D38091E40090E0F3D77894BE
:1001800085E0E5E6F0E0DE01D39601900D928A95D8
:10019000E1F788EE93E02DD300E010E0612CF12C24
:1001A00019AED12CE12C18AE0F2EF6E0CF2EF02D8B
:1001B0006894332433F80F2EF8EE4F2EF3E05F2EC1
:1001C000F02D0F2EF4E62F2EF02D0115110549F418
:1001D00092982AE630E0422F62E0CE01C3966FD7B4
:1001E00005C0083B3BE0130709F4929A0F5F1F4FCD
:1001F000F1102CC06091CF007091D00080917400FC
:10020000909175006817790799F080E131DF60916E
:10021000D00081E12DDF8091760090917700E9D2C6
:100220008091760090917700909375008093740090
:1002300060D58091720090917300009749F001970A
:100240009093730080937200FC2C03C0FA9401C059
:10025000FC2C57DA20E043E060E0CE010196A2D604
:10026000082E000C990B181619060CF092C2298161
:100270002F3F09F05DC12B81263071F4DA80809127
:10028000E000289EC00111249093730080937200B7
:10029000E12C41E048AF77C2233009F084C05C0113
:1002A00054E0A51AB10820E041E063E0CE010296D7
:1002B00079D684E08B83A114B10429F1912C6B8150
:1002C00081E0860F8B8320E041E0CE0101966AD663
:1002D0008A818B3060F4F89469818A8191E0980F6B
:1002E0009A8390E043D578949924939407C08231FF
:1002F00028F4698191E0980F9A83BADE91E0A91AF7
:10030000B108E9F601C0912C80917C0090917D00AC
:10031000209178003091790082179307C9F090936B
:1003200079008093780060917A0070917B0020E0E2
:1003300030E044E650E069D250927500409274007B
:1003400050927700409276005092D0004092CF00B9
:100350008091760090917700209174003091750023
:1003600082179307A9F045D280917600909177008B
:1003700090937500809374009093D0008093CF0089
:10038000109279001092780010927D0010927C00FB
:10039000992009F4F8C1F89457D578948091E40035
:1003A00090E0E0D6F0C1233809F089C020E042E0B7
:1003B00063E0CE010196F6D521E04A816C2DCE0195
:1003C0000396F0D58A81882351F1FE0133964F01BF
:1003D000A12CB12C712C89818B3068F4F894F40134
:1003E0006081898191E0980F998390E0BFD47894DF
:1003F0007724739408C0823130F4F401608191E075
:10040000980F998335DEFFEFAF1ABF0A2FEF821ADC
:10041000920A8A8190E0A816B906E8F201C0712C10
:1004200080917C0090917D0020917800309179003E
:1004300082179307C9F090937900809378006091B8
:100440007A0070917B0020E030E044E650E0DDD19E
:10045000509275004092740050927700409276005E
:100460005092D0004092CF0080917600909177001A
:10047000209174003091750082179307A9F0B9D1CB
:10048000809176009091770090937500809374002E
:100490009093D0008093CF00109279001092780052
:1004A00010927D0010927C00772009F46CC1F894C2
:1004B000CBD478948091E40090E054D664C1273086
:1004C00029F538AD323009F05EC1DA80E1100DC097
:1004D0008091C1009091C20099838A834D2D62E082
:1004E000CE010196ECD519AE4EC18091E40090E0AA
:1004F000880F991F689E9001699E300D11243093DA
:1005000073002093720041E049AF3DC1293041F4AE
:10051000F894FCD478948091E40090E023D633C121
:10052000DA8039824D2D61E0CE010196C8D52BC10C
:100530003091E000231307C1DA802B81233009F0CA
:1005400097C05C0154E0A51AB10820E041E063E0E7
:10055000CE01029627D58A81F501E80FF11D739728
:100560003CF039824D2D61E0CE010196A8D50BC13A
:10057000F4E0FB83A114B10429F1912C6B8181E09B
:10058000860F8B8320E041E0CE0101960BD58A8156
:100590008B3060F4F89469818A8191E0980F9A8396
:1005A00090E0E4D378949924939407C0823128F49E
:1005B000698191E0980F9A835BDD21E0A21AB1086E
:1005C000E9F601C0912C80917C0090917D002091F2
:1005D00078003091790082179307C9F090937900E1
:1005E0008093780060917A0070917B0020E030E089
:1005F00044E650E00AD15092750040927400509247
:100600007700409276005092D0004092CF008091C7
:1006100076009091770020917400309175008217D8
:100620009307A9F0E6D0809176009091770090939F
:100630007500809374009093D0008093CF00109247
:1006400079001092780010927D0010927C00992021
:1006500039F0F894F9D378948091E40090E082D551
:1006600034E039834D2D61E0CE01019628D58BC051
:10067000223009F046C020E042E063E0CE0103965C
:1006800091D48C8190E02B81AC01420F511D4331FC
:10069000510534F41816190654F0A12CB12C2BC0B6
:1006A00039824D2D61E0CE01019609D56CC0CE0195
:1006B00005964C01A12CB12C8B818B3058F4F89409
:1006C0008B81F501E80FF11DCF01BCD3F4018083CC
:1006D000789406C0823120F48A0D17DDF4018083FE
:1006E000FFEFAF1ABF0A2FEF821A920A8C8190E0B7
:1006F000A816B9060CF34D2D6A2DCE010596DFD450
:1007000042C0213041F481E089834D2D61E0CE016A
:100710000196D5D438C0293079F4F894F7D3789479
:100720008091E40090E01ED581E089834D2D61E049
:10073000CE010196C4D427C039824D2D61E0CE018F
:100740000196BDD420C0BA80BE1014C038AD32307E
:10075000B9F449AD4130B1F48091C1009091C2002B
:1007600099838A834D2D62E0CE010196A8D4EB2CAB
:1007700019AE09C058AD513031F46394EB2C03C06D
:10078000EB2C01C0EB2C21E040E060E080E090E049
:1007900009D488AD813089F4809172009091730002
:1007A000892B09F012CD81E089834D2D61E0CE01C6
:1007B000019685D492E098AF08CDE8ADE23009F01B
:1007C00004CDF9ADF13009F000CD80917200909127
:1007D0007300892B09F0F9CC8091C1009091C2007F
:1007E00099838A834D2D62E0CE01019668D419AEBB
:1007F000ECCC813D27E0920730F4909394008093F5
:10080000930081E0089580E00895E091DC00F0E03D
:100810008E179F0774F1A091E500EFEFF3E0EA1B5C
:10082000F109E817F9073CF16B30710530F54536F1
:10083000510528F5F9017496B99718F590939A0027
:10084000809399007093980060939700309396007E
:100850002093950050939C0040939B0081E08093EF
:100860009D0081ED97E0909394008093930081E048
:10087000089580E0089580E0089580E0089580E084
:10088000089580E0089517B8369A82E08093BD00FD
:1008900010926000089582E087B9369A8093BE0076
:1008A00010926000089587B3866087BB84B381701F
:1008B00084BB84B3847084BB86B1876086B93E9A5A
:1008C000339A379A349880E008952091C800211116
:1008D0000DC0EEE9F0E02AEB30E081939193E2174E
:1008E000F307D9F781E08093C80008958091BC0098
:1008F000E82FF0E0EE0FFF1FE256FF4F2091C100FE
:100900003091C200318320838F5F8F3019F0809344
:10091000BC0008951092BC0008951F920F920FB66C
:100920000F9211248F9381E080937E00349A8F91EF
:100930000F900FBE0F901F901895CF93DF9380916B
:10094000930090919400813D27E0920708F488C1BC
:100950002091C1003091C2004091E5008FEF93E0FB
:10096000841B9109821793070CF453C18091DC001A
:1009700090E0281739070CF44FC14091970050912F
:1009800098008091990090919A00B901640F751FA9
:10099000681779070CF066C060919D00613009F01E
:1009A000CFC08091850090918600909384008093C1
:1009B00083002091BF003091C000421B530B509325
:1009C00086004093850050939200409391002091BF
:1009D000DF0030E060918F0070919000269FF00161
:1009E000279FF00D369FF00D1124E131A7E2FA07A1
:1009F0001CF0181619065CF0E03FF84D14F499232A
:100A000034F0680F791F7093900060938F00FA01A3
:100A1000E81BF90BF0938E00E0938D008091DD00D0
:100A2000849FE001859FD00D112440918F0050914B
:100A30009000249FC001259F900D349F900D11249C
:100A40006AE070E0F1D6CE01860F971F4091DE007C
:100A50004E9F90014F9F300D1124820F931F88519C
:100A60009C4FDCC0B901641B750B861797070CF00F
:100A700067C060919D00613009F062C0809185007F
:100A80009091860090938400809383002091BF0012
:100A90003091C000421B530B509386004093850059
:100AA00050939200409391002091DF0030E06091DC
:100AB0008F0070919000269FF001279FF00D369FC8
:100AC000F00D1124E131A7E2FA071CF018161906FF
:100AD0005CF0E03FF84D14F4992334F0680F791F6F
:100AE0007093900060938F00FA01E81BF90BF0936C
:100AF0008E00E0938D008091DD00849FE001859F52
:100B0000D00D112440918F0050919000249FC0017E
:100B1000259F900D349F900D11246AE070E084D6DB
:100B20006C0F7D1F2091DE002E9FC0012F9F900D26
:100B30001124680F791F88EE93E0861B970B6EC017
:100B400010928600109285001092900010928F00F3
:100B500060918100709182007093800060937F00AB
:100B6000AC01421B530B9A015093820040938100C9
:100B700050938C0040938B004091E30050E08091B3
:100B8000890090918A00489FF001499FF00D589F7D
:100B9000F00D1124E131A7E2FA071CF01616170632
:100BA0005CF0E03FF84D14F4772334F0860F971F84
:100BB00090938A0080938900F901E61BF70BF0936C
:100BC0008800E093870010929D008091E200829F50
:100BD000E001839FD00D11242091890030918A007B
:100BE000429FC001439F900D529F900D112464E6D7
:100BF00070E01AD6CE01860F971F4091E1004E9FFC
:100C000090014F9F300D1124820F931F88519C4FEC
:100C100005C08CE291E002C084EA96E040919B001E
:100C200050919C00BA01660F771F9A01220F331F63
:100C3000220F331F220F331F260F371F28513C4F1F
:100C4000281739070CF4C90166EF64039001659F0A
:100C5000300D112428513C4F821793070CF4C90121
:100C60005BD1DF91CF9108958091BE00823071F405
:100C700024B185B190E0982F8827820F911D909321
:100C8000C4008093C3001092BE002FC08091BD00AD
:100C9000823059F524B185B190E0982F8827820FD2
:100CA000911D9093C2008093C1000FDEE091BC00C3
:100CB000F0E0EE0FFF1FE256FF4F8091C1009091D0
:100CC000C20020813181821B930B2AF09093C000D7
:100CD0008093BF0007C09195819591099093C000C2
:100CE0008093BF002ADE1092BD0081E080936000F7
:100CF000089580917E00813019F4B6DF10927E0055
:100D00008091C7008A30F9F41092C70081E0809387
:100D1000BD008091C5009091C600883E23E09207F7
:100D200061F41092C6001092C50081E08093BE006D
:100D3000809160008130C9F411C001969093C60083
:100D40008093C50003C08F5F8093C70080916000CF
:100D5000813059F48091BE00813011F49CDD0895FA
:100D60008091BD00813009F48EDD08958A3A9105A5
:100D7000C1F08130910529F42FEF260F2E3F70F03E
:100D800012C08A30910551F46F3C41F0623231F06B
:100D9000603121F0633011F0623038F46CD581E0BD
:100DA000089580E0089580E0089580E00895EF922E
:100DB000FF920F931F93CF93DF934423B9F07B01EE
:100DC0008B014150242F30E02F5F3F4FE20EF31E86
:100DD000C82FD92FF80161918F01CE01C7DF813073
:100DE00039F421960E151F05A9F703C081E001C053
:100DF00080E0DF91CF911F910F91FF90EF900895C8
:100E0000EF92FF920F931F93CF93DF93442399F0B8
:100E10004150042F10E00F5F1F4F060F171FEB010B
:100E20007C01E61AF70AC7018C0F9D1F1CD5899318
:100E3000C017D107C1F7DF91CF911F910F91FF909C
:100E4000EF90089510D5089580E090E00CD58A3A8F
:100E500061F161E081E090E089DF62E082E090E0B2
:100E600085DF62E083E090E081DF68E284E090E08B
:100E70007DDF61E085E090E079DF6AE086E090E088
:100E800075DF68E287E090E071DF6AE088E090E07B
:100E90006DDF60E089E090E069DF61E08AE090E08A
:100EA00065DF6AEA80E090E0E6D481E090E0DBD4A0
:100EB0008093E00082E090E0D6D48093E50083E068
:100EC00090E0D1D48093DC0084E090E0CCD4809397
:100ED000E20085E090E0C7D48093E30086E090E0F4
:100EE000C2D48093E10087E090E0BDD48093DD0020
:100EF00088E090E0B8D48093DF0089E090E0B3D43C
:100F00008093DE0081E08093E400089560E080E05B
:100F100090E0B1D499DF0895209161003091620092
:100F20008217930741F128B3297F28BB2FB7F89484
:100F30001FBC893E33E0930750F0AC01485E53403C
:100F40005BBD4ABD3FB530683FBDC19A0EC0883E0B
:100F500033E0930750F448EE53E0481B590B59BD5A
:100F600048BD3FB530623FBDC29A78942FBF909381
:100F700062008093610081E0089588B3897F88BB17
:100F80001DBC1CBC1FBC1EBC88EE93E097BD86BD7B
:100F900082E18EBD1BBC1ABC19BC18BC88EE93E064
:100FA000BBDF0895CF93DF93FC01C22F9091DB004C
:100FB000911135C0F8948091C90021E0281B20933D
:100FC000DA0030E0D901A653BF4F9C91992329F153
:100FD000442319F1A42FB0E0A60FB11DC92FD0E012
:100FE000CA17DB07D4F081E08093DB009093D9002F
:100FF000D901A653BF4F8FEF8C93789450E0809126
:10100000DA002BEF829FC00111248A519F4F9C016F
:10101000260F311DB901CF01E5D3789427C04423B1
:10102000C9F0242F30E0260F311D8091D90090E0C7
:10103000821793078CF050E08091DA003BEF839F9A
:10104000C00111248A519F4F9C01260F311DB90107
:10105000CF01C8D3C13051F4E091DA00F0E0E6539B
:10106000FF4F10821092D9001092DB008091D900BE
:10107000DF91CF9108956623E1F0A82FB92F20E0EA
:10108000E091CE0091E09E0F9093CE003D91F0E074
:10109000E452FD4F3083983C11F41092CE009091B1
:1010A000CC00983C48F49F5F9093CC002F5F2613B0
:1010B000E7CF862F90E0089561E0620FFACFEF92BC
:1010C000FF920F931F93CF93DF9300D0CDB7DEB77E
:1010D0007C01162F042F8AEA89831A8261E0CE01EF
:1010E0000196C9DF82E0810F898340E061E0CE0193
:1010F000019666D38A8361E0CE010196BCDF098345
:1011000040E061E0CE0101965BD39A81890F8A832A
:1011100061E0CE010196AFDF8091E000898340E07D
:1011200061E0CE0101964CD39A81890F8A8361E0F8
:10113000CE010196A0DF612FC7019DDF40E0612F46
:10114000C7013ED39A81890F8A8361E0CE0102965E
:1011500092DF0F900F90DF91CF911F910F91FF9031
:10116000EF90089521B3206C21BB22E02BB928E930
:101170002AB92AB1287F2AB926E820BD20B52760E0
:1011800020BD90BD89B95E9A0895EF92FF920F93AA
:101190001F93CF93DF93CDB7DEB72A970FB6F8949E
:1011A000DEBF0FBECDBF8C0185E090E09A838983BE
:1011B0001C821B821E821D8218861F8280E197E29C
:1011C0009A878987101611060CF04FC089819A8181
:1011D0009C01215031093A832983892B09F4A4C049
:1011E000EE24E394F12C69857A85C80109D37E83C6
:1011F0006D838D819E81892B21F48B819C81019748
:1012000081F4FC82EB828D819E81C0969E838D83CA
:1012100061E0CE0105962FDF8D819E81C0979E8370
:101220008D832D813E8149855A85429FC001439F10
:10123000900D529F900D1124081B190B29853A859A
:10124000ADECBCEC04D396958795969587959695CD
:1012500087959A87898729813A81C90101979A835D
:101260008983232B09F0BFCF5FC011230CF054C03A
:101270000E5F1F4F18870F8389819A819C0121502F
:1012800031093A832983892B09F44EC08F819885CF
:1012900069857A85B5D27E836D838D819E81892B08
:1012A00021F48B819C81892BD9F08B819C810196C3
:1012B0009C838B838D819E81C0969E838D838B8141
:1012C0009C81019721F461E08FE690E0D4DE61E03B
:1012D000CE010596D0DE8D819E81C0979E838D8341
:1012E0008D819E8189859A8529853A85ADECBCECF6
:1012F000AED29695879596958795969587959A8778
:10130000898789819A819C01215031093A832983F7
:10131000892B09F0BBCF08C080E390E09E838D83CA
:1013200061E0CE010596A7DE2A960FB6F894DEBFDF
:101330000FBECDBFDF91CF911F910F91FF90EF9026
:1013400008955F9BD4C180916300909164000097E1
:10135000D9F41092D8001092D7001092D6001092B3
:10136000D5001092D4001092D3001092D200EAEC73
:10137000F0E0108211821092C90088EC90E0909306
:1013800064008093630005C001979093640080938C
:1013900063009CB18091D800482F50E0493051053E
:1013A00008F0A7C1FA01ED5EFF4F09949A3A09F0DF
:1013B000A2C18091C900E82FF0E0E653FF4F908171
:1013C0009F3F21F491E0981B9093C900E091C900E0
:1013D000F0E0E653FF4F108281E08093D80088EC64
:1013E00090E0909364008093630081E008951092F0
:1013F000D500993C18F01092D80008959093D6002B
:1014000090959093D70092E09093D8000895E09142
:10141000C9008091D50021E0280F2093D5003BEF33
:10142000E39FF0011124E80FF11DEA51FF4F908373
:101430008091D7008150891B8093D700233009F019
:101440005CC1933829F484E08093D80081E008954A
:1014500083E08093D80081E008952091C9008091B5
:10146000D500422F50E03BEF239FF0011124E80FFD
:10147000F11DEA51FF4F908331E0380F3093D500D2
:101480003091D600831316C03091D700391308C0AD
:10149000FA01E653FF4F808381E0821B8093C900ED
:1014A0001092D8001092D7001092D6001092D5005A
:1014B00081E008958091D7008150891B8093D700E7
:1014C00081E008952091D500E091C9004BEFE49FA1
:1014D000F0011124E20FF11DEA51FF4F908380913A
:1014E000D7008150891B8093D7002F5F2093D500B0
:1014F00085E08093D80081E008958091D500E09147
:10150000C9002BEFE29FF0011124E80FF11DEA5111
:10151000FF4F90839093D3008F5F8093D5002091ED
:10152000D7002150291B2093D7009F5F9093D200B2
:1015300096E09093D8008093D40081E00895409184
:10154000D20050E02091D30030E02F5F3F4F421790
:10155000530749F51092D2002091D5008091D60012
:10156000281309C01092D8001092D7001092D6000C
:101570001092D50018C08091E000981314C0E0913B
:10158000C9008091D40021E0280F2093D4003BEFC4
:10159000E39FF0011124E80FF11DEA51FF4F908302
:1015A00087E08093D8008091D2008F5F8093D20033
:1015B0008091D7008150891B8093D7008091D500FE
:1015C0008F5F8093D50081E00895E091C9008091FC
:1015D000D40021E0280F2093D4004E2F50E03BEFA1
:1015E000E39FF0011124E80FF11DEA51FF4F9083B2
:1015F0008091D7008150891B8093D7008091D500BE
:101600008F5F8093D5008091D20091E0980F9093E6
:10161000D2009091D300891372C0822F90E02BEFFB
:10162000249FF001259FF00D1124E80FF91FEF51C1
:10163000FF4F20812031C1F46BEF649F9001659FC3
:10164000300D11242A513F4F820F931FFC01329716
:1016500020813196808190E0982F8827820F911DFC
:101660009093D0008093CF0088E08093D80081E0F1
:1016700008952091D5008091D60028132DC0809127
:10168000D70089131DC09091C9008091D400292FE3
:1016900030E04BEF949FF0011124EA51FF4FE80F27
:1016A000F11D35978081803159F0F901E653FF4FE4
:1016B0008091D3008A5F808381E0891B8093C90079
:1016C0001092D8001092D7001092D6001092D50038
:1016D0001092D40081E008958091D7008150891B39
:1016E0008093D7002F5F2093D50081E0089580E09C
:1016F000089581E0089581E0089581E0089581E0F2
:1017000008955D9B24C08091CC00882321F18091B5
:10171000D100811105C081E08093D100979A9698FD
:10172000E091CD00F0E0E452FD4F80818CB98091D2
:10173000CD008F5F8093CD009091CC00915090931D
:10174000CC00883CA1F41092CD0081E008958091F6
:10175000CC0081110EC05E9B0EC085E4000081505C
:10176000E8F71092D1009798969A5E9A089581E0D2
:1017700008958FEF089580E008951F920F920FB69D
:101780000F9211242F933F934F935F936F937F9307
:101790008F939F93AF93BF93EF93FF93D2DDFF910E
:1017A000EF91BF91AF919F918F917F916F915F91D9
:1017B0004F913F912F910F900FBE0F901F90189552
:1017C000662371F0FC016150262F30E02F5F3F4F00
:1017D000280F391F91919095490FE217F307D1F720
:1017E000842F08954115510551F0A62FB72FFC0104
:1017F000480F591F9D919193E417F507D9F7089564
:10180000AA1BBB1B51E107C0AA1FBB1FA617B70726
:1018100010F0A61BB70B881F991F5A95A9F7809542
:101820009095BC01CD01089597FB072E16F4009406
:1018300006D077FD08D0E4DF07FC05D03EF4909594
:1018400081959F4F0895709561957F4F0895A29F50
:10185000B001B39FC001A39F01D0B29F700D811D45
:101860001124911D0895E199FECF9FBB8EBBE09A94
:1018700099278DB30895262FE199FECF9FBB8EBB8C
:101880002DBB0FB6F894E29AE19A0FBE0196089527
:04189000F894FFCFFA
:1018940001E803C800BE0842434430784645002DA1
:0218A400000042
:00000001FF
