:100000001BC035C034C033C032C031C030C02FC077
:100010002EC02DC02CC04AC82AC029C022C127C06A
:1000200026C025C024C08FC47FC55EC53EC522C57D
:10003000FFC4E0C49EC47FC511241FBECFE5D4E039
:10004000DEBFCDBF10E0A0E6B0E0EEE1F8E102C017
:1000500005900D92A637B107D9F723E0A6E7B0E0E7
:1000600001C01D92A93AB207E1F765D8D6CBC8CF37
:1000700070E08D3009F445C078F48B30B1F18C30EC
:1000800009F5762F662780918000680F711D7093A7
:1000900081006093800008958031A9F0813189F456
:1000A000762F662780917A00680F711D70937B0010
:1000B00060937A006F5F7F4F709379006093780050
:1000C00008950895089580917A0090917B00882783
:1000D000680F791F70937B0060937A006F5F7F4F8A
:1000E00070937900609378000895809180009091DA
:1000F00081008827680F791F7093810060938000CA
:10010000089570937F0060937E0008958D30D9F03C
:1001100040F08F3069F0A0F0803169F480917A006E
:1001200008958B3051F08C3031F48091C6000895E1
:100130008091C800089580E008958091C5000895D9
:100140008091C70008958091C3000895813D27E004
:10015000920730F4909398008093970081E008957F
:1001600080E00895E091E000F0E08E179F0774F1C1
:10017000A091E900EFEFF3E0EA1BF109E817F907B6
:100180002CF16B30710510F545365105F8F4F90185
:100190007496B997D8F490939E0080939D007093C5
:1001A0009C0060939B0030939A0020939900509399
:1001B000A00040939F0081E08093A10081ED97E033
:1001C000909398008093970081E0089580E00895CF
:1001D00017B8369A82E08093C10010926A000895A1
:1001E00082E087B9369A8093C20010926A0008951F
:1001F00087B3866087BB84B3817084BB84B384700B
:1002000084BB86B1876086B93E9A339A379A349810
:1002100080E008952091CC0021110CC0E2EAF0E0CA
:100220008193919320E0EE3BF207D1F781E0809338
:10023000CC0008958091C000E82FF0E0EE0FFF1F82
:10024000EE55FF4F2091C5003091C60031832083C9
:100250008F5F8F3019F08093C00008951092C00016
:1002600008951F920F920FB60F9211248F9381E081
:1002700080938200349A8F910F900FBE0F901F9041
:100280001895CF93DF938091970090919800813DCE
:1002900027E09207A0F12091C5003091C60040915F
:1002A000E9008FEF93E0841B91098217930754F5BF
:1002B0008CE291E040919F005091A000BA01660F3E
:1002C000771F9A01220F331F220F331F220F331F74
:1002D000260F371F28513C4F281739070CF4C90146
:1002E00066EF64039001659F300D1124A901495107
:1002F0005C4F481759071CF0C90188519C4FDF918A
:10030000CF91BBC28091E00090E0281739070CF430
:1003100067C040919B0050919C0080919D009091FE
:100320009E00B901640F751F681779070CF06FC044
:100330006091A100613009F4C4C010928A0010924B
:100340008900109294001092930060918500709142
:1003500086007093840060938300AC01421B530BB2
:100360009A015093860040938500509390004093EB
:100370008F004091E70050E0E0918D00F0918E00F9
:100380004E9FC0014F9F900D5E9F900D11248131B3
:10039000A7E29A0744F1161617065CF5F901E61B69
:1003A000F70BF0938C00E0938B001092A10040912A
:1003B000E600429FE001439FD00D112464E670E007
:1003C000F8D9CE01860F971F4091E5004E9F90010E
:1003D0004F9F300D1124820F931F88519C4F6ACF7D
:1003E00084EA96E067CF803FA8ED9A0714F477FD82
:1003F000D5CFE60FF71FF0938E00E0938D004E9F50
:10040000C0014F9F900D5E9F900D1124C7CFB90181
:10041000641B750B861797070CF08FCF6091A100B6
:10042000613009F08ACF6091890070918A007093E1
:100430008800609387008091C3009091C400481B9E
:10044000590B50938A004093890050939600409333
:1004500095002091E30030E0E0919300F09194004A
:100460002E9FC0012F9F900D3E9F900D1124813132
:10047000A7E29A070CF485C0161617060CF087C081
:100480009A01261B370B30939200209391006091C4
:10049000E100649FF001659FF00D11246AE070E0B7
:1004A00088D96E0F7F1F4091E200429FC001439F99
:1004B000900D1124680F791F88EE93E0861B970B2F
:1004C000F9CE6091890070918A00709388006093E2
:1004D00087008091C3009091C400481B590B509332
:1004E0008A00409389005093960040939500209194
:1004F000E30030E0E0919300F09194002E9FD00152
:100500002F9FB00D3E9FB00D1124A13187E2B80797
:1005100024F1161617063CF5FA01E61BF70BF093CB
:100520009200E09391008091E100849F9001859F6B
:10053000300D1124CD016AE070E03BD9C901860F6E
:10054000971F4091E2004E9F90014F9F300D112464
:10055000820F931F88519C4FADCEA03F88EDB80706
:1005600014F477FDD9CFE60FF71FF0939400E093D2
:1005700093002E9FD0012F9FB00D3E9FB00D1124F0
:10058000CBCF803FA8ED9A0714F477FD79CFE60F23
:10059000F71FF0939400E09393002E9FC0012F9FCC
:1005A000900D3E9F900D11246BCF8091C200823040
:1005B00041F08091C1008230A9F081E080936A000F
:1005C000089524B185B190E0982F8827820F911D5E
:1005D0009093C8008093C7001092C20081E080937E
:1005E0006A00089524B185B190E0982F8827820F82
:1005F000911D9093C6008093C5000CDEE091C00071
:10060000F0E0EE0FFF1FEE55FF4F8091C500909177
:10061000C60020813181821B930B97FD0BC0909304
:10062000C4008093C3002DDE1092C10081E080934E
:100630006A000895919581959109F1CF809182008A
:10064000813079F18091CB008A30C1F08F5F809347
:10065000CB0080916A00813009F008958091C2003A
:10066000813069F18091C1008130B9F717B8369AAD
:1006700082E08093C10010926A0008951092CB002E
:1006800021E02093C1008091C9009091CA00883E6A
:1006900033E0930751F001969093CA008093C9000C
:1006A000D8CF83DF10928200CDCF1092CA00109273
:1006B000C9002093C20080916A00813071F682E007
:1006C00087B9369A8093C20010926A0008958A3AD8
:1006D000910599F08130910591F08A30910519F0DA
:1006E0008FD881E008956F3CD9F36232C9F360314D
:1006F000B9F36330A9F3623098F380E008952FEFE7
:10070000260F2E3FD0F77CD881E00895EF92FF921C
:100710000F931F93CF93DF934423E9F0EB014150F4
:10072000E42EF12C2FEFE21AF20AE60EF71E8C01EE
:1007300005C00F5F1F4FCE15DF0569F06991C80135
:10074000C6DF8130B1F380E0DF91CF911F910F912F
:10075000FF90EF90089581E0DF91CF911F910F916D
:10076000FF90EF900895EF92FF920F931F93CF9316
:10077000DF93442399F0EB014150042F10E00F5F09
:100780001F4F060F171F7C01E61AF70AC7018C0FCF
:100790009D1F2ED88993C017D107C1F7DF91CF9144
:1007A0001F910F91FF90EF90089522C880E090E094
:1007B0001FD88A3A61F161E081E090E021D862E0DF
:1007C00082E090E01DD862E083E090E019D868E212
:1007D00084E090E015D861E085E090E011D86AE00F
:1007E00086E090E00DD868E287E090E009D86AE002
:1007F00088E090E005D860E089E090E001D861E011
:100800008AE090E0FDD76AEA80E090E0F9D781E0E5
:1008100090E0EED78093E40082E090E0E9D7809307
:10082000E90083E090E0E4D78093E00084E090E08A
:10083000DFD78093E60085E090E0DAD78093E70089
:1008400086E090E0D5D78093E50087E090E0D0D7B0
:100850008093E10088E090E0CBD78093E30089E0CB
:1008600090E0C6D78093E20081E08093E80008958D
:1008700060E080E090E0C4D799CF20916B00309188
:100880006C0082179307F1F028B3297F28BB2FB79C
:10089000F8941FBC893E33E09307B0F4883E33E000
:1008A000930751F048EE53E0481B590B59BD48BD22
:1008B0003FB530623FBDC29A78942FBF90936C00D1
:1008C00080936B0081E00895AC01485E53405BBDAE
:1008D0004ABD3FB530683FBDC19AEECF88B3897F2E
:1008E00088BB1DBC1CBC1FBC1EBC88EE93E097BD22
:1008F00086BD82E18EBD1BBC1ABC19BC18BC88EE3B
:1009000093E0BBCF80916D0090916E00009701F550
:100910001092DC001092DB001092DA001092D900E5
:100920001092D8001092D7001092D6001092CE00EC
:100930001092CF001092CD0088EC90E090936E0062
:1009400080936D008CB18A3A09F40FC181E008955B
:10095000019790936E0080936D008CB1E091DC0064
:100960004E2F50E04930510588F7FA01ED5EFF4FF8
:1009700009942091CD009091D80041E0490F409317
:10098000D8005BEF259F90011124F901E90FF11DBB
:10099000E651FF4F80839091DB009150981B90931C
:1009A000DB008091D9008F5F8093D9008091D600C1
:1009B00091E0980F9093D6009091D7008913C6CFFD
:1009C00026513F4F240F311DF90135978081803129
:1009D00069F4339640813196808190E0982F882782
:1009E000840F911D9093D4008093D30088E080936E
:1009F000DC00ACCF9091D600492F50E02091D70079
:100A000030E02F5F3F4F4217530709F4DEC021E06B
:100A1000290F3091D9003F5F9091DB0091502093D6
:100A2000D600981B9093DB003093D90081E00895A5
:100A30009091D900E091CD005BEFE59FF00111248A
:100A4000E90FF11DE651FF4F80838093D7009F5F30
:100A50009093D9002091DB002150281B2093DB00CC
:100A60008F5F8093D60086E08093DC009093D8005F
:100A700081E008952091D900E091CD004BEFE49FF3
:100A8000F0011124E20FF11DE651FF4F8083909198
:100A9000DB009150981B9093DB002F5F2093D900CF
:100AA00085E08093DC0081E008952091CD00909155
:100AB000D900422F50E03BEF239FF0011124E90FB2
:100AC000F11DE651FF4F808331E0390F3093D9009B
:100AD0003091DA00931709F463C09091DB009150D4
:100AE000981B9093DB0032CFE091CD009091D9001C
:100AF00021E0290F2093D9003BEFE39FF00111245F
:100B0000E90FF11DE651FF4F80839091DB0091507A
:100B1000981B9093DB00233009F018CF833809F439
:100B20008FC02093DC0012CF1092D900893CA0F036
:100B30001092DC000BCF2091D9009091DA00291798
:100B400009F467C09091DB009150981B9093DB00F3
:100B50002F5F2093D900FACE8093DA00809580939E
:100B6000DB0082E08093DC00F1CE8091CD00E82FA5
:100B7000F0E0E253FF4F90819F3F39F4E1E0E81B42
:100B8000E093CD00F0E0E253FF4F108281E08093CC
:100B9000DC0088EC90E090936E0080936D00D6CEE0
:100BA0003091DB00831308C0FA01E253FF4F9083BA
:100BB00081E0821B8093CD001092DC001092DB005C
:100BC0001092DA001092D900C1CE3091D9009091E4
:100BD000DA00391769F19091E400891314C0E091AB
:100BE000CD009091D80021E0290F2093D8002BEF61
:100BF000E29FF0011124E90FF11DE651FF4F8083C0
:100C000097E09093DC003F5F9091DB00915021E0F2
:100C100006CF9091DB008917B9F01092DC0010929A
:100C2000DB001092DA001092D9001092D8008ECE1C
:100C30001092DC001092DA009FEF31E021E0EFCE5D
:100C400084E08093DC0082CE8091CD009091D8002A
:100C5000282F30E04BEF849FF0011124E651FF4F25
:100C6000E90FF11D359790819031B9F2F901E25306
:100C7000FF4F9091D7009A5F908391E0981B9093DB
:100C8000CD00CBCF0F931F93CF93DF931F92CDB7A0
:100C9000DEB73091DF00311134C0F89431E020919B
:100CA000CD00E32FE21BE093DE00F0E0E253FF4FC4
:100CB00020812223E9F04423D9F070E050E08B0139
:100CC000040F151FA22FB0E0A017B1078CF03093CE
:100CD000DF002093DD002FEF208378942091DE0049
:100CE0003BEF239F600D711D112466517F4F16D27B
:100CF00078948091DD000F90DF91CF911F910F913B
:100D0000089541110AC0213099F08091DD000F90C3
:100D1000DF91CF911F910F91089570E050E0DB01BA
:100D2000A40FB51FE091DD00F0E0EA17FB078CF49B
:100D3000E091DE00F0E0E253FF4F10821092DD0000
:100D40001092DF0080E00F90DF91CF911F910F9103
:100D500008953091DE00EBEF3E9F600D711D112470
:100D600066517F4F2983DAD12981CDCF662301F1E6
:100D70002091D000DC0180E0E091D20091E09E0F54
:100D80009093D2003D91F0E0E052FD4F3083983CCB
:100D900061F0283C38F42F5F2093D0008F5F8613DA
:100DA000EBCF01C08F5F90E008951092D200F1CF99
:100DB00080E090E00895EF92FF920F931F93CF93FE
:100DC000DF9300D0CDB7DEB77C01162F042F8AEA5F
:100DD0008A83198261E0CE010296C8DF82E0810F2A
:100DE0008A8340E061E0CE01029686D1898361E08A
:100DF000CE010296BBDF0A8340E061E0CE0102969D
:100E00007BD19981890F898361E0CE010296AEDFA3
:100E10008091E4008A8340E061E0CE0102966CD1CB
:100E20009981890F898361E0CE0102969FDF612F4E
:100E3000C7019CDF40E0612FC7015ED19981890F16
:100E4000898361E0CE01019691DF0F900F90DF91D1
:100E5000CF911F910F91FF90EF90089521B3206CD7
:100E600021BB22E02BB928E92AB92AB1287F2AB967
:100E700026E820BD20B5276020BD90BD89B95E9AC7
:100E80000895EF92FF920F931F93CF93DF93CDB707
:100E9000DEB72A970FB6F894DEBF0FBECDBF8C0128
:100EA00085E090E09A87898718861F821E821D82BE
:100EB0001C821B8280E197E29A83898310161106B7
:100EC0000CF050C089859A859C01215031093A87E0
:100ED0002987892B09F451C0EE24E394F12C27C013
:100EE0008F819885019769F12D813E8149815A81D1
:100EF000429FC001439F900D529F900D1124081BEB
:100F0000190B29813A81ADECBCEC66D49695879596
:100F100096958795969587959A83898389859A85ED
:100F20009C01215031093A872987892B31F1698148
:100F30007A81C8012AD47E836D838D819E81892B1D
:100F400079F2F886EF828D819E81C0969E838D8393
:100F500061E0CE0105960ADF8D819E81C0979E8358
:100F60008D83C2CF01151105A9F480E390E09E8323
:100F70008D8361E0CE010596F9DE2A960FB6F894CE
:100F8000DEBF0FBECDBFDF91CF911F910F91FF90BC
:100F9000EF9008950E5F1F4F1C830B831AC061E012
:100FA000CE010596E3DE8D819E81C0979E838D8361
:100FB0008D819E8189819A8129813A81ADECBCEC39
:100FC0000BD49695879596958795969587959A8350
:100FD000898389859A859C01215031093A8729871F
:100FE000892B59F28B819C8169817A81CED37E8352
:100FF0006D838D819E81892B21F48F819885892B2A
:10100000B9F28F819885019698878F838D819E8113
:10101000C0969E838D838F819885019709F0BFCFFD
:1010200061E084E790E0A2DEBACF5F9902C080E081
:10103000089568CC5D9B10C08091D000811112C0D2
:101040005E9B32C086E400008150E9F71092D50023
:101050009798969A5E9A08958091D000882381F39C
:101060008FEF08958091D500811105C081E08093B4
:10107000D500979A9698E091D100F0E0E052FD4FAC
:1010800080818CB98091D1008F5F8093D100909145
:10109000D00091509093D000883C11F081E00895E9
:1010A0001092D10081E0089580E008951F920F9280
:1010B0000FB60F9211242F933F934F935F936F932B
:1010C0007F938F939F93AF93BF93EF93FF935F991A
:1010D00011C0FF91EF91BF91AF919F918F917F913F
:1010E0006F915F914F913F912F910F900FBE0F9095
:1010F0001F90189507DCEDCF662371F0FC0161505D
:10110000262F30E02F5F3F4F280F391F9191909588
:10111000490FE217F307D1F7842F089541155105C0
:1011200049F0DB01FC01480F591F8D918193E417B1
:10113000F507D9F70895CF93DF93CDB7DEB7E397DF
:101140000FB6F894DEBF0FBECDBF11BC8A9A929A3B
:101150002DDBC4DB4DD88091E80090E07FDE7894F1
:1011600088EE93E0F3D7E12CF12C412CD12C512CBB
:10117000B12CA12CC12C58E0352E64E0262E78EE3F
:10118000872E73E0972EE114F10409F47CC038EB4C
:10119000E3163BE0F30609F4F6C24FEFE41AF40A53
:1011A000D1107FC06091D3007091D40080917800FD
:1011B000909179006817790799F080E159D760918B
:1011C000D40081E155D780917A0090917B00BED701
:1011D00080917A0090917B009093790080937800C1
:1011E0002DDA8091760090917700009709F46BC01A
:1011F0000197909377008093760046E0D42E1ADF13
:1012000020E043E060E0CE0101963CDD082F880F2E
:10121000110B10161106BCF489818F3F09F456C0DA
:101220009091E400891709F469C08A818A1509F44C
:101230007BC041E0C41609F48AC021E040E060E0D0
:1012400080E090E01FDD51E0C51669F182E0C81230
:101250009ACF91E0591297CF8091760090917700C4
:10126000892B09F090CF8091C5009091C600998399
:101270008A834B2D62E0CE0101969DDD512CE11455
:10128000F10409F084CF92982FE630E0422F61E01C
:1012900085E690E090DD4FEFE41AF40ADD2009F4D2
:1012A00081CFDA94ACCF8091760090917700892B32
:1012B00009F069CFC9824B2D61E0CE0101967BDD3B
:1012C00082E0C82E60CF36E0D32E99CF8B81863056
:1012D00009F440C0833009F46BC0833809F446C177
:1012E000873009F446C0893009F45AC0BA8039827F
:1012F0004B2D61E0CE0101965EDD9FCFBA808B81E0
:10130000833009F4C0C0823009F49FC1813051F0AC
:10131000893069F7F894ACDA78948091E80090E02D
:101320009DDD81E08983E4CF22E0C21286CF31E0E7
:10133000531283CF8091C5009091C60099838A8310
:101340004B2D62E0CE01019636DD512C76CF4394D1
:10135000A82E73CFBA808091E40054E6859FC00127
:1013600011249093770080937600A12CCC24C39411
:1013700064CF32E0C31261CFBA80AA20D9F2809143
:10138000E80090E0880F991F489E9001499E300D1B
:1013900011243093770020937600552453944DCF39
:1013A000F89466DA78948091E80090E057DD45CFB4
:1013B00020E041E063E0CE01029664DC2B82043041
:1013C000110509F4DAC1380164E010E00BC0823184
:1013D00008F453C085E068167104E9F06B8191E070
:1013E000691A710881E0860F8B8320E041E0CE010D
:1013F000019648DC8A818B3050F7F89469818A81A4
:1014000091E0980F9A8390E062D9789411E085E09A
:101410006816710419F780918000909181002091E5
:101420007C0030917D008217930709F058C18091AC
:101430007A0090917B00209178003091790082179A
:101440009307A9F083D680917A0090917B009093C6
:101450007900809378009093D4008093D300109209
:101460007D0010927C001092810010928000112368
:1014700009F4E3CEF8949AD995CF698191E0980F59
:101480009A83F6D5A7CF380144E0641A710820E0AA
:1014900041E063E0CE010296F5DB8A81F301E80FBB
:1014A000F11D73970CF023CF2B82672809F467C1D5
:1014B000380164E010E00BC0823108F451C0F5E05F
:1014C0006F167104E9F06B8121E0621A710881E006
:1014D000860F8B8320E041E0CE010196D3DB8A8129
:1014E0008B3050F7F89469818A8191E0980F9A8344
:1014F00090E0EDD8789411E0F5E06F16710419F7DB
:10150000809180009091810020917C0030917D003D
:101510008217930709F017C180917A0090917B00A0
:10152000209178003091790028173907A9F00ED65C
:1015300080917A0090917B0090937900809378005D
:101540009093D4008093D30010927D0010927C0081
:1015500010928100109280001111B2C02982C8CE71
:10156000698191E0980F9A8383D5A9CF20E042E06A
:1015700063E0CE01019686DB21E04A8166E0CE0180
:10158000039680DB4A81442361F18E010D5F1F4F7A
:10159000612C712C1BAA0CC08231D8F0FFEF6F1A9E
:1015A0007F0A0F5F1F4F842F90E068167906D0F4F2
:1015B00089818B3088F7F894F8016081898191E006
:1015C000980F998390E083D87894F1E0FBAB4A813F
:1015D000E5CFF801608191E0980F998349D54A8160
:1015E000DDCF1BAA809180009091810020917C002A
:1015F00030917D008217930709F08BC080917A00AB
:1016000090917B00209178003091790082179307A8
:10161000A9F09CD580917A0090917B0090937900FD
:10162000809378009093D4008093D30010927D0033
:1016300010927C0010928100109280002BA922232E
:1016400009F4FBCDF894B2D8ADCE20E042E063E0DF
:10165000CE01039617DB8B812C81422F50E0BA011B
:10166000680F711D633171050CF041CE452B09F4F3
:1016700088C0AE014B5F5F4F3A0100E010E012C03E
:10168000823128F4800F42D5F30180832C810F5FD3
:101690001F4FFFEF6F1A7F0A822F90E0081719077C
:1016A000C4F48B818B3060F7F8948B81F801E80FDC
:1016B000F11DCF017AD8F301808378942C81E7CF94
:1016C000F89474D878948091E80090E0C7DB298280
:1016D0000FCE602F4B2DCE0105966DDBAECD9093D6
:1016E0007D0080937C0060917E0070917F0020E0FF
:1016F00030E044E650E036D5909279008092780050
:1017000090927B0080927A009092D4008092D300D5
:10171000AECE90937D0080937C0060917E007091AE
:101720007F0020E030E044E650E01CD59092790044
:101730008092780090927B0080927A009092D40000
:101740008092D3007BCF90937D0080937C0060914A
:101750007E0070917F0020E030E044E650E002D54A
:10176000909279008092780090927B0080927A002B
:101770009092D4008092D300EFCE10E04CCE10E0D7
:10178000BFCE60E0A7CF929A08CDAA1BBB1B51E148
:1017900007C0AA1FBB1FA617B70710F0A61BB70BE1
:1017A000881F991F5A95A9F780959095BC01CD0186
:1017B000089597FB072E16F4009406D077FD08D005
:1017C000E4DF07FC05D03EF4909581959F4F089586
:1017D000709561957F4F0895A29FB001B39FC0019E
:1017E000A39F01D0B29F700D811D1124911D0895FA
:1017F000E199FECF9FBB8EBBE09A99278DB30895E8
:10180000262FE199FECF9FBB8EBB2DBB0FB6F89460
:0E181000E29AE19A0FBE01960895F894FFCF78
:10181E000208424303796F6C6F7301E803C800300E
:06182E00784645002D0084
:00000001FF
